:020000040800F2
:1000000028120020E10400085D0500085D050008D5
:100010005D0500085D0500085D05000800000000A2
:100020000000000000000000000000005D05000866
:100030005D050008000000005D0500085D05000882
:100040005D0500085D0500085D0500085D05000808
:100050005D0500085D0500085D0500085D050008F8
:100060005D0500085D0500085D1200085D050008DB
:100070005D0500085D0500085D0500085D050008D8
:100080005D0500085D0500085D0500085D050008C8
:100090005D0500085D0500085D0500085D050008B8
:1000A0005D0500085D0500085D0500085D050008A8
:1000B0005D0500085D0500085D0500085D05000898
:1000C0005D0500085D0500085D0500085D05000888
:1000D0005D0500085D0500085D0500085D05000878
:1000E0005D0500085D0500085D0500085D05000868
:1000F0005D0500085D0500085D0500085D05000858
:100100005D0500085D0500085D0500085D05000847
:100110005D0500085D0500085D0500085D05000837
:100120005D0500085D0500085D0500085D05000827
:100130005D0500085D0500085D0500085D05000817
:100140005D0500085D0500085D0500085D05000807
:100150005D0500085D0500085D0500085D050008F7
:100160005D0500085D0500085D0500085D050008E7
:100170005D0500085D0500085D0500085D050008D7
:100180005D0500085D05000810B5054C237833B9FE
:10019000044810B10448AFF300800121217010BD64
:1001A0009408002000000000387A000808B5064BCB
:1001B0001BB106480649AFF300800648016811B13B
:1001C000054A02B1904708BD00000000387A0008D7
:1001D00098080020900800200000000090B484B02F
:1001E00000AF02460B46FA71BB714FF00003FB6093
:1001F000BB7903F003034FEA83034FF00F0202FAC7
:1002000003F3FB604FF46053C4F20103BA794FEA81
:100210009202D2B210464FF46052C4F20102B97990
:100220004FEA9101C9B201F1020152F82110FA68B6
:100230006FEA0202114000F1020243F822104FF46B
:100240006053C4F20103BA794FEA9202D2B2104667
:100250004FF46052C4F20102B9794FEA9101C9B278
:1002600001F1020152F82110FC79BA7902F003027F
:100270004FEA820204FA02F2114300F1020243F84B
:10028000221007F11007BD4690BC704780B58AB0B8
:1002900000AF786039604FF000037B624FF00003DD
:1002A0003B624FF00003FB614FF00003BB617B68D2
:1002B0001B8A9BB27B627B6A23F440537B623B6860
:1002C000DB887A6A13437B627B6A9AB27B681A8204
:1002D0007B689B899BB27B627B6A23F4B05323F0DB
:1002E0000C037B623B689A883B681B8913439AB274
:1002F0003B685B8913439BB27A6A13437B627B6AD8
:100300009AB27B689A817B689B8A9BB27B627B6A8C
:1003100023F440737B623B689B897A6A13437B6258
:100320007B6A9AB27B689A8207F10803184600F04C
:1003300083FC7A684FF48053C4F201039A4206D0DA
:100340007A684FF4A053C4F201039A4202D17B6948
:100350003B6201E03B693B627B689B899BB29BB23D
:100360001BB2002B0FDA3A6A13464FEA83039B183D
:100370004FEA83029A183B681B684FEA4303B2FBBB
:10038000F3F3FB610EE03A6A13464FEA83039B18CE
:100390004FEA83029A183B681B684FEA8303B2FB5B
:1003A000F3F3FB61FA6948F21F53C5F2EB13A3FBA9
:1003B00002134FEA53134FEA03137B627B6A4FEA3F
:1003C00013134FF0640202FB03F3FA69D31ABB6103
:1003D0007B689B899BB29BB21BB2002B12DABB6974
:1003E0004FEAC30303F1320248F21F53C5F2EB1385
:1003F000A3FB02134FEA531303F007037A6A134374
:100400007B6211E0BB694FEA031303F1320248F249
:100410001F53C5F2EB13A3FB02134FEA531303F070
:100420000F037A6A13437B627B6A9AB27B681A81F4
:1004300007F12807BD4680BD80B483B000AF786067
:100440000B46FB70FB78002B08D07B689B899BB226
:1004500043F400539AB27B689A8107E07B689B89DA
:100460009BB223F400539AB27B689A8107F10C0780
:10047000BD4680BC704700BF80B483B000AF7860D9
:100480000B467B807B884FEAC3534FEAD3539AB223
:100490007B689A8007F10C07BD4680BC704700BF9F
:1004A00080B485B000AF78600B467B804FF00003CE
:1004B000FB737B681B889AB27B8813409BB2002B2E
:1004C00003D04FF00103FB7302E04FF00003FB7316
:1004D000FB7B184607F11407BD4680BC704700BF80
:1004E00080B582B000AF47F64023C0F600037B60C2
:1004F00040F20003C2F200033B600BE07B681A6825
:100500003B681A603B6803F104033B607B6803F1BE
:1005100004037B603A6840F69403C2F200039A42F7
:10052000ECD30B480B494FF000028842B8BF40F8AB
:10053000042BFFF6FAAFDFF82000016841F47001E8
:10054000016000F0FFFA07F10807BD4680BD00001A
:1005500094080020280A002088ED00E080B400AF55
:10056000FEE700BF80B400AF4FF46053C4F2020353
:100570004FF46052C4F20202126B42F001021A639D
:100580004FF00003C4F202034FF00002C4F2020273
:10059000126822F0030242F001021A604FF00003D9
:1005A000C4F202034FF00002C4F20202526822F0C9
:1005B00001025A604FF00003C4F202034FF0000240
:1005C000C4F20202D26822F00302DA604FF00003A4
:1005D000C4F202034FF00002C4F20202926842F039
:1005E00003029A604FF00003C4F202034FF00002CE
:1005F000C4F20202126822F00C0242F004021A60F5
:100600004FF00003C4F202034FF00002C4F20202F2
:10061000526822F002025A604FF00003C4F2020353
:100620004FF00002C4F20202D26822F00C02DA603B
:100630004FF00003C4F202034FF00002C4F20202C2
:10064000926842F00C029A60BD4680BC704700BFC1
:1006500080B400AF4FF46053C4F202034FF4605211
:10066000C4F20202126B42F002021A634FF480637A
:10067000C4F202034FF48062C4F20202126822F450
:10068000400242F480021A604FF48063C4F2020315
:100690004FF48062C4F20202526822F400625A608F
:1006A0004FF48063C4F202034FF48062C4F202028A
:1006B000D26822F44002DA604FF48063C4F202038D
:1006C0004FF48062C4F20202926842F440029A60DF
:1006D0004FF48063C4F202034FF48062C4F202025A
:1006E000126822F0407242F080721A604FF4806308
:1006F000C4F202034FF48062C4F20202526822F490
:1007000080525A604FF48063C4F202034FF4806257
:10071000C4F20202D26822F04072DA604FF48063C1
:10072000C4F202034FF48062C4F20202926842F003
:1007300040729A604FF48063C4F202034FF4806207
:10074000C4F20202126822F0406242F080621A6033
:100750004FF48063C4F202034FF48062C4F20202D9
:10076000526822F400525A604FF48063C4F20203CC
:100770004FF48062C4F20202D26822F04062DA6072
:100780004FF48063C4F202034FF48062C4F20202A9
:10079000926842F040629A604FF48063C4F20203B0
:1007A0004FF48062C4F20202126822F0405242F01A
:1007B00080521A604FF48063C4F202034FF48062E7
:1007C000C4F20202526822F480425A604FF48063FD
:1007D000C4F202034FF48062C4F20202D26822F033
:1007E0004052DA604FF48063C4F202034FF4806237
:1007F000C4F20202926842F040529A60BD4680BC48
:10080000704700BF80B400AF4FF00003C4F2020392
:100810004FF00002C4F20202526942F001025A6132
:100820004FF00003C4F202034FF00002C4F20202D0
:10083000526942F002025A61BD4680BC704700BF57
:1008400080B400AF4FF00003C4F202034FF0000287
:10085000C4F20202526922F001025A614FF0000311
:10086000C4F202034FF00002C4F20202526922F005
:1008700002025A61BD4680BC704700BF80B483B09D
:1008800000AF786000BF7B68002B0CBF0023012302
:10089000DBB27A6802F1FF327A60002BF3D107F104
:1008A0000C07BD4680BC704780B584B000AFF860CF
:1008B000B9607A6009E0FFF7A5FFB868FFF7DEFFCF
:1008C000FFF7BEFF7868FFF7D9FFFB68002B0CBF6E
:1008D00000230123DBB2FA6802F1FF32FA60002B39
:1008E000E9D107F11007BD4680BD00BF80B500AF5C
:1008F0004FF48063C4F202034FF48062C4F2020238
:10090000526922F400625A614FF48063C4F2020318
:100910004FF48062C4F20202526942F480525A617A
:100920004FF48063C4F202034FF48062C4F2020207
:10093000526922F400525A614FF48063C4F20203F8
:100940004FF48062C4F20202526942F480425A615A
:100950004FF046004FF0C8014FF49672FFF7A4FF26
:1009600080BD00BF80B500AF4FF48063C4F20203C6
:100970004FF48062C4F20202526922F400625A61AA
:100980004FF48063C4F202034FF48062C4F20202A7
:10099000526942F480525A614FF48063C4F20203F8
:1009A0004FF48062C4F20202526922F400525A618A
:1009B0004FF48063C4F202034FF48062C4F2020277
:1009C000526942F480425A614FF069004FF0F001E1
:1009D00040F28A22FFF768FF80BD00BF80B500AFFC
:1009E0004FF48063C4F202034FF48062C4F2020247
:1009F000526942F400625A614FF48063C4F2020308
:100A00004FF48062C4F20202526922F480525A61A9
:100A10004FF48063C4F202034FF48062C4F2020216
:100A2000526922F400525A614FF48063C4F2020307
:100A30004FF48062C4F20202526942F480425A6169
:100A40004FF03A004FF4C8714FF41672FFF72CFFC5
:100A500080BD00BF80B500AF4FF48063C4F20203D5
:100A60004FF48062C4F20202526922F400625A61B9
:100A70004FF48063C4F202034FF48062C4F20202B6
:100A8000526942F480525A614FF48063C4F2020307
:100A90004FF48062C4F20202526942F400525A6179
:100AA0004FF48063C4F202034FF48062C4F2020286
:100AB000526922F480425A614FF03A004FF4C871F3
:100AC0004FF41672FFF7F0FE80BD00BF80B500AF97
:100AD0004FF48063C4F202034FF48062C4F2020256
:100AE000526922F400625A614FF48063C4F2020337
:100AF0004FF48062C4F20202526922F480525A61B9
:100B00004FF48063C4F202034FF48062C4F2020225
:100B1000526922F400525A614FF48063C4F2020316
:100B20004FF48062C4F20202526922F480425A6198
:100B30004FF4CA704FF001014FF4FA72FFF7B4FEA0
:100B400080BD00BF80B582B000AF00F003FAFFF7B0
:100B500009FDFFF77DFD4FF00003FB804FF0000320
:100B6000BB804FF000033B604FF46053C4F20203BC
:100B70004FF46052C4F20202926842F0A0029A60FE
:100B800000F00CFA00F02EFA00F0B2FA00F044FB8C
:100B900000F0F6FB40F6F403C2F200034FF000024F
:100BA0001A6000F0EDFBFFF72DFEFFF79FFE00F04F
:100BB00001F8F6E780B500AF40F6F403C2F2000397
:100BC0001B68002B17D100F033FC024647F22F536D
:100BD0009A4210DC00F02CFCFFF73CFFFFF7C2FE4E
:100BE000FFF774FFFFF7FAFE40F6F403C2F20003CA
:100BF0004FF001021A6040F6F403C2F200031B68D2
:100C0000012B17D100F014FC024647F22F539A42F1
:100C100010DC00F00DFCFFF7E1FEFFF7A3FEFFF78D
:100C200055FFFFF717FF40F6F403C2F200034FF041
:100C300000021A6080BD00BF80B489B000AF786048
:100C40004FF00003BB614FF000037B614FF00003E6
:100C5000FB614FF002033B614FF00003FB604FF07C
:100C60000203BB604FF46053C4F202039B6803F0BD
:100C70000C03BB61BB69042B0AD0082B0FD0002BDF
:100C800060D17A684FF41053C0F2F403136060E04F
:100C90007A6847F64003C0F27D13136059E04FF4C1
:100CA0006053C4F202035B6803F480034FEA93537A
:100CB000FB604FF46053C4F202035B6803F03F0330
:100CC000BB60FB68002B14D047F64003C0F27D13D5
:100CD000BA68B3FBF2F24FF46053C4F202035968EE
:100CE00047F6C0730B404FEA931303FB02F3FB611B
:100CF00013E04FF41053C0F2F403BA68B3FBF2F2FE
:100D00004FF46053C4F20203596847F6C0730B40B6
:100D10004FEA931303FB02F3FB614FF46053C4F2F9
:100D200002035B6803F440334FEA134303F101030A
:100D30004FEA43033B61FA693B69B2FBF3F27B681C
:100D40001A6006E07A684FF41053C0F2F40313609F
:100D500000BF4FF46053C4F202039B6803F0F0033A
:100D6000BB61BB694FEA1313BB6140F20003C2F2DF
:100D70000003BA699B181B78DBB27B617B681A6839
:100D80007B6922FA03F27B685A604FF46053C4F225
:100D900002039B6803F4E053BB61BB694FEA9323F2
:100DA000BB6140F20003C2F20003BA699B181B78D2
:100DB000DBB27B617B685A687B6922FA03F27B684D
:100DC0009A604FF46053C4F202039B6803F46043DB
:100DD000BB61BB694FEA5333BB6140F20003C2F20F
:100DE0000003BA699B181B78DBB27B617B685A6889
:100DF0007B6922FA03F27B68DA6007F12407BD46BB
:100E000080BC704780B483B000AF78600B46FB7045
:100E1000FB78002B0CD04FF46053C4F202034FF464
:100E20006052C4F20202116B7A680A431A630DE041
:100E30004FF46053C4F202034FF46052C4F2020252
:100E4000116B7A686FEA02020A401A6307F10C0715
:100E5000BD4680BC704700BF80B483B000AF7860EF
:100E60000B46FB70FB78002B0CD04FF46053C4F2A0
:100E700002034FF46052C4F20202516B7A680A43D3
:100E80005A630DE04FF46053C4F202034FF4605212
:100E9000C4F20202516B7A686FEA02020A405A6396
:100EA00007F10C07BD4680BC704700BF80B483B01B
:100EB00000AF78600B46FB70FB78002B0CD04FF432
:100EC0006053C4F202034FF46052C4F20202116C88
:100ED0007A680A431A640DE04FF46053C4F20203C7
:100EE0004FF46052C4F20202116C7A686FEA020297
:100EF0000A401A6407F10C07BD4680BC704700BF6A
:100F000080B483B000AF78600B46FB70FB78002B99
:100F10000CD04FF46053C4F202034FF46052C4F299
:100F20000202516C7A680A435A640DE04FF4605330
:100F3000C4F202034FF46052C4F20202516C7A68A8
:100F40006FEA02020A405A6407F10C07BD4680BCF2
:100F5000704700BF80B582B000AF4FF008004FF07F
:100F60000101FFF74FFF4FF470433B604FF0010367
:100F70003B714FF00003BB714FF00003FB714FF06A
:100F800003037B713B464FF44060C4F202001946F4
:100F900000F08CFA07F10807BD4680BD80B582B02D
:100FA00000AF4FF001004FF00101FFF72BFF4FF0B2
:100FB00008033B604FF001033B714FF00003BB712E
:100FC0004FF00003FB714FF003037B713B464FF082
:100FD0000000C4F20200194600F068FA07F10807A1
:100FE000BD4680BD80B586B000AF4FF001004FF028
:100FF0000101FFF707FF4FF01003BB604FF0000344
:101000003B734FF00003FB7307F108034FF0000040
:10101000C4F20200194600F049FA4FF480404FF044
:101020000101FFF76DFF4FF000004FF00401FFF7E3
:10103000D5F84FF010033B614FF000033B754FF0C4
:1010400010037B754FF00103BB7507F110031846C1
:1010500000F050FB4FF00A033B714FF000037B712F
:101060004FF00103FB7107F10403184600F01AFC6E
:1010700007F11807BD4680BD80B483B000AF0346BA
:10108000FB8000BFFB88002B0CBF00230123DBB2D9
:10109000FA8802F1FF32FA80002BF3D107F10C0736
:1010A000BD4680BC704700BF80B485B000AF03462A
:1010B000FB800CE04FF00003FB6003E0FB6803F1F2
:1010C0000103FB60FA6840F2E7339A42F6D9FB88E5
:1010D000002B0CBF00230123DBB2FA8802F1FF32A0
:1010E000FA80002BE6D107F11407BD4680BC70479B
:1010F00080B586B000AF4FF001004FF00101FFF75F
:10110000ABFE4FF00000C4F202004FF002014FF0BE
:10111000070200F06DFA4FF004033B604FF002034A
:101120007B714FF002033B714FF00003BB714FF036
:101130000103FB713B464FF00000C4F20200194668
:1011400000F0B4F94FF400304FF00101FFF7AEFEAC
:101150004FF4E133BB604FF00003BB814FF000035D
:10116000FB814FF000033B824FF00003BB824FF046
:101170000C037B8207F108034FF48840C4F200009F
:101180001946FFF783F84FF48840C4F200004FF08F
:101190000101FFF751F907F11807BD4680BD00BFF7
:1011A00080B582B000AF0346FB7100BF4FF48840AA
:1011B000C4F200004FF08001FFF772F90346002BE4
:1011C000F4D0FB799BB24FF48840C4F2000019467A
:1011D000FFF752F907F10807BD4680BD90B585B00D
:1011E00000AF78604FF00003FB600AE0FB687A68AC
:1011F000D3181B781846FFF7D3FFFB6803F10103F0
:10120000FB60FC68786800F04DFF03469C42EDD31C
:1012100007F11407BD4690BD80B584B000AF4FF014
:1012200002004FF00101FFF741FE4FF00003BB80C9
:101230004EF66023BB604FF00003BB814FF000030C
:10124000FB8007F104034FF48060C4F200001946EC
:1012500000F09AFB07F11007BD4680BD80B500AFD6
:101260004FF0100000F0E2FA0346002B00F08780F8
:1012700040F6B003C2F200031B68002B24D14FF4E8
:101280000063C4F202034FF480725A6140F6B00367
:10129000C2F200034FF001021A6040F6B403C2F23A
:1012A00000034FF000021A604FF48063C4F20003A1
:1012B0004FF000025A624FF48060C4F200004FF019
:1012C000010100F0DBFB56E040F6B003C2F2000380
:1012D0001B68012B4FD14FF40063C4F202034FF49B
:1012E00040725A614FF48063C4F200035A6A40F6B8
:1012F000B403C2F200031A604FF48060C4F200002D
:101300004FF0000100F0BAFB40F6B403C2F2000354
:10131000D3ED007AB8EE677AF1EE087A27EE277AF5
:10132000F7EE087A67EE277A40F6B803C2F20003B8
:10133000C3ED007A40F6B803C2F200031B681846FA
:1013400000F020FD02460B4640F6C010C2F200003D
:1013500047F68401C0F6000100F07CFE40F6C010A4
:10136000C2F20000FFF73AFF40F6B003C2F20003FA
:101370004FF000021A604FF0100000F083FA80BDB9
:1013800080B500AF47F69800C0F60000FFF726FFD3
:1013900040F6C010C2F20000FFF720FF4FF4806358
:1013A000C4F200034FF000025A624FF00003C4F28F
:1013B00002034FF00002C4F20202526922F0080256
:1013C0005A614FF02000FFF757FE4FF00003C4F2C0
:1013D00002034FF00002C4F20202526942F0080216
:1013E0005A614FF0A000FFF747FE4FF00003C4F230
:1013F00002034FF00002C4F20202526922F0080216
:101400005A614FF06400FFF74FFE40F6C010C2F281
:101410000000FFF7E3FE40F6B803C2F20003D3ED8D
:10142000007AFDEEE77A17EE903A184680BD00BFCD
:1014300080B500AF4FF00003C4F202034FF000028A
:10144000C4F20202526922F008025A614FF0010010
:10145000FFF712FE4FF00003C4F202034FF0000248
:10146000C4F20202526942F008025A614FF00500CC
:10147000FFF702FE4FF00003C4F202034FF0000238
:10148000C4F20202526922F008025A614FF00F00C2
:10149000FFF70AFE40F6B803C2F20003D3ED007A6C
:1014A000FDEEE77A17EE903A184680BD80B487B01B
:1014B00000AF786039604FF000037B614FF00003AC
:1014C0003B614FF00003FB604FF000037B6186E05F
:1014D0007B694FF0010202FA03F33B613B681A6833
:1014E0003B691340FB60FA683B699A4273D17B68A1
:1014F0001A687B694FEA43034FF0030101FA03F3D3
:101500006FEA03031A407B681A607B681A683B68BD
:101510001B7919467B694FEA430301FA03F31A4327
:101520007B681A603B681B79012B03D03B681B79F1
:10153000022B34D17B689A687B694FEA43034FF0F2
:10154000030101FA03F36FEA03031A407B689A6010
:101550007B689A683B685B7919467B694FEA43036D
:1015600001FA03F31A437B689A607B685A687B69C7
:101570009BB24FF0010101FA03F36FEA03031A4033
:101580007B685A607B685A683B689B7919467B691F
:101590009BB201FA03F39BB21A437B685A607B68E3
:1015A000DA687B699BB24FEA43034FF0030101FA0B
:1015B00003F36FEA03031A407B68DA607B68DA683A
:1015C0003B68DB7919467B694FEA430301FA03F371
:1015D0001A437B68DA607B6903F101037B617B69F5
:1015E0000F2B7FF675AF07F11C07BD4680BC704717
:1015F00080B485B000AF786013460A467A807B706D
:101600004FF00003FB604FF00003BB607A787B88EB
:1016100003F007034FEA830302FA03F3FB607B88BE
:101620004FEAD3039BB21A467B884FEAD3039BB29F
:1016300019467B6801F1080153F821107B8803F0FB
:1016400007034FEA83034FF00F0000FA03F36FEA3A
:10165000030319407B6802F1080243F822107B88DB
:101660004FEAD3039BB21A467B6802F1080253F893
:101670002220FB681343BB607B884FEAD3039BB2F5
:101680001A467B6802F10802B96843F8221007F194
:101690001407BD4680BC704780B485B000AF786049
:1016A00040F6BC03C2F200031B68002B08D140F6D1
:1016B000BC03C2F2000340F62822C2F200021A6004
:1016C00040F6BC03C2F200031B68FB6040F6BC039B
:1016D000C2F200031A687B68D21840F6BC03C2F25B
:1016E00000031A60FB68184607F11407BD4680BC6A
:1016F000704700BF80B485B000AF78604FF0000342
:10170000FB604FF47053C4F20103FB607B689B796C
:10171000002B78D04FF47053C4F201034FF4705291
:10172000C4F2010211687A6812686FEA02020A4084
:101730001A604FF47053C4F201034FF47052C4F2B4
:10174000010251687A6812686FEA02020A405A6020
:101750007B681B79FA68D318FB60FB68FA6811682C
:101760007A6812680A431A604FF47053C4F2010396
:101770004FF47052C4F2010291687A6812686FEAFD
:1017800002020A409A604FF47053C4F201034FF40E
:101790007052C4F20102D1687A6812686FEA0202DC
:1017A0000A40DA607B685B79102B1AD14FF47053D2
:1017B000C4F201034FF47052C4F2010291687A68D6
:1017C00012680A439A604FF47053C4F201034FF455
:1017D0007052C4F20102D1687A6812680A43DA6072
:1017E0001FE04FF47053C4F20103FB607B685B7928
:1017F000FA68D318FB60FB68FA6811687A681268A7
:101800000A431A600DE07B681B79FA68D318FB6005
:10181000FB68FA6811687A6812686FEA02020A4087
:101820001A6007F11407BD4680BC704780B485B0CC
:1018300000AF78604FF00003FB734FF00003BB6014
:101840004FF47053C4F201031A687B681340BB6005
:101850004FF47053C4F201035A697B681340002BA4
:1018600006D0BB68002B03D04FF00103FB7302E0EE
:101870004FF00003FB73FB7B184607F11407BD46CE
:1018800080BC704780B483B000AF78604FF4705371
:10189000C4F201037A685A6107F10C07BD4680BCA7
:1018A000704700BF80B485B000AF78604FF0000390
:1018B000FB734FF00003BB734FF00F037B737B6828
:1018C000DB78002B45D04FF46D43CEF20003DB688C
:1018D0006FEA030303F4E0634FEA1323FB73FB7B1C
:1018E000C3F10403BB737A7BFB7B42FA03F37B7384
:1018F0007B685B781A46BB7B02FA03F3FB737B6859
:101900009A787B7B1340DAB2FB7B1343FB73FB7B40
:101910004FEA0313FB734FF46143CEF200037A687E
:1019200012789B18FA7B83F800234FF46143CEF2C0
:1019300000037A6812784FEA5212D2B279680978B5
:1019400001F01F014FF0010000FA01F143F82210ED
:1019500014E04FF46143CEF200037A6812784FEA44
:101960005212D2B27968097801F01F014FF00100DC
:1019700000FA01F102F1200243F8221007F11407E6
:10198000BD4680BC704700BF80B485B000AF7860B2
:1019900039604FF00003FB817B681B88FB817A680C
:1019A0004FF00003C4F201039A421FD07A684FF44B
:1019B0008063C4F201039A4218D07B68B3F1804F70
:1019C00014D07A684FF48063C4F200039A420DD0B9
:1019D0007A684FF40063C4F200039A4206D07A6832
:1019E0004FF44063C4F200039A4208D1FB8923F00C
:1019F0007003FB813B685A88FB891343FB817A683B
:101A00004FF48053C4F200039A420FD07A684FF427
:101A1000A053C4F200039A4208D0FB8923F4407318
:101A2000FB813B681A89FB891343FB817B68FA8938
:101A30001A803B685A687B68DA623B681A887B6860
:101A40001A857A684FF00003C4F201039A4206D067
:101A50007A684FF48063C4F201039A4204D13B6870
:101A60009B7A1A467B681A867B684FF001029A823D
:101A700007F11407BD4680BC704700BF80B483B037
:101A800000AF78600B46FB70FB78002B08D07B68BA
:101A90001B889BB243F001039AB27B681A8007E06F
:101AA0007B681B889BB223F001039AB27B681A8083
:101AB00007F10C07BD4680BC704700BF81F00041B4
:101AC00002E000BF83F0004330B54FEA41044FEA23
:101AD000430594EA050F08BF90EA020F1FBF54EABE
:101AE000000C55EA020C7FEA645C7FEA655C00F05A
:101AF000E2804FEA5454D4EB5555B8BF6D420CDD2B
:101B00002C4480EA020281EA030382EA000083EAAD
:101B1000010180EA020281EA0303362D88BF30BD4D
:101B200011F0004F4FEA01314FF4801C4CEA1131A3
:101B300002D0404261EB410113F0004F4FEA033302
:101B40004CEA133302D0524263EB430394EA050F8D
:101B500000F0A780A4F10104D5F1200E0DDB02FAFC
:101B60000EFC22FA05F2801841F1000103FA0EF290
:101B7000801843FA05F359410EE0A5F120050EF156
:101B8000200E012A03FA0EFC28BF4CF0020C43FA87
:101B900005F3C01851EBE37101F0004507D54FF094
:101BA000000EDCF1000C7EEB00006EEB0101B1F5E4
:101BB000801F1BD3B1F5001F0CD349085FEA30002A
:101BC0004FEA3C0C04F101044FEA445212F5800F35
:101BD00080F09A80BCF1004F08BF5FEA500C50F1D2
:101BE000000041EB045141EA050130BD5FEA4C0CB5
:101BF000404141EB010111F4801FA4F10104E9D13E
:101C000091F0000F04BF01460020B1FA81F308BF34
:101C10002033A3F10B03B3F120020CDA0C3208DD00
:101C200002F1140CC2F10C0201FA0CF021FA02F1DB
:101C30000CE002F11402D8BFC2F1200C01FA02F14B
:101C400020FA0CFCDCBF41EA0C019040E41AA2BF70
:101C500001EB0451294330BD6FEA04041F3C1CDA38
:101C60000C340EDC04F11404C4F1200220FA04F058
:101C700001FA02F340EA030021FA04F345EA030102
:101C800030BDC4F10C04C4F1200220FA02F001FAC4
:101C900004F340EA0300294630BD21FA04F0294646
:101CA00030BD94F0000F83F4801306BF81F48011DF
:101CB0000134013D4EE77FEA645C18BF7FEA655C52
:101CC00029D094EA050F08BF90EA020F05D054EA24
:101CD000000C04BF1946104630BD91EA030F1EBF29
:101CE0000021002030BD5FEA545C05D1400049412D
:101CF00028BF41F0004130BD14F580043CBF01F520
:101D0000801130BD01F0004545F0FE4141F4700105
:101D10004FF0000030BD7FEA645C1ABF19461046E0
:101D20007FEA655C1CBF0B46024650EA013406BFE1
:101D300052EA033591EA030F41F4002130BD00BFA0
:101D400090F0000F04BF0021704730B54FF480645D
:101D500004F132044FF000054FF0000150E700BFDE
:101D600090F0000F04BF0021704730B54FF480643D
:101D700004F1320410F0004548BF40424FF000012A
:101D80003EE700BF42004FEAE2014FEA31014FEA6D
:101D900002701FBF12F07F4393F07F4F81F06051BC
:101DA000704792F0000F14BF93F07F4F704730B52B
:101DB0004FF4607401F0004521F0004120E700BFBE
:101DC00050EA010208BF704730B54FF000050AE045
:101DD00050EA010208BF704730B511F0004502D546
:101DE000404261EB41014FF4806404F132045FEA48
:101DF000915C3FF4DCAE4FF003025FEADC0C18BFED
:101E000003325FEADC0C18BF033202EBDC02C2F1E2
:101E1000200300FA03FC20FA02F001FA03FE40EA74
:101E20000E0021FA02F11444C1E600BF2DE9F04191
:101E3000274C2568D5F8484184B00746002C41D08E
:101E400066681F2E1CDD234810B94FF0FF301FE0DD
:101E50004FF4C870039102920193AFF3008003998D
:101E6000029A019B04460028EFD0D5F84861002073
:101E700060602660C5F84841C4F88801C4F88C0148
:101E8000656847B9A81C013544F82010656000203A
:101E900004B0BDE8F081D4F88861012004EB850826
:101EA00000FA05F00643022FC8F88820C4F88861BC
:101EB000C8F80831E6D1D4F88C3143EA0002C4F8FE
:101EC0008C21DFE705F5A674C5F84841B8E700BFE7
:101ED000B47800080000000070B5114B114C181BBD
:101EE000811018D004EB81044E1E354654F8042DA1
:101EF00006F00106904775B126B154F8043D9847A5
:101F0000013D08D054F8040D8047013D54F8041DEC
:101F10008847013DF6D1BDE8704005F0ADBC00BF7B
:101F2000900800208C080020F0B48407034600F0DD
:101F30008E80541E002A00F08880E507CEB211D4AE
:101F40001A46671E02F8016B1346154692070FD01A
:101F5000002C7AD003F8016B9A073C461D4607D047
:101F6000013CEDE7034603F8016B9A071D46F7D1E4
:101F7000032C52D9CEB246EA06270F2C47EA074374
:101F80002DD9A4F1100217460F2FC2F300162B60B3
:101F90006B60AB60EB6005F1100216D93EB1103FEB
:101FA000136053609360D36010320F2F0DD9203F20
:101FB00002F11006136053609360D36013615361A4
:101FC0009361D36120320F2FF1D8A4F1100222F0D7
:101FD0000F0204F00F041032032C15441DD9271FE3
:101FE0003E462A46032E42F8043BC7F380070DD92C
:101FF00027B1043E032E42F8043B07D91746083E9A
:1020000047F8043B53603A1D032EF7D8231F23F0F3
:102010000302131D04F00304ED18B4B12B46C9B23A
:1020200003F8011B2C19ED436219A34202F00105CC
:102030000BD01DB103F8011BA34206D01A4602F8CB
:10204000011B5970531CA342F8D1F0BC70470546E0
:1020500014468DE70EB470B59DB021AC40F2384304
:1020600054F8042BC2F200036FF000454FF40271E4
:102070000646ADF814100495079518680296234695
:1020800002A94FF6FF750696ADF81650019400F0C0
:1020900039F8029B00221A701DB0BDE8704003B0F1
:1020A000704700BF20F0030110F00300C0F10000F2
:1020B00051F8043B00F1040C4FEACC0C6FF0000225
:1020C0001CBF22FA0CF213434FF0010C4CEA0C2C0B
:1020D0004CEA0C4CA3EB0C0222EA030212EACC12EB
:1020E00004BF51F8043B0430F4D013F0FF0F1FBFBE
:1020F000013013F47F4F013013F47F0F18BF01300C
:10210000704700BF2DE9F04FBFB0144606910C9305
:10211000089003F039F800680F90FFF7C3FF1190A3
:102120000698838903F080010AB200200021CDE9DE
:10213000120122B106980369002B01F0CC82002025
:102140002EABDFF800950D900393219323902290FE
:10215000A246149015900B901E469AF80040002C51
:1021600000F09C81252C00F099810AF1010501E025
:10217000252904D02C46013521780029F8D1CAEB55
:1021800004057DB1229B239AC6F800A0591C501962
:10219000072975602390229100F3648108360B9A19
:1021A00050190B902378002B00F0648100224FF02F
:1021B000FF3194F801800591099204F1010A8DF82C
:1021C0006320049220202B210AF1010AA8F12003A8
:1021D000582B00F2BB82DFE813F0FD01B902B9020F
:1021E0000702B902B902B902B902B902B902B301D0
:1021F0005002B9023E010E02B902C702CE02CE025F
:10220000CE02CE02CE02CE02CE02CE02CE02B90263
:10221000B902B902B902B902B902B902B902B902E6
:10222000B90284008001B9028001B902B902B90281
:10223000B9024902B902B9026D00B902B902B90284
:10224000B902B9025900B902B902DF01B902B902F3
:10225000B902B902B902B902B902B902B902B902A6
:102260003702880080018001800189028800B9025C
:10227000B902AD02B902550271009002A602B9027C
:102280006302B9025D00B902B902BF01049D45F0C5
:1022900010040494049B9D0600F191810499CC06DE
:1022A00041F198800C9A1568171D2C460C97002553
:1022B000012312E0049A42F010050495049F17F0E0
:1022C000200340F0FF80049C14F0100001F07480A3
:1022D0000C9F3A1D3C680C92002500278DF8637016
:1022E00017E0049D45F010030493049FBF0640F1DE
:1022F000D7800C9DEB1D23F00700D0E900230830A8
:102300000C9014461D46002A73F10000C0F2358778
:1023100001230599002903DB049F27F08000049026
:1023200054EA050240F0F383059A002A40F0EF8357
:10233000002B40F05986049BD90741F10E803EAF37
:10234000302007F8410D039AD41B0A94059C0A9883
:102350009DF863300E94A042B8BF2046002207903B
:10236000109213B1079B591C0791049B13F00200B4
:10237000059002D007998C1C0794049A12F0840BE4
:1023800040F02A82099D079BED1A002D40F324821C
:10239000102D41F30E82239A229BA549102431600F
:1023A000169111195A1CA5F1110E072A7460CEF36B
:1023B00000132391229200F372850836103D102DF0
:1023C00040F3FE818BB1013247F60C131031C0F699
:1023D0000003072A86E818002391229200F36E85F5
:1023E0000836103D102D40F3EB813346CDF85CB03C
:1023F0002E46BB46069D089F13E00833013247F680
:102400000C101031C0F60000103E072A83E81100BE
:102410002391229200F3C081103E0833102E40F326
:10242000CA81013247F60C101031C0F60000072AAD
:1024300083E8110023912292DFDD3846294621AA44
:1024400003F0ECFFE8B92399229A2EABD6E7099A5C
:102450000C9352420992049B43F0040204929AF8AE
:102460000080B1E60898069921AA03F0D7FF40B989
:102470002EAE94E6239B23B10898069921AA03F077
:10248000CDFF069881890B9801F0400213B2002B12
:1024900018BF4FF0FF303FB0BDE8F08F544681E6E3
:1024A0000498C50600F15D8604994C0640F15986F2
:1024B0000C9A0C9FB2F90040381DE51722462B46B6
:1024C0000C9020E70C9BDD1D25F0070101F10800B1
:1024D0000C90D1E900450023FFE60C9CE51D25F09A
:1024E000070101F108000C900D684C682A4623464C
:1024F0002846214643EC102BCDE9120103F044FF9E
:10250000012840F03B87284621460022002304F0A2
:1025100077FE002841F04A829DF863300027049935
:102520000E9703244348444F079421F080020A94F5
:102530000024B8F1470FD8BF07460492109410E763
:102540000C9A0C9B12680433002A0992FFF67FAFA5
:102550009AF800800C9337E6384F1497049FB90619
:102560001FD50C9CE01D20F00703D3E9004503F1C3
:1025700008010C910498C70740F1828454EA0502CF
:1025800000F07E84302240F002078DF864208DF840
:10259000658004970223A0E6049F294DB90614958F
:1025A000DFD4049CE20600F1F1850498430640F173
:1025B000ED850C9B191D1C880C910025DAE70C9CFD
:1025C000E31D23F0070101F108000C90D1E900455B
:1025D000012382E69DF86330002B40F007878DF8D9
:1025E00063009AF80080EFE5049B43F00102049237
:1025F0009AF80080E8E5544614F8018BB8F12A0FE8
:1026000001F0D282A8F130030022092B01F2FF81F0
:1026100014F8018B02EB820203EB4202A8F13003B3
:10262000092BA246F4D942EAE2720592CEE500BF38
:102630000C790008B8780008BC780008DC7800083D
:10264000C8780008FC7800080C9F0C993C680123AE
:1026500000200A1D8DF8630007930C928DF89040BE
:102660000A9324AF00220E9210927EE6049A42F062
:10267000080304939AF80080A6E58DF863109AF891
:102680000080A1E5049CA10640F1B4860C990B9A48
:102690000C980B68D417011D1A605C600C915CE506
:1026A0000C9D00248DF863402F680435002F01F045
:1026B0001481059A002A3846C1F257802146059AAE
:1026C00003F016F8002801F07B8105990E94C01BD9
:1026D00088420A9040F3E98721EAE1700599079062
:1026E0009DF863300C950A9110943AE6049B43F0F0
:1026F000400204929AF8008066E50C9D0C992868C7
:10270000049B0F1DAA490C9743F002024FF0780872
:10271000044630208DF86580002504928DF8640011
:1027200014910223D9E5049B43F0200204929AF805
:10273000008049E59AF80080B8F16C0F534600F02C
:102740000487049A42F0100304933DE5B8F1000FAA
:102750003FF490AE0127002407970A978DF89080E8
:102760008DF8634024AF7DE7049A42F08003049320
:102770009AF8008028E552460023A8F1300512F8A7
:10278000018BA8F1300403EB8303092C05EB430311
:102790009246F2D9099319E53846294621AA03F051
:1027A0003DFE00287FF46DAE103E102E2EAB239917
:1027B000229A3FF736AE5F46DDF85CB035461E46DE
:1027C000501C169B4C19072886E828002394229059
:1027D00000F30F84083600E0239C9DF8631069B174
:1027E000229B581C013401210DF16302072832603D
:1027F00071602394229000F3FE820836059B63B13A
:102800002298411C0234022319AA072932607360FE
:102810002394229100F3FA820836BBF1800F00F076
:102820002D820E9D0A9AAD1A002D6FDD102D40F3FA
:10283000FE8522995F48C6F800904FF0100B4A1CA5
:10284000A5F1110C5C44072AC6F804B00590239446
:102850002292CCF3001300F3A9820836103D102D0C
:1028600049DD63B101321034072A86E8000A239457
:10287000229200F3A9820836103D102D3BDD31462F
:10288000204646463C46DDF81880089F0DE008319A
:1028900001321030103D072A81E8000A229223906D
:1028A00017DC103D0831102D21DD01321030072AD0
:1028B00081E8000A23902292E9DD3846414621AAA8
:1028C00003F0ACFD00287FF4DCAD2398229A2EA9FA
:1028D000DEE73846414621AA03F0A0FD00287FF438
:1028E000D0AD103D102D2EA92398229ADDDCB046E4
:1028F00027460E460446501C059B6419072886E8A7
:1029000028002394229000F36B820836049BDA059A
:1029100000F1288122980A9A0A993760431CA4186A
:10292000072B71602394229300F3B0800836049A39
:10293000530740F1B980099D07982D1A002D40F3E7
:10294000B380102D40F3D587229BDFF86C8047F6CB
:102950000C17C0F600073760591C1027A5F1110BA2
:10296000E41907297760CBF3001B2394229100F32D
:10297000C6830836103D102D40F3B680BBF1000F22
:1029800011D0013147F60C101034C0F600000729B1
:1029900086E881002394229100F3D7830836103D06
:1029A000102D40F3A1803246DDF820B0069E18E0DD
:1029B000DC780008FC7800080C7900080832411C1B
:1029C00047F60C101034C0F60000103D072982E8CD
:1029D00081002291239477DC103D0832102D40F3C2
:1029E0008280481C47F60C111034C0F600010728FD
:1029F00082E8820023942290E0DD5846314621AAE5
:102A000003F00CFD00287FF43CAD239C22982EAAF5
:102A1000D5E70D9D012D40F37B84229B37605D1C23
:102A200001340121072D71602394229500F37B84EA
:102A30000836119B0F980135E418072D86E8090028
:102A40002394229500F37C840836DDE912010022EC
:102A5000002304F0CBFB002840F0D7820D9A013709
:102A6000501E241801353760072D7060239422957D
:102A700000F3868108361598013524181DAB072D03
:102A800033607060239422957FF750AF08980699C1
:102A900021AA03F0C3FC00287FF4F3AC049A239C22
:102AA00053072EAE3FF547AF0B980799099A91420D
:102AB000ACBF401880180B90002C40F06D810024B2
:102AC00022942EAEFFF749BB5846314621AA03F0A7
:102AD000A5FC00287FF4D5AC103D102D2EAA239C18
:102AE00022993FF77EAF16464B1C2C19072BC6F8D0
:102AF0000080756023942293D6DD0898069921AA58
:102B000003F08CFC00287FF4BCAC239CCCE7012BA9
:102B100000F0A881022B0DF1B70C00F0878107238C
:102B20004FEAD40E04EA03004EEA457BE908303050
:102B30005C460D46C0B254EA050167468CF80000B9
:102B40000CF1FF3CECD1049AD4073B4605D5302864
:102B500003D03024674603F8014C039CE21B0A9221
:102B6000FFF7F4BBB8F1650F7FF753AFDDE9120152
:102B70000022002304F03AFB002800F0AC812298E8
:102B8000A849431C01340122072B31607260239451
:102B9000229300F3518408361A980D9B984203DB68
:102BA0000499CB077FF5C3AE229B11980F9A7060F2
:102BB000591C2418072932602394229100F37F8541
:102BC00008360D9D013D002D7FF7B1AE102D40F36D
:102BD000888222980D9AC6F800901027411CA2F115
:102BE000120EE41907297760DFF83CB22394229192
:102BF000CEF3001800F316860836103D102D40F372
:102C00007382B8F1000F0ED0013110340729C6F8D5
:102C1000009077602394229100F311860836103DCE
:102C2000102D40F361822046DDF82080069C10E0E4
:102C30000836591C1030103D0729C6F800907760FF
:102C40002291239000F31F810836103D102D40F390
:102C5000EC834B1C1030072BC6F800907760239054
:102C60002293E5DD4046214621AA03F0D7FB002848
:102C70007FF407AC2398229B2EAEDAE7099D0798D4
:102C80002D1A002D7FF7CDAD102D40F3948622989C
:102C9000654AC6F800904FF0100B0130A5F1110302
:102CA0005C440728C6F804B0059223942290C3F32D
:102CB000001300F313830836103D102D48DD63B177
:102CC00001301034072886E8000A2394229000F38C
:102CD00013830836103D102D3ADD21463246089CFC
:102CE0002E460346069D0DE00832431C1031103E6F
:102CF000072B82E8000A2293239117DC103E08324A
:102D0000102E21DD581C1031072882E8000A23917B
:102D10002290E9DD2046294621AA03F07FFB002806
:102D20007FF4AFAB239922982EAADEE720462946EE
:102D300021AA03F073FB00287FF4A3AB103E102EF2
:102D40002EAA2399229BDDDC35460C4616461846F2
:102D5000411C059B6419072986E8280023942291C9
:102D600000F3008308365CE52F4A05920135059B88
:102D7000E419072D86E88800239422957FF77AAE20
:102D80000898069921AA03F049FB00287FF479AB43
:102D90002EAE239C229D6EE60898069921AA03F088
:102DA0003DFB00283FF48BAEFFF76BBB08980699FC
:102DB000029321AA03F032FB029B00287FF461AB4F
:102DC0002EAE239C229A49E50898069921AA03F081
:102DD00025FB00287FF455AB2EAE239C229A4BE5B1
:102DE0000898069921AA03F019FB00287FF449AB43
:102DF000239C2EAE8AE50898069921AA03F00EFBC3
:102E000000287FF43EAB239C2EAEF7E40898069989
:102E100021AA03F003FB00287FF433AB239C2EAEE2
:102E2000FBE400BFF8780008FC780008DDF850E00B
:102E300007960F2104EA01060EEB060027092A096E
:102E400047EA05740378154654EA050267468CF88C
:102E500000300CF1FF3CEDD10399079EC81B0A908E
:102E6000FFF774BA002D08BF0A2C80F054813EAFE2
:102E7000303407F8414D039BD91B0A91FFF766BA1E
:102E80000223FFF72ABA4046214621AA03F0C6FAD8
:102E900000287FF4F6AA2EAE23982299D5E608984A
:102EA0000699029321AA03F0B9FA029B00287FF445
:102EB000E8AA2EAE2399229AFFF780BA08980699BD
:102EC00021AA03F0ABFA00287FF4DBAA2EAE2399E7
:102ED000229AFFF786BA1A9D002D40F3B9820D9D04
:102EE00010990D9A8D42A8BF0D46B818002D059077
:102EF0000ADD229B3760591C6419072975602394E9
:102F0000229100F383840836109A25EAE575551B53
:102F1000002D40F34F81102D40F3788222999F4B72
:102F2000C6F800904FF010080131A5F1110E44448D
:102F30000729C6F804800A9323942291CEF3001B3C
:102F400000F357840836103D102D40F36282BBF128
:102F5000000F0FD0013110340729C6F80090C6F8D1
:102F600004802394229100F377840836103D102DBD
:102F700040F34F822046DDF820B0069C12E006F1B7
:102F80000802591C1030103D0729C2F80090C2F801
:102F90000480229123901BDC02F10806103D102DC5
:102FA00040F30D844B1C1030072BC6F80090C6F878
:102FB000048023902293E2DD5846214621AA03F0A3
:102FC0002DFA00287FF45DAA2398229B2EAAD8E729
:102FD0005846214621AA03F021FA00287FF451AA7D
:102FE0002EAE23982299D9E7059C2EAF0A94FFF7BD
:102FF000ADB90898069921AA03F010FA00287FF4C9
:1030000040AA239C2EAEFFF7E8BB0D9F013F002F87
:103010007FF731AD102F7FF7A7AE0D985F4BC6F845
:1030200000904FF010080135A0F1120B4444072D19
:10303000C6F80480059323942295CBF3001B00F37C
:10304000C0830836103F102F7FF790AEBBF1000F02
:103050000FD001351034072DC6F80090C6F8048053
:103060002394229500F3B9830836103F102F7FF781
:103070007DAE2146DDF820B0069C10E00836013513
:103080001031103F072DC6F80090C6F80480239138
:1030900022951ADC0836103F102F40F36383013568
:1030A0001031072DC6F80090C6F8048023912295B0
:1030B000E4DD5846214621AA03F0B0F900287FF448
:1030C000E0A92399229D2EAED9E75846214621AA90
:1030D00003F0A4F900287FF4D4A92EAE2399229DF1
:1030E000D9E72299DFF8B4B0013164190729C6F88D
:1030F00000B07560239422917FF718ACC6E408985D
:10310000069921AA03F08AF900287FF4BAA92EAE05
:10311000239C22992EE40DF1B70B204629460A2262
:10312000002304F0BDF830328BF8002020462946F9
:103130000A22002304F0B4F804460D4654EA0500C0
:103140005F460BF1FF3BE8D107E50898069921AAF5
:1031500003F064F900287FF494A92EAE239C2299F1
:103160001DE40C990C68E51722462B460F1D002A1A
:1031700073F100000C97BFF6CBA82D22644265EBDB
:1031800045058DF863200123FFF7C3B80C9A156835
:10319000171D2C460C970025FFF7ECB9FC780008AA
:1031A0000898069921AA03F039F900287FF469A943
:1031B000239C2EAE1A9B0D9A10989342074472DB03
:1031C0000499C9076FD4059D0D99ED1BC91AA94231
:1031D000B8BF0D46002D0ADD229A3760501C6419D5
:1031E000072875602394229000F36983083625EA46
:1031F000E5754D1B002D7FF79AAB102D7FF771AF52
:10320000229AC6F800901027511CA5F11108E41964
:1032100007297760DFF850B323942291C8F3001890
:1032200000F341830836103D102D7FF75DAFB8F1F4
:10323000000F0ED0013110340729C6F800907760D6
:103240002394229100F3A6830836103D102D7FF7BA
:103250004BAF2046DDF82080069C0FE00836591C55
:103260001030103D0729C6F8009077602291239016
:1032700028DC0836103D102D40F3D7804B1C103051
:10328000072BC6F80090776023902293E6DD404636
:10329000214621AA03F0C2F800287FF4F2A823985F
:1032A000229B2EAEDBE722990F98119A3060A4186A
:1032B00011984A1C072A70602394229200F3D98245
:1032C000083680E74046214621AA03F0A7F80028E7
:1032D0007FF4D7A82EAE23982299CBE708980699B9
:1032E000029321AA03F09AF8029B00287FF4C9A850
:1032F0002EAE239C2298DFE40898069921AA03F0B9
:103300008DF800287FF4BDA82EAE239C2298E1E41E
:103310000499CA073FF581AB229A37600134551CE6
:103320000120FFF7A1BB0898069921AA03F076F8BF
:1033300000287FF4A6A8239C229D2EAEFFF779BB20
:103340000898069921AA03F069F800287FF499A843
:10335000239C229D2EAEFFF778BB05992EAF0A91D4
:10336000FEF7F4BF0898069921AA03F057F8002841
:103370007FF487A8239C2EAEFFF753BA2A46234634
:1033800043EC102B03F000F8002840F0F1800327F5
:10339000734A0797734F0E9004989DF86330B8F105
:1033A000470FD8BF17460E9A20F0800403210494DB
:1033B0000A911092FEF7D5BF049B13F0400300F072
:1033C000BD8103460C980C9D011D2C880C91002595
:1033D000FEF783BF0498400640F1A7810C99081DB1
:1033E0000C880C9001230025FEF777BF9AF8008027
:1033F000FEF7EABE049BDA0640F1A8810C9A0B980E
:103400001368141D0C941860FEF7A7BE5648229945
:103410000A904B1C0A986419072B86E82100239414
:1034200022933FF7BDAE0836C4E604465CE64E4B39
:10343000229A0593FFF75FBA0898069921AA02F02D
:10344000EDFF00287FF41DA8239C2EAEFFF7A4BB40
:10345000229A464B501C01340121072833607160C9
:103460002394229000F3468108362DB90D9A1AB99B
:103470000498C0077FF55BAA22980F9B11993360CF
:103480006218431C1199072B71602392229300F359
:10349000C98208366D42002D40F37F81102D40F324
:1034A000F48110240133A5F1110C1219072BC6F871
:1034B00000907460DFF8B0B023922293CCF3001830
:1034C00000F3E0820836103D102D40F3E081B8F1A2
:1034D000000F0ED001331032072BC6F80090746035
:1034E0002392229300F32A830836103D102D40F3D7
:1034F000CE813046DDF820802E46069D10E0083053
:1035000001331032103E072BC0F800904460239224
:10351000229300F3FE800830103E102E40F38F827D
:1035200001331032072BC0F800904460239222939D
:10353000E5DD4046294621AA02F070FF00287EF40E
:10354000A0AF239A229B2EA8DAE7049A93F8018071
:1035500042F020020AF1010A0492FEF735BE00BFD4
:10356000C0780008C4780008FC780008F8780008E3
:10357000059B013300F0CA80B8F1670F00F04C8260
:10358000B8F1470F00F04882049B002C43F4807090
:103590001690C0F26F8200210E91B8F1660F00F014
:1035A0001C82B8F1460F00F07982B8F1650F00F087
:1035B0004F82B8F1450F00F04B82DDF814C02A4667
:1035C00023461BA81CA943EC102B009001916246D6
:1035D00002210898CDF808C01AAB00F0A5FCB8F19C
:1035E000670F0746DDF808C002D0B8F1470F03D1D6
:1035F000049BD80740F14382B8F1460F07EB0C0B50
:1036000000F0FE81284621460022002303F0EEFD53
:10361000F0B91C9CA34540F2F5822346302103F803
:10362000011BE0430BEB00025B451C9302F0010021
:103630000DD020B101335B4561701C9307D01C464F
:1036400004F8011B5970631C5B451C93F7D19B4622
:10365000C7EB0B01B8F1670F0D9100F05D81B8F178
:10366000470F00F05981B8F1660F40F0C9821A9AED
:10367000002A40F39082059C002C40F06B82049954
:10368000CB0700F1678222EAE27007900A9210925B
:103690000E9C002C00F03A8116982D2100248DF804
:1036A000631004900E94FEF75DBE0A9B0C9523EA0E
:1036B000E37207929DF863301094FEF752BE0898AB
:1036C000069921AA02F0AAFE00287EF4DAAE239C15
:1036D0002EAEFFF776BA4021089801F05BFD0699FF
:1036E00008600861002800F08F82069A4026566123
:1036F000FEF725BD0898069921AA02F08FFE002842
:103700007EF4BFAE1A9D239C2EAEAEE6062705972B
:103710003AE74046294621AA02F080FE00287EF4BE
:10372000B0AE2EA8239A229BF6E60C9A1768131DBA
:103730000C933C4600250123FEF7CFBD0C990A6887
:103740000F1D144600250C97FEF7C7BD049A5306BB
:1037500040F1D4800C9A0B991468101D0C902180B4
:10376000FEF7FBBC0C46FFF701BBFEF79BFC20EA13
:10377000E0710A900E9407919DF863300C951094B7
:10378000FEF7EFBD0898069921AA02F047FE00282F
:103790007EF477AE239A229B2EAE0D993760541893
:1037A0005A1C072A7160239422927FF7BFA8FFF763
:1037B0006DB9A4482399229A1690FFF701B80446E0
:1037C00027E60898069921AA02F028FE00287EF430
:1037D00058AE2EAE239C229D34E40898069921AA67
:1037E00002F01CFE00287EF44CAE2EAE239C229DDF
:1037F0003BE40898069921AA02F010FE00287EF406
:1038000040AE2EAE239C2299FFF79DBB08980699E7
:1038100021AA02F003FE00287EF433AE239C2EAED4
:10382000FFF772BB0898069921AA02F0F7FD00285D
:103830007EF427AE2EAE239C2299FFF7DEB90898BE
:10384000069921AA02F0EAFD00287EF41AAE2EAEF7
:10385000239C2299FFF7E3B90898069921AA02F060
:10386000DDFD00287EF40DAE2EAE239C2299FFF7DD
:103870007DBB0898069921AA02F0D0FD00287EF4AD
:1038800000AE1A9B239C2EAE9DE4DFF8C0B101333D
:103890005219072BC6F800B07560239222933FF7A8
:1038A00071AF083679E70898069921AA02F0B6FDAB
:1038B00000287EF4E6AD2EAE239C2299B3E408984E
:1038C000069921AA02F0AAFD00287EF4DAAD1A9E1C
:1038D0000D9B239C991B2EAE89E4059F0C95062F0A
:1038E00028BF062727EAE7740A970794564FFEF782
:1038F000B9BE2299DFF84C81FFF7F6B80C980B9B04
:103900000168041D0C940B60FEF727BC169A9DF805
:1039100063300492FEF725BD1A9AD11C134602DBD0
:10392000059C944228DAA8F10208013B002B1A9367
:103930008DF87480C0F251812B228DF87520092BEF
:1039400000F3C080303330208DF876008DF877306A
:103950001EAC1DAA0D980D9BA11A4418012B1591A0
:103960000A9440F33F810A9B5A1C22EAE27100202C
:103970000A92079110908BE60D998A426CDB0499AC
:10398000C80700F1008122EAE27007900A924FF026
:1039900067087CE60898069921AA02F03FFD0028F6
:1039A0007EF46FAD2EAE239C22994EE42D238DF82C
:1039B0006330FEF7B3BD254922980591FFF7C8B9DA
:1039C000059B059A0E9023EAE37407949DF86330F3
:1039D0000C950A921090FEF7C4BC2A4623461BA9F8
:1039E0001CAF43EC102B009101971AAB0898059A75
:1039F000032100F099FA059B074600EB030B9C4658
:103A00003878302800F0AE801A9A9344FAE5002204
:103A1000A2460592FEF7DABB0598002808BF0120F0
:103A20000590B1E50898069921AA02F0F7FC002854
:103A30007EF427AD1A9D239A229B2EAE2AE53546A9
:103A4000064624E70C790008F0780008FC780008A6
:103A5000059A02F1010CB2E5002A0D98D4BFC2F11B
:103A6000020301231B1823EAE3740A9307944FF01F
:103A700067080CE62D2704F100440E978DE5DDF86C
:103A800070B0E5E50898069921AA02F0C7FC002865
:103A90007EF4F7AC2EAE239A229B14E52A462346E9
:103AA0001BAF1CA843EC102B00970190059A0898B7
:103AB00003211AAB00F038FA059A074600EB020B17
:103AC00094469DE746F267640DF18201C6F2666492
:103AD00084FB0325DA17C2EBA50000EB80050A463C
:103AE000A3EB450303F130011170511E0928034671
:103AF000EEDC30330DF18305D8B28D4202F8010CB3
:103B00007BD9AC1AE4070DF1750113460DD51346A8
:103B10008DF876000DF1760113F8010B05E013F82E
:103B2000011B617013F8010B611C4C1CAB42487007
:103B3000F5D13EABC2EB4304F63C0AE70898069980
:103B400021AA02F06BFC00287EF49BAC2EAE239AD7
:103B5000229BCAE4059B5C1C111921EAE1700A91C1
:103B6000079094E52846214600220023CDF808C09E
:103B700003F03CFBDDF808C000287FF445AFCCF132
:103B800001021A9241E7531C23EAE3740A93079453
:103B90004FF067087BE50598C0B9049BDC0715D496
:103BA000012407940A9472E50C9B9AF801801A6824
:103BB0000C9B0592059A0433002A0C93A246BEF68C
:103BC00003AB4FF0FF330593FEF7FEBA0599881C4F
:103BD00020EAE0730A90079359E52D215B428DF8A6
:103BE0007510ACE6049A12F001017FF4BCAE0A989D
:103BF000109120EAE07407944AE50DF17604A8E6F6
:103C00001A9B92E6A34623E5089A0C2111604FF017
:103C1000FF30FEF740BC00BF024B13B1024800F07A
:103C200005B8704700000000D91E000801460020BA
:103C300002460346FEF7FAB82DE9F04F03690C6916
:103C40009C4283B0064600F36B81E01C82008F1813
:103C5000B5187B6868685A1CB0FBF2F501F11403D3
:103C60000193013C043706F11408002D00F0BE80DA
:103C70004A69D8F80030DDF8049090B24FEA124C4F
:103C800005FB00F005FB0CF202EB104C1FFA8CFE5A
:103C90009AB280B2121ACEEB134303EB224E92B2C9
:103CA000C9EB070006F1180342EA0E4901F11802B8
:103CB000974243F8049CC0F380004FEA1C4C4FEA43
:103CC0002E4E70D328B310681B6882B2000C05FB1F
:103CD00002CC05FB00F000EB1C401EFA83F21FFA39
:103CE0008CFC1FFA80FECCEB0202CEEB134303EBFD
:103CF000224E1FFA82FC06F11C0301F11C024CEA61
:103D00000E4C974243F804CC4FEA2E4E4FEA104C2B
:103D100049D31046D3F8009050F804BB1FFA8BFA31
:103D20004FEA1B4B05FB0ACC05FB0BFA0AEB1C4BBD
:103D30001FFA8BFA1EFA89FE1FFA8CFCCCEB0E0ED2
:103D4000CAEB194C0CEB2E4A99461FFA8EFE4EEA2E
:103D50000A4C49F804CB52685B681FFA82FE05FBE7
:103D60000EFE4FEA124C0EEB1B4B05FB0CF202EB66
:103D70001B4C9AB21FFA8CFE02EB2A421FFA8BFBF5
:103D8000CBEB0202CEEB134303EB224E92B24B4637
:103D900042EA0E49021D974243F8049B4FEA1C4C2D
:103DA0004FEA2E4EB5D2201D06EB80035A68EAB9C1
:103DB000181D984519D250F8042CB2B9043BC8EB31
:103DC0000300C21C50070DD5013C98450DD21A685E
:103DD000043B3AB109E01868043B30B91A68013C69
:103DE000043B12B9013C9845F5D33461304602F0EA
:103DF0003DF90028C0F28380019AD8F8003052F8CB
:103E0000040B1FFA83F981B2000CC1EB0901C0EB6E
:103E10001343DDF8049003EB2140434689B241EAA5
:103E20000041C9EB070C01350014974243F8041B0D
:103E3000CCF380014BD3B9B152F804EB19681FFAE7
:103E40008EF91FFA81FAC9EB0A094FEA1E4C484461
:103E5000CCEB114101EB204180B240EA014043F834
:103E6000040B0814974232D382461146D3F800E07F
:103E700051F8040B1FFA8EFB1FFA80F94FEA104C21
:103E8000C9EB0B0B0BEB0A00CCEB1E4A0AEB2049EB
:103E90009E4680B240EA09404EF8040B50685B68C9
:103EA00082B21FFA83FC000CC2EB0C0202EB294227
:103EB000C0EB134303EB224092B242EA004A73463E
:103EC0000A1D974243F804AB4FEA204ACDD2211D88
:103ED00006EB8103586890B91A1D98450ED252F826
:103EE000041C59B9043BC8EB0300C21C520713D58C
:103EF000013C984502D21868043B68B134612846F9
:103F000003B0BDE8F08F1A68043B002AF6D11968A7
:103F1000013C043B0029F1D1013C9845F3D3EDE786
:103F20000020EDE7000000002DE9F04F9DB0814634
:103F30000291016C269C059208935BEC10AB51B189
:103F4000436C012202FA03F24B608A6001F03CFDEF
:103F50000020C9F84000BBF100083BDB00212160D4
:103F600000231A46C7F6F073C7F6F07208EA03009A
:103F7000904218D0002200235046594654465D46D0
:103F800003F034F900282BD00898279D0123036003
:103F9000002D00F0D180A4494A1E296004920498A3
:103FA0001DB0BDE8F08F089D42F20F732B60BAF18F
:103FB000000F00F0A8809D480490279D002DEED0B2
:103FC000049DEB78002B00F00E8229460831279DD6
:103FD0002960E4E728F0004801252560C346BFE7D3
:103FE000484645EC104B1BA91AAA02F073F9C8F316
:103FF0000A560A90002E40F090801A9F1B9C6FF486
:1040000082613E198E42C0F239834FF60E42CFF6DE
:10401000FF72901B06F2124408FA00F12AFA04F526
:1040200041EA0500FDF78CFE0125013EA1F1F87182
:104030000B9500230022C3F6F873FDF743FD74A32C
:10404000D3E9002302F06AFE73A3D3E90023FDF74E
:104050003BFD044630460D46FDF782FE70A3D3E9D2
:10406000002302F05BFE02460B4620462946FDF780
:104070002BFD04460D4603F0EBF82946069000227E
:104080002046002303F0BCF8002840F0C782069ABF
:10409000162A00F2C082664C04EBC205D5E9000185
:1040A00052465B4603F0CAF8002800F0EF820698FB
:1040B0000022411E06911092BE1B013E00F1C882F3
:1040C000002407960C94069D002DC0F2B582DDF801
:1040D0001C800F9508EB050C0024CDF81CC00E9435
:1040E000029D092D2BD8052D41F34480281F0290F5
:1040F000002502998A1E032A23D8DFE812F044051E
:1041000030054A03410549494A4AC8F31308B8F142
:10411000000F18BF0A4604924FE72BF07F4323F4A9
:10412000700242F07F540025504644F44011A6F23C
:10413000FF361A9F0B957CE73F4D04952FE700242F
:1041400002940024C9F844404846214601F016FC78
:1041500001254FF0FF3204900992C9F840001192F6
:1041600005940D951B9B002BC0F2408106990E29EA
:1041700000F33C812E4D05EBC10090ED007B0599CD
:1041800000298DED027BC0F20185DDE90223504656
:10419000594602F0EDFE03F05BF80646FDF7E0FD40
:1041A000DDE9022302F0BAFD02460B4650465946AD
:1041B000FDF788FC099ADDF8108006F13003012A2A
:1041C00004460D4608F8013B00F0928000230022CF
:1041D000C4F2240302F0A2FD0022002304460D468F
:1041E00003F004F8002840F0C180049F049E099861
:1041F000023706EB000BC7EB0B01C90700F1C880C3
:10420000CDF814B0DDE902AB4CE000BFAFF30080A5
:1042100061436F63A787D23FB3C8608B288AC63FCC
:10422000FB799F501344D33FF978000828790008A0
:10423000487900081C790008F878000802F06EFD43
:104240000022002304460D4602F0D0FF52465B4692
:10425000002840F08B802046294602F089FE02F0BB
:10426000F7FF0646FDF77CFD52465B4602F056FD21
:1042700002460B4620462946FDF724FC3036002333
:104280000022C4F2240307F8016C02F047FD00226B
:104290000023B84604460D4607F1010702F0A6FFC9
:1042A000002863D152465B462046294602F060FE54
:1042B00002F0CEFF0646FDF753FD52465B4602F084
:1042C0002DFD02460B4620462946FDF7FBFBDDF897
:1042D00014C0002306F130080022674507F8018C5E
:1042E0000446B8460D46C4F2240307F10107A5D1E0
:1042F00022462B4620462946FDF7E6FB04460D469E
:104300002246DDE902012B4602F07AFF40B9DDE9E1
:10431000020122462B4602F069FF38B3F50725D586
:1043200018F801BC049AD34308EB0300C00700F15E
:1043300005851546BBF1390F08F1FF3112D18D42C9
:1043400000F03F8511F801BCBBF1390F884601F13F
:10435000FF3107D111F801BC8846BBF1390F08F1D4
:10436000FF31ECD00BF10102D3B20B7048460A9931
:1043700001F02AFB0698089D411C002288F80020C5
:104380002960279D002D3FF40AAEC5F8008006E69F
:10439000DDE902232046294602F0EAFD02F058FF3B
:1043A0000646FDF7DDFCDDE9022302F0B7FC02461C
:1043B0000B4620462946FDF785FB303600230022B8
:1043C000C4F2240307F8016C02F0A8FCB846049F6D
:1043D0000022002304460D46033702F007FF0028A1
:1043E0003FF40EAFC2E70498C11CF0E50D9F002F0B
:1043F00000F03381029C012C40F3F883099A0E9B54
:10440000571EBB42C0F2E884DD1B099C002CC0F2A1
:1044100037860C9C099FDDF830E0079A0EEB070801
:104420004846D7190121CDF83080079701F09EFB4F
:104430000B9064B10799002909DD0C9B0846A04246
:10444000A8BF20461A1A0F1A0C92241A07970E9921
:1044500000291ADD0D98002800F0AB84002D10DD36
:104460000B992A46484601F0F3FC0B900B990A9AE7
:10447000484601F085FB0A990646484601F0A4FA31
:104480000A960E9B5A1B40F0AB830121484601F06F
:104490006DFB0F9D002D074605DD394648462A462F
:1044A00001F0D6FC0746029A012A40F35981002503
:1044B0000F9B002B40F01A840121079BC91811F0B3
:1044C0001F0000F0CF80C0F12002042A40F355867F
:1044D000DDF83080079AC0F11C0308EB030CD118FB
:1044E000CDF830C0E41807910C98002805DD484647
:1044F0000A990C9A01F0F6FC0A90079A002A04DD4A
:104500003946484601F0EEFC0746109B002B40F070
:10451000D283099B002B40F3F3830D99002940F0CF
:10452000B78009980D9DC20740F1A28382460A9E7A
:10453000DDF8108010E001F051FA39460646FFF729
:104540007BFB303008F80400314648460A2200233D
:1045500001F044FA651C064639463046FFF76CFB0D
:104560006C1C00F1300B0A220023A245314648465C
:1045700008F805B0DFDC0A96DDF81080099A0025FE
:10458000012AACBF904408F1010801220A9948466B
:1045900001F0A8FC39460A9001F068FD002840F3BC
:1045A0004F8418F8012C0499C84308EB0003DB077B
:1045B00007D5392A08F1FF3018D110F8012C0499D9
:1045C0008046392A08F1FF3010D1814200F06C8317
:1045D00010F8012C392A804600F1FF3006D110F87E
:1045E000012C8046392A08F1FF30EED001320270EA
:1045F0004846394601F0E8F90B9B002B3FF4B6AE74
:10460000002D00F0E7829D4200F0E48248462946F2
:1046100001F0DAF9DEE2012310934DE50698FDF78B
:104620009FFB22462B4602F0E1FD00287FF42FADD0
:104630000698411E06912AE50C98DDF818E0002343
:10464000CEEB0001CEF100020C910E920F9347E5E4
:10465000764200230C96079335E50D980E9D0C9C31
:104660000B90E6E61C230C99DDF81CC0C8180CEB77
:10467000030E0C90E418CDF81CE035E74FF6EE354C
:10468000CFF6FF75AB1B0AFA03F0CBE4109013E5ED
:10469000002C05DD48460B99224601F023FC0B90C7
:1046A000002D40F005840B9E099D049A049B51192E
:1046B0000AF001000B9DDDF828A007915C1C099011
:1046C00039465046FFF7B8FA29468046504601F071
:1046D000CDFC394632468346484601F0F5FCC168B8
:1046E000631E0246059308F1300C002900F0878212
:1046F00048461146CDF800C001F066F9DDF800C06B
:104700000120BBF1000FC0F27B8305D1029A1AB9D8
:104710000999002900F07483002800F3E0830798CA
:1047200004F801CC8442A04600F0E88351460A22F6
:104730000023484601F052F9B542824600F08E82CD
:1047400029460A220023484601F048F93146054629
:104750000A224846002301F041F901340646AFE73A
:10476000BAF1000F7FF4A3AECBF313005946002833
:1047700040F092840025C7F6F0750D40002D3FF4FF
:1047800097AE0C9B07995A1C481C0C920790012568
:104790008EE601230D930599002940F32C830C46E6
:1047A000119109910021172CC9F844100AD901224E
:1047B00004235B0003F1140011460132A042F8D932
:1047C000C9F84410484601F0D9F80E2C0490C9F8F5
:1047D00040003FF6C7AC002D3FF4C4AC069F002F4D
:1047E000CDE912AB40F34083994C07F00F0604EB80
:1047F000C6003E11F106D0E9004540F1F882954F20
:1048000050465946D7E9082302F0B2FB06F00F06DE
:1048100082468B46032786B1DFF838822046294638
:10482000F20704D5D8E9002302F078FA01377610B0
:1048300008F10808F4D104460D4650465946224670
:104840002B4602F095FB82468B46109951B100230E
:10485000504659460022C3F6F07302F0D1FC0028FE
:1048600040F022843846FDF77BFA52465B4602F060
:1048700055FA00230022C4F21C03FDF725F9099A1A
:104880000446A1F15075002A00F07682069E199622
:10489000099E0D98002800F037836D4A002102EB35
:1048A000C60353E902230020C3F6E07102F060FB67
:1048B00022462B46FDF706F9CDE91601594650462A
:1048C00002F0C6FC0446FDF74BFA02460B46504682
:1048D0005946FDF7F7F83034DDF81080CDE91401C2
:1048E0005FFA84FB08F801BBDDE91601DDE914235A
:1048F00002F0A4FC002840F02F810021DDE9142300
:104900000020C3F6F071FDF7DDF802460B46DDE945
:10491000160102F093FC002840F00D84012E40F3B4
:104920009F82049C6FEA0807A619BD19002305F0B1
:1049300001070022C4F22403DDE916011896169738
:1049400002F0ECF900230022C4F2240304460D46D1
:10495000DDE9140102F0E2F90F46064602F078FCA8
:104960008346FDF7FDF902460B4630463946FDF712
:10497000A9F8C2460BF130025FFA82FB0AF801BBCC
:1049800022462B4606460F46D04602F039FC002848
:1049900040F0E280002132463B460020C3F6F07131
:1049A000FDF790F822462B4602F02AFC002840F042
:1049B000C28318998A4500F053821698002842D085
:1049C00000230022C4F224032046294602F0A6F95F
:1049D00000230022C4F2240304460D463046394623
:1049E00002F09CF90F46064602F032FC8046FDF7C5
:1049F000B7F902460B4630463946FDF763F808F131
:104A000030035FFA83FB0AF801BB22462B460646B9
:104A10000F46D04602F0F4FB002840F09D800021B4
:104A200032463B460020C3F6F071FDF74BF82246B4
:104A30002B4602F0E5FB002840F07D83DDF860E0C6
:104A4000F24500F00D82CDF85090DDF8609050E016
:104A500048790008107A000800210020C3F6F071A0
:104A6000FDF730F822462B4602F0CAFB0023002255
:104A7000C4F22403002840F05C832046294602F05B
:104A80004DF900230022C4F2240304460D463046AB
:104A9000394602F043F90F46064602F0D9FB80463C
:104AA000FDF75EF902460B4630463946FDF70AF837
:104AB00008F130035FFA83FB0AF801BB22462B465C
:104AC00006460F4602F09CFBD04632463B46002885
:104AD00040D100210020C3F6F071FCF7F3FF22461D
:104AE0002B4602F08DFB002840F02383CA4500F0DE
:104AF000B5810023204629460022C4F2240302F097
:104B00000DF900230022C4F2240304460D4630466A
:104B1000394602F003F90F46064602F099FB834638
:104B2000FDF71EF902460B4630463946FCF7CAFF30
:104B3000D0460BF130025FFA82FB08F801BB224637
:104B40002B4606460F4602F05BFBC24632463B460A
:104B5000002881D0DDF850901998069006E40024D2
:104B60000D94059BDDF818E003EB0E04119401345D
:104B7000002C09943FF716AE0021C9F8441021E635
:104B800001220D92EDE700200D9004E6099A002A1B
:104B90003FF7FBAA40F0E98200230022C4F214038D
:104BA000DDE9020102F0BAF852465B4602F03CFB36
:104BB000099F0B97002800F0B880059ADDF8108057
:104BC000D54306954846394600F0FEFE0B9B002B68
:104BD0003FF4CCAB48460B9900F0F6FEFFF7C6BB9E
:104BE00048460A9901F034F90A904EE40B9D002DD5
:104BF00000F04B8203F233470E9D0C9C0BE41146F0
:104C00005046CDF800C0019201F030FA019A0346F7
:104C100011464846019300F0D7FE0198DDF800C028
:104C200000287FF46EAD029900297FF46AAD099BDC
:104C3000002B7FF466ADBCF1390FCDF828A0DA4621
:104C4000E34600F0F580BAF1000F01DD08F1310B09
:104C5000DDF814800B9608F801BBC9E429464846E4
:104C60000A22002300F0BAFE01340546064627E575
:104C70000A983946FEF7E0FF099BDDF810C00125D0
:104C800000F1300BAB428CF800B07FF775AC4846B2
:104C90000A990D9B0A2200F0A1FEDDF824A00A90DB
:104CA0000646DDF8108057E4069B049A581C312113
:104CB000069011709CE40A98394601F0D7F9002853
:104CC000BFF627AC0A2248460A99002300F086FE68
:104CD000DDF818E00D9A0A900EF1FF38CDF8188033
:104CE000002A40F037821199099112E43A6907EBE2
:104CF0008200006900F0EEFEC0F12001FFF7DDBB8D
:104D0000029A022A7FF709AC002B7FF456AF39468E
:104D10000522099B484600F061FE074639460A987D
:104D200001F0A4F900287FF748AF0698DDF810805D
:104D30003123411C08F8013B069143E7BBF1390FD1
:104D400008F1FF317FF40EAB11F801BC049D8846D9
:104D5000FFF7F0BA3846FDF703F802460B46504617
:104D6000594601F0DBFF00230022C4F21C03FCF7CC
:104D7000ABFE0446A1F1507500230022C4F21403D7
:104D800050465946FCF79EFE22462B4682468B46ED
:104D900002F054FA0746002840F06F81224605F1E0
:104DA00000435046594602F02BFA002858D00B9782
:104DB00003E748460A990E9A01F04AF80A90FFF76D
:104DC00064BB0698049D411C06912946302231237C
:104DD0002A700B70FFF7CABADDF838C00F990E972A
:104DE000CCEB070548190F900025FFF70EBBDDE956
:104DF00012AB02270FE50124119409940594BBE638
:104E00000028E346CDF828A064467FF721AF0122B1
:104E10000A99484601F066F839460A9001F026F9E9
:104E2000002840F38C81392C08F1310B7FF410AF4E
:104E3000DDF814800B96392208F8012BFFF7B3BB7D
:104E400003D11BF0010F7FF4ACAB43469846013B06
:104E500018F8012C302AF9D0FFF7CABBDDF85090C2
:104E6000DDE912ABFFF77EB9069D6C42002C00F025
:104E70001681B64B04F00F0103EBC102D2E9002307
:104E8000DDE9120101F04AFF241182468B4600F051
:104E90006E81AF4D0227E30704D5D5E9002301F069
:104EA0003DFF013708356410F5D182468B46CCE4CE
:104EB0000B9D4846696800F061FD29690446881C1D
:104EC000294682000C3104F10C0000F0B1FC484688
:104ED0002146012201F006F80646FFF7E5BBBCF1CA
:104EE000390FE346CDF828A0A2D0DDF814800B9648
:104EF0000CF1010E08F801EBFFF77ABBE346CDF8A1
:104F000028A00B96FFF741BB9049731E01EBC3002D
:104F100022461893D0E900012B4601F0FFFECDE9AF
:104F200014015946504602F093F90446FCF718FF65
:104F300002460B4650465946FCF7C4FDDDF810808A
:104F40003034012E82468B4608F8014B00F08180F8
:104F5000049C0023671E07EB060A0022C4F2240308
:104F6000CDF800A001F0DAFEE6430F4606EB0A0595
:104F7000064602F06DF90446FCF7F2FE02460B46C7
:104F800030463946FCF79EFDDDF810C030348CF811
:104F90000140DDF800C0E04505F0010582468B4682
:104FA000474654D0F5B100230022C4F22403CDF8C3
:104FB00000C001F0B3FE8B46824602F049F9044678
:104FC000FCF7CEFE474602460B4650465946303463
:104FD000FCF778FD07F8014FDDF800C06745824611
:104FE0008B4634D050465946664600230022C4F210
:104FF000240301F093FE0D46044602F029F982468F
:10500000FCF7AEFE02460B4620462946FCF75AFD49
:105010000AF1300400230022C4F2240307F8014FF0
:1050200001F07CFE0D46044602F012F98346FCF7BF
:1050300097FE02460B4620462946FCF743FD0BF13E
:10504000300207F8012FB742CFD182468B46189B1A
:10505000984400230022C3F6E073DDE91401FCF755
:1050600033FD52465B4602F0CBF8002849D0199D2B
:1050700018F801BC0695FFF755B900270B9754E6C1
:105080000C9A0027141BFFF7C6B91A9B0E9D0C9CA7
:10509000C3F13607FFF7BFB95546FFF709BADDE997
:1050A00012AB0227FFF7D1BB099D002D3FF452AE92
:1050B000119B002B7FF7D4AE00230022C4F22403FF
:1050C0005046594601F02AFE8246781C8B46FCF772
:1050D00047FE02460B465046594601F01FFE00238C
:1050E0000022C4F21C03FCF7EFFCDDF818C0119E8F
:1050F0000CF1FF3E0446CDF864E0A1F15075FFF7D6
:10510000C8BB0021DDE914230020C3F6E071FCF7E1
:10511000D9FC52465B4602F091F800283FF4A0AE5D
:105120004146884601F1FF3118F8010C3028F8D0CB
:1051300012E5DDF8509019990691FFF7F3B87FF466
:1051400087AD1BF0010F3FF483AD6CE64879000892
:10515000107A000848460B990A22002300F03EFC12
:105160000B9011980990FFF7D4B900271FE602278A
:10517000FFF76BBB0125FEF7BCBF3FF4B5A9C0F13B
:105180003C03FFF770BA00BF40F23C40C2F200009F
:10519000704700BF2DE9F04F01F10B05162D83B0CC
:1051A000064627D935F0070527D4A94225D8304629
:1051B00000F0E0FBB5F5FC7F23D2BA4F4FEAD50CE7
:1051C00007EBCC02D468944200F0DE816368E268A9
:1051D000A16823F003002318CA605868916040F06A
:1051E00001025A60304600F0C7FB0834204603B085
:1051F000BDE8F08F1025A942D9D90C2434600024D1
:10520000F4E75FEA552C00F08B80BCF1040F00F24C
:1052100055814FEA951707F1380E4FEA4E01A14F1D
:1052200007EB8101CC68A14205D10CE0002A7CDAB1
:10523000E468A14207D0636823F00300421B0F2AF1
:10524000F4DD0EF1FF3E0EF1010C964B3C6903F1CB
:10525000080E744500F07581616821F003014A1B56
:105260000F2A00F35B81002AC3F814E0C3F810E0B2
:1052700069DAB1F5007F80F02F81CA0803EBC20123
:105280004FF00109921009FA02F95A688868E16042
:1052900049EA0209A060C3F804908C60C460012050
:1052A0004FEAAC0400FA04F0484556D819EA000F5A
:1052B00007D12CF0030C400019EA000F0CF1040C8C
:1052C000F9D007EBCC094C46E046E3689C4207D195
:1052D0003AE1002A80F26281DB689C4200F034816E
:1052E000596821F003014A1B0F2AF2DD1C465919A7
:1052F000D86854F808CF8A5045F0010542F0010201
:10530000CCF80C00C0F808C05D6079613961C1F863
:105310000CE0C1F808E04A60304600F02DFB65E77C
:105320004FEAD50E4FEA4E0179E72218E36850683C
:10533000A16840F001005060CB609960304600F0F9
:105340001BFB083452E7611830464B6843F00102FA
:105350004A6000F011FB083448E7BC68606820F040
:105360000309A94504D3C5EB09030F2B00F38D8076
:105370004D4A4E4B11681868013104EB090B05EBDF
:10538000000300F05A8103F580500F3020F47F6154
:1053900021F00F0C614630468DE8041001F02CF826
:1053A000B0F1FF3F80469DE8041000F05281834534
:1053B00000F20F81DFF800A1DAF80030C345634442
:1053C000CAF8003000F04A811268013200F05781BB
:1053D000CBEB080B5B44CAF8003018F0070100F073
:1053E0000B81C1F10800C1F58053804403F108022C
:1053F00008EB0C010805030DC3EB020B30465946C0
:1054000000F0FAFF431C00F04681C8EB00020BEBF2
:10541000020141F00100DAF80030C7F808805B446F
:10542000BC42CAF80030C8F8040015D0B9F10F0F1B
:1054300040F2F2806168A9F10C0222F00702A01884
:1054400001F0010C42EA0C0E05210F2AC4F804E019
:105450004160816000F21781154ABC681068834280
:1054600088BF1360134A11688B4288BF136063685A
:1054700023F00300A842C5EB000301D30F2B04DC8B
:10548000304600F079FA0024B0E6621943F00101D9
:1054900045F00105656030465160BA6000F06CFA75
:1054A0000834A3E67404002080080020C808002007
:1054B000C4080020C0080020CC080020BCF1140F54
:1054C0007BD9BCF1540F00F28D804FEA153404F102
:1054D0006E0E4FEA4E01A2E6480A042872D914283B
:1054E00000F2AE8000F15B094FEA490207EB82004F
:1054F000DFF8F0818368834200F081805A6822F0EF
:105500000302914202D29B689842F7D1DA68D7F839
:105510000490E260A360DC609460C0E6611942F030
:10552000010045F001056560596119614860C1F8E5
:105530000CE0C1F808E08A50304600F01DFA08344B
:1055400054E6D3F80490AAE608F10108083418F0EC
:10555000030F7FF4BAAE49461CF0030FA1F1080413
:105560000CF1FF3C00F0B0800968A142F4D07C68E7
:105570004000A0423FF6F1AE00283FF4EEAE0442F8
:1055800000F0A780C4469CE604F108036469A342C6
:1055900008BF0CF1020C3FF458AE17E659181C4630
:1055A0004868DB6854F8082F40F001004860D36079
:1055B0009A60304600F0E0F918E60CF15B0E4FEA15
:1055C0004E012CE64FEA911808F138094FEA4902DA
:1055D0008CE7BC423FF4EEAE424CA468626822F015
:1055E000030047E7BCF5AA7F1CD84FEAD53202F189
:1055F000770E4FEA4E0112E64FF48052F8E6D8F8E3
:1056000004004FEAA902012101FA02F242EA00096C
:10561000C8F804901A467CE70122C8F804204446E2
:10562000002027E740F254539C4524D84FEA954088
:1056300000F17C0E4FEA4E01F1E503F1100CA9E6F2
:1056400054282CD84FEA113202F16E094FEA490270
:105650004CE7BC68616821F003000BE74FEA0B5090
:10566000010D00297FF4B0AEB8680CEB090141F0E0
:1056700001044460F0E6FC214FF07E0ECFE51A48AD
:10568000C0F80080A9E604F10801184C304600F08B
:10569000C1FF2368E0E601204FF0000BBBE6B0F548
:1056A000AA7F06D84FEAD13303F177094FEA4902BE
:1056B0001CE740F2545398420FD84FEA914000F152
:1056C0007C094FEA490211E77C6824EA00047C6007
:1056D0004EE7400008F1040851E7FC224FF07E0934
:1056E00004E700BF7404002080080020CC080020DC
:1056F0008307F0B4C9B200F09680531E002A00F070
:10570000948002788A420BD0421CD8071AD512F036
:10571000030F10461CD01478013B01328C4211D18A
:10572000F0BC7047002B7CD01278013B8A42F7D046
:1057300014F0030F204604F1010209D02478013B44
:105740008C42EDD012F0030F104602F10104E9D1B2
:10575000032B3FD9046841EA012545EA054585EA5E
:105760000407A7F1013222EA07021E1F041D12F0EE
:10577000803FC6F380072DD1032E334629D967B168
:1057800020460434066885EA0602A2F1013626EABC
:10579000020212F0803F19D01CE0261D204624682A
:1057A00085EA0402A2F1013424EA020212F0803FE9
:1057B00010D1346885EA0402A2F1013424EA02021D
:1057C000043B341D12F0803F304603D1043B032BD1
:1057D000E3D820465D1E23B303788B42A0D0431C40
:1057E0000022E80714D518460122047801338C42C0
:1057F00096D09542184603F1010402F102020ED040
:105800001B788B428CD0631C204624788C4287D036
:105810009542184603F1010402F10202F0D1002082
:105820007EE718467CE7134692E7104678E700BF0C
:105830000F2A2DE9F00340F2958041EA00039B070F
:1058400040F092800C6804604D6845608E68A2F15B
:1058500010038660CC681D460F2DC460C3F300168C
:1058600001F1100400F1100322D966B126681E6010
:1058700066685E60A6689E60E668103DDE60103473
:1058800010330F2D14D926681E6066685E60A66806
:105890009E60E668DE6026691E6166695E61A669D3
:1058A0009E61E669203DDE61203420330F2DEAD869
:1058B000A2F1100323F00F0402F00F031034032BA6
:1058C00000EB0408214451D9A3F104090B464FEA27
:1058D000990901EB890C53F8046BC1EB0C054446A4
:1058E0000CF1040C634544F8046BC5F3800512D039
:1058F0002DB153F8045B634544F8045B0BD01E469E
:10590000254656F8047B45F8047B5F68331D6760C5
:105910002C1D6345F3D109F101039C00091902F024
:1059200003024444DAB123460D7803F8015BA21860
:10593000E4431419934204F0010410D02CB111F87F
:10594000014F03F8014B934209D04D781C4604F8EF
:10595000015B8D785D70631C02319342F5D1BDE827
:10596000F00370470446DDE70446DCE744461A4688
:10597000D8E700BF704700BF704700BFC36C70B569
:1059800005460C464BB153F8240080B1016843F83A
:10599000241000230361C36070BD0421212200F0A4
:1059A000BDFD0346E8640028EDD1002070BD012153
:1059B00001FA04F6721D2846920000F0AFFD00289F
:1059C000F3D044608660E4E731B1C36C4A6853F8B1
:1059D0002200086043F82210704700BF2DE9F04113
:1059E0000E46496937698CB20D0C02FB043302FB89
:1059F00005F101EB134506F118049BB203EB0543D7
:105A000044F8043C0123791E2D0C9F42804601F08E
:105A1000010039DD98B12468A3B2210C02FB0355C3
:105A200002FB01F1ABB201EB154003EB004106F1C3
:105A30001C040223050C9F4244F8041C24DD20684A
:105A400081B2000C02FB015102FB00F0254600EB85
:105A5000114089B201EB004145F8041B64681FFA4C
:105A600084FC210C02FB0CFC0CEB104002FB01F14E
:105A700001EB10412C46023385B205EB01400D0CC1
:105A80009F4244F8040BDADC3DB1B268974207DA72
:105A900006EB87020137556137613046BDE8F0817A
:105AA00073684046591CFFF769FF31698A1C044638
:105AB00006F10C0100F10C009200FFF7B9FE7068CE
:105AC000D8F84C3053F82010316043F82060264657
:105AD000DEE700BF020C034616D10304102013F0CA
