:020000040800F2
:1000000000200020B9010008FD010008FD010008E2
:1000100000000000000000000000000000000000E0
:10002000000000000000000000000000FD010008CA
:100030000000000000000000FD010008FD010008B4
:10004000FD010008FD010008FD010008FD01000898
:10005000FD010008FD010008FD010008FD01000888
:10006000FD010008FD010008FD010008FD01000878
:10007000FD010008FD010008FD010008FD01000868
:10008000FD010008FD01000800000000FD0100085E
:10009000FD010008FD010008FD010008FD01000848
:1000A000FD010008FD010008FD010008FD01000838
:1000B000FD01000800000000FD0100080000000034
:1000C0005FF808F180B582B000AF78600A1CFB1CB5
:1000D0001A70FB1C1B78002B06D0084B074A51698D
:1000E0007A680A435A6106E0044B044A5269796807
:1000F000C9430A405A61BD4602B080BD00100240AB
:1001000080B582B000AF00237B6002E07B680133E2
:100110007B607A68024B9A42F8DDBD4602B080BD32
:10012000FF083D0080B582B000AF80231B03181C80
:100130000121FFF7C7FF3B1CC02292001A603B1C45
:1001400001221A713B1C00229A713B1C03225A7136
:100150003B1C0022DA71044A3B1C101C191C00F0E5
:100160004FF8BD4602B080BD0008004880B500AF22
:10017000FFF7D8FF0F4B012252429A82FFF7C0FFD0
:100180000C4B012252429A82FFF7BAFF094B002220
:100190009A82FFF7B5FF074B00229A82FFF7B0FF64
:1001A000044B802292009A82024B802252009A8253
:1001B000E0E7C04600080048002103E00A4B5B5816
:1001C0004350043109480A4B42189A42F6D3094A6F
:1001D00002E0002313600432074B9A42F9D300F087
:1001E000ABF8FFF7C3FF7047A4040008000000202D
:1001F000000000200000002000000020FEE70000BA
:1002000080B586B000AF7860396000237B61002341
:100210003B610023FB6000237B6185E07B69012259
:10022000101C9840031C3B613B681B683A691340F3
:10023000FB60FA683B699A4273D13B681B79012BDA
:1002400003D03B681B79022B38D17B689B687A69A5
:1002500052000321081C9040021CD2431A407B68C4
:100260009A607B689A683B685B79191C7B695B00C4
:10027000081C9840031C1A437B689A607B689B8823
:100280009BB27A6992B20121081C9040021C92B282
:10029000D24392B213409AB27B689A807B689B8863
:1002A0009AB23B689B79191C7B699BB2081C9840E9
:1002B000031C9BB213439AB27B689A807B681B68CD
:1002C0007A6952000321081C9040021CD2431A4054
:1002D0007B681A607B681A683B681B79191C7B690C
:1002E0005B00081C9840031C1A437B681A607B68FB
:1002F000DB687A6992B252000321081C9040021C0C
:10030000D2431A407B68DA607B68DA683B68DB7945
:10031000191C7B695B00081C9840031C1A437B680E
:10032000DA607B6901337B617B690F2B00D875E74D
:10033000BD4606B080BDC04680B500AF1B4B1B4A12
:10034000126801210A431A60184B184A5168184A6A
:100350000A405A60154B154A1168164A0A401A603D
:10036000124B124A1168144A0A401A600F4B0F4A86
:100370005168124A0A405A600C4B0C4AD26A0F214B
:100380008A43DA62094B094A116B0D4A0A401A6323
:10039000064B064A526B01218A435A63034B0022E3
:1003A0009A6000F00FF8BD4680BDC04600100240C4
:1003B0000CB8FFF8FFFFF6FEFFFFFBFFFFFFC0FFDB
:1003C000ACFEFFFF80B582B000AF00237B6000234E
:1003D0003B60314B304A1268802149020A431A605F
:1003E0002D4B1A6880239B0213403B607B680133CE
:1003F0007B603B68002B04D17A68A023DB009A4223
:10040000EED1254B1A6880239B02134002D00123B2
:100410003B6001E000233B603B68012B38D11F4B60
:1004200011221A601C4B1C4A52685A601A4B1A4A15
:1004300052685A60184B184A5168194A0A405A6063
:10044000154B154A5268882149030A435A60124BDA
:10045000114A1268802149040A431A60C0460E4BB3
:100460001A6880239B041340F9D00B4B0A4A526848
:1004700003218A435A60084B074A526802210A4303
:100480005A60C046044B5A680C231340082BF9D11C
:10049000BD4602B080BDC0460010024000200240B0
:0404A000FFFFC0FF9B
:0400000508000000EF
:00000001FF
