:020000040800F2
:1000000098060020450E00087510000877100008BB
:1000100000000000000000000000000000000000E0
:100020000000000000000000000000007B1000083D
:1000300000000000000000007D1000087F10000894
:10004000570E0008570E0008570E0008570E0008FC
:10005000570E0008570E0008570E0008570E0008EC
:10006000570E0008570E0008570E0008570E0008DC
:10007000570E0008570E0008570E0008570E0008CC
:10008000570E0008570E000800000000570E000829
:10009000570E0008570E0008570E0008570E0008AC
:1000A000570E0008570E0008570E0008570E00089C
:1000B000570E000800000000570E00080000000066
:1000C00000F002F800F050F80CA030C808382418EE
:1000D0002D18A246671EAB4654465D46AC4201D180
:1000E00000F042F87E460F3E0FCCB6460126334262
:1000F00000D0FB1AA246AB46334318478C280000B9
:10010000AC280000103A02D378C878C1FAD8520758
:1001100001D330C830C101D504680C6070470000BD
:100120000023002400250026103A01D378C1FBD813
:10013000520700D330C100D50B60704710B5662957
:1001400002D102F08FFB10BD002010BD1FB5C046CC
:10015000C04601F0CDFE04000020002102F016FB95
:10016000E0601FBD10B510BD02F038FA1146FFF770
:10017000EDFF00F084F802F050FA03B4FFF7F2FF4D
:1001800003BC02F0C5FA0000002000E0401C6649F4
:100190008842FBDB70471CB50121880400F05FFC3E
:1001A000FF20009001216846417101710021817199
:1001B000C17169465D4800F01FF90121C80400F0D3
:1001C0004EFC0720800200900121684641710171B8
:1001D00000218171C1716946554800F00DF91CBDBF
:1001E00000B589B00121C80400F039FC01214802A2
:1001F00000F043FC01200790032108A801700021B2
:10020000C17007A94A4800F0F7F84A4800F0A6FC78
:1002100001A800F0C5FC0020019001216846017290
:10022000002003900590069001A9424800F0A4FC2C
:100230000722012189023F4800F050FD3D4800F0AF
:1002400083FD01213B4800F0B3FC00BF0121394888
:1002500000F0C4FD0028F9D0364800F098FD09B040
:1002600000BD10B500BF0421324800F0B7FD0028E2
:10027000F9D0304800F090FD2F49088010BD08B536
:10028000FFF789FF00F044FFFFF7AAFF2BA000F063
:1002900096FF3220FFF778FF0121002000F069FF70
:1002A00040E0FFF7DEFF2448008801F0C3FB009028
:1002B00001F06AFB0446244A244B01F041F906464A
:1002C00001F000F9224908600846006801F05CFB73
:1002D000044622460B461FA1224800F081FF01215F
:1002E000002000F046FF1F4800F069FF1E49184833
:1002F000006802F08BFA05D91C491548006802F025
:100300005BFA06D80948808A0009000107498882FB
:1003100005E00648808A0F21084304498882144872
:10032000FFF732FFBDE7000000093D000004004870
:100330000008004800240140000000204E484945C4
:100340005420444F3A000000FCA9F1D24D623040E5
:100350000400002020202025332E326620444F2028
:10036000430000002C0000200000C8410000904124
:1003700040420F0010B504460920C006844209D14E
:100380000121480400F095FB00210120400400F009
:1003900090FB30E06E48844208D10121000200F059
:1003A00088FB0021200200F084FB24E0694884429D
:1003B00008D10121000200F07CFB0021200200F0A6
:1003C00078FB18E06448844209D10121080500F057
:1003D00070FB00210120000500F06BFB0BE05F4883
:1003E000844208D10121880500F063FB002101202F
:1003F000800500F05EFB10BDF0B50A460021002329
:10040000002400BF3DE001258D402B4615681D40AE
:100410002C469C4234D11579012D02D01579022D3C
:1004200016D185684F000326BE40B54385605579D7
:100430004E00B540866835438560858801268E402C
:10044000B5438580858896798E40B6B235438580E0
:1004500005684F000326BE40B543056015794E0080
:10046000B540066835430560C5684F000326BE40A9
:10047000B543C560D5794E00B540C6683543C56003
:10048000491C1029BFD3F0BD35490160002101711D
:100490000121417100218171C171704708B50122AC
:1004A00012040092009A0A430092009AC261C1614C
:1004B000009AC261C2690092C269009208BD0246F8
:1004C0000020138A0B40002B01D0012000E0002007
:1004D00070470146088A704702460020938A0B4005
:1004E000002B01D0012000E0002070470146888ADF
:1004F00070478161704701857047002A01D0816192
:1005000000E00185704781827047F0B50023002428
:100510004D07EE0E1546B5402B46CD10AE000546F4
:100520002035AD594E07F70E0F26BE40B543CE100D
:10053000B60007462037BD51CD10AE003D46AD593F
:100540001D432C46CD10AD003E467451F0BD000059
:100550000004004800080048000C0048001400484F
:10056000FFFF0000FD48006801210843FB490860C7
:1005700008464068FA490840F8494860084600685B
:10058000F8490840F54908600846006801218904D7
:100590008843F2490860084640683F2109048843BF
:1005A000EE4948600846C06A00090001C862084672
:1005B000006BFF2154318843E84908630846406BCB
:1005C0004008400048630020886070470021E34AEB
:1005D000917011468870704710B5024600210023C3
:1005E00000205111002902D1DC4C23680BE00129C5
:1005F00002D1DA4C236A06E0022902D1D74C636AA1
:1006000001E0D64C636BD106C90E01248C401C401E
:10061000002C01D0012000E0002010BD38B50020E2
:1006200000900024002500BF1120FFF7D5FF0546EC
:100630000098401C0090052109030098884201D0D1
:10064000002DF1D01120FFF7C7FF002801D00124B1
:1006500000E00024204638BD01460020BF4A106853
:10066000F82302469A431046CA001043BB4A106062
:100670007047002806D0B949096801221143B74ADA
:10068000116005E0B549096849084900B34A11609D
:10069000704701460020B14A506BF82302469A4346
:1006A0001046CA001043AD4A50637047002806D078
:1006B000AA49496B01221143A84A516305E0A749A1
:1006C000496B49084900A54A51637047002806D084
:1006D000A249496B04229143A04A516305E09F4916
:1006E000496B042211439D4A516370479B49096A33
:1006F00049084900994A11621146096A0422914346
:10070000964A11621146096A014311627047934982
:10071000096A18229143914A11621146096A0143FC
:1007200011627047002806D08C49496A01221143A2
:100730008A4A516205E08949496A49084900874A5D
:1007400051627047854A52683D231B049A43834B8C
:100750005A601A46526803460B431A437F4B5A604D
:100760007047002807D07D4909680122120611430D
:100770007A4A116006E0794909680122120691431C
:10078000764A1160704701460020744AD06A000919
:10079000000102460A431046704AD06270470028A2
:1007A00007D06E4909680122D20411436B4A1160D7
:1007B00006E06A4909680122D2049143674A116040
:1007C00070476649C871704701460020634A506807
:1007D0008008800002460A431046604A5060704715
:1007E0005E4840680C2108407047014600205B4A83
:1007F0005068F02302469A43104602460A431046C8
:10080000564A5060704701460020544A50680723FA
:100810001B0202469A43104602460A4310464F4ABC
:10082000506070474D4949680122920391434B4AF9
:1008300051601146496882B21143484A51601146DD
:10084000096B92159143454A11631146096B020CDD
:100850001143424A116370474049096B402291435A
:100860003E4A11631146096B0143116370473B49CE
:10087000096B10229143394A11631146096B0143F8
:10088000116370473549096B89088900334A116340
:100890001146096B014311637047FEB504460025FC
:1008A000002600200190009000272C4840680C2171
:1008B00008400546002D04D0042D05D0082D28D170
:1008C00005E02948206027E02748206024E02348ED
:1008D00040680F21890408400646204840680121ED
:1008E000090408400190B00C861C0198002803D12F
:1008F0001E48704320600BE01848C06A0007000FD4
:10090000401C00901848009900F02CFD70432060B6
:1009100002E01548206000BF00BF10484068F02189
:10092000084005462D091248475D2068F840606080
:100930000A48406807210902084005462D0A0C486C
:10094000475D6068F840A0600448006BFF210131FA
:100950000840884210D00748E0601BE000100240C9
:100960000CB8FFF8FFFFF6FE00127A0000093D0008
:1009700008000020809FD500754840680121890348
:100980000840884203D0A0684008E06002E0A06808
:100990008008E0606E48006B40210840402802D08B
:1009A0006C48206102E00120C00320616848006BB0
:1009B00010210840102802D06748606101E02068DB
:1009C00060616348006B8007800F002802D1A06837
:1009D000A06119E05E48006B8007800F012802D1FA
:1009E0002068A06110E05A48006B8007800F022841
:1009F00002D18003A06107E05548006B8007800F9B
:100A0000032801D15448A061FEBD5149096A014340
:100A10004F4A11627047002807D04D49096A0122E8
:100A2000D20311434A4A116206E04949096A012288
:100A3000D2039143464A11627047002807D04449C7
:100A4000096A012212041143414A116206E0404939
:100A5000096A0122120491433D4A1162704700293C
:100A600005D03B4A52690243394B5A6104E0384A87
:100A700052698243364B5A617047002905D0344A87
:100A800092690243324B9A6104E0314A926982438F
:100A90002F4B9A617047002905D02D4AD269024335
:100AA0002B4BDA6104E02A4AD2698243284BDA618F
:100AB0007047002905D0264A926A0243244B9A6265
:100AC00004E0234A926A8243214B9A6270470029CC
:100AD00005D01F4AD26802431D4BDA6004E01C4A6D
:100AE000D26882431A4BDA607047002905D0184A51
:100AF00012690243164B1A6104E0154A12698243D7
:100B0000134B1A617047002905D0114A527A0243EB
:100B10000F4B5A7204E00E4A527A82430C4B5A72BF
:100B200070470B48406A012109060843084948629A
:100B3000704701460020064A92680A40002A01D008
:100B4000012000E0002070470149887270470000D2
:100B5000001002401280000000127A0010B5044616
:100B6000B548844207D101214015FFF7B0FF0021AD
:100B70006015FFF7ACFF10BD10B50022C268AF4B87
:100B80001A400C7964030B6823438C682343CC68B8
:100B900023430C6923434C6923431A43C26010BDAD
:100BA0000021016001718160C16001614161704794
:100BB000002904D0826801231A43826003E082681E
:100BC00002231A4382607047002A03D003690B4353
:100BD000036102E003698B4303617047002905D07C
:100BE000C2680123DB031A43C26004E0C268012328
:100BF000DB039A43C2607047002905D0C268012315
:100C00009B031A43C26004E0C26801239B039A431A
:100C1000C2607047002905D0C2680123DB051A4372
:100C2000C26004E0C2680123DB059A43C2607047DA
:100C30000B0413430362704710B50A460021C168D4
:100C40001F24A4060B46A34319460B46134319461B
:100C5000C16010BD002905D0C26801239B051A435D
:100C6000C26004E0C26801239B059A43C2607047DA
:100C7000002807D0724989680122D2051143704AC1
:100C8000916006E06E4989680122D20591436C4A61
:100C900091607047002807D0694989680122920550
:100CA0001143674A916006E065498968012292050F
:100CB0009143634A91607047002807D06049896872
:100CC0000122120611435E4A916006E05C49896880
:100CD0000122120691435A4A9160704710B50B46A3
:100CE0000021846A1C43846200BF0C4614432146E1
:100CF000416110BD002905D0C26801235B031A437E
:100D0000C26004E0C26801235B039A43C26070477B
:100D1000002905D0C26801231B041A43C26004E005
:100D2000C26801231B049A43C2607047002905D0A2
:100D3000C26801231B031A43C26004E0C268012396
:100D40001B039A43C260704730B501460020002261
:100D500000238C680125ED072C438C6000BF8C6854
:100D6000E30FDB07521C0F242403A24201D0002B07
:100D7000F5D18C68E40FE407002C01D1086C00E089
:100D8000002030BD81681022114381607047816866
:100D900004221143816070470146086C80B270479D
:100DA000002904D0C26801231A43C26003E0C2686C
:100DB00052085200C2607047C26802239A43C26060
:100DC000C2680A43C2607047002A03D043680B43DD
:100DD000436002E043688B434360704730B502468E
:100DE00000200023012424060C40002C05D0946828
:100DF00001252D06AC43234600E013681C460C4039
:100E0000002C01D0012000E0002030BD01607047BF
:100E100010B502460020002354680C402346146895
:100E20000C40002C03D0002B01D0012000E000205A
:100E300010BD0160704700000024014003D2FFFF95
:100E4000002701400748804707480047FEE7FEE7C4
:100E5000FEE7FEE7FEE7FEE704480549054A064BC4
:100E6000704700004B0F0008C100000898000020E8
:100E70009806002098020020980200200CB500205F
:100E800001900090734800680121090408437149EA
:100E9000086000BF6F4800680121490408400090C5
:100EA0000198401C01900098002804D105210903F5
:100EB00001988842EED16748006801214904084042
:100EC000002802D00120009001E00020009000984E
:100ED000012839D11120604908605E4840685D49A9
:100EE0004860084640684860084640683F21090459
:100EF000884358494860084640681121090408435E
:100F000054494860084600680121090608435149D0
:100F1000086000BF4F4800680121490608400028CA
:100F2000F8D04C484068800880004A49486008462C
:100F30004068022108434749486000BF454840686F
:100F40000C2108400828F9D10CBD10B541480068B3
:100F5000012108433F490860084640683F4908406E
:100F60003C494860084600683D49084039490860E6
:100F7000084600680121890488433649086008460C
:100F800040683F2109048843324948600846C06AE6
:100F900000090001C8620846006BFF2154318843F4
:100FA0002C4908630846406B400840004863002015
:100FB0008860FFF763FF10BDF8B500250024002608
:100FC0000027244840680C2108400546002D04D025
:100FD000042D06D0082D2AD107E0224822490860B6
:100FE00029E020482049086025E01A4840680F2180
:100FF0008904084004461748406801210904084054
:101000000646A00C841C002E04D1184860431649E3
:1010100008600BE00F48C06A0007000F471C394604
:10102000104800F09FF960430F49086003E00D4845
:101030000D49086000BF00BF06484068F021084025
:1010400000090B490D5C08480068E8400649086043
:10105000F8BD000000100240002002400CB8FFF86C
:10106000FFFFF6FE00127A001800002000093D0084
:101070001C000020704700BFFEE7704770477047B4
:10108000014604E0002000E0401CC828FCD30A46CA
:10109000491E002AF6D1704710B5044603E07D20B2
:1010A000C000FFF7EDFF2046641E0028F7D110BDF9
:1010B00010B5012109034748FFF71BFA0320FFF78A
:1010C000DFFF012109034348FFF715FA3220FFF73C
:1010D000D7FF10BD4049898A404A1140020111439F
:1010E0003D4A9182704710B504462011FFF7F2FF88
:1010F000FFF7DEFF2046FFF7EDFFFFF7D9FF10BD3A
:1011000010B50120FFF7EFFF0520FFF7C5FF10BD69
:1011100010B50020FFF7DEFF1420FFF7BDFF01210F
:1011200089022C48FFF7E7F90121C9022948FFF796
:10113000E2F90320FFF7CEFFFFF7BAFF0520FFF724
:10114000ABFFFFF7B5FF6420FFF79AFFFFF7B0FF93
:101150000220FFF7BFFFFFF7ABFF2820FFF7C3FF19
:101160000C20FFF7C0FF0620FFF7BDFFFFF7C8FF09
:1011700010BD70B504460E46002E03D120468030C7
:10118000C5B202E02046C030C5B20120FFF784FF9F
:101190002846FFF7A8FF0520FFF77EFF70BD10B5BA
:1011A0000446012189020B48FFF7A3F92046FFF707
:1011B0009AFF012189020748FFF79DF910BD10B57C
:1011C000044603E02078FFF7EAFF641C207800283B
:1011D000F8D110BD00080048000400480FFF0000CF
:1011E0000FB41CB5074B06AA7B44694600900598CE
:1011F00000F033FE0020694600F042FE1CBC08BC33
:1012000004B01847950C000070B504468569006865
:10121000C10601D5302600E02026C00707D070BDEA
:1012200062683046A1689047206A401C20626D1EAB
:10123000F6D570BD70B5044685690078C00707D142
:1012400070BD6268A16820209047206A401C20621F
:101250006D1EF6D570BDF3B50446002081B0206246
:101260002046E168884700287AD0252802D06268A5
:10127000A16871E0E1682046002588470646002005
:10128000E0610746A0612A2E0AD0304601F076FAC6
:10129000002827D0B8000019303E0090866119E080
:1012A0000298BA00121902C8916102902046E168C2
:1012B0008847012F064617D1E06900281FDA202051
:1012C00085431CE000980A218069484300998019F1
:1012D000303888612046E1688847064601F04EFABA
:1012E0000028EFD1012F0AD02E2E08D12046E16828
:1012F00088470646202005437F1C022FC3DBA069D8
:10130000002803DA4042A06101200543E80701D02C
:1013100010208543002E23D030464138192803D8A9
:101320000120C00205432036204625603146029A3E
:101330001546FEF703FF00280BD0012806D0ED1D4F
:10134000E808C000083002908AE709E02D1D0295E8
:1013500086E762683046A1689047206A401C7EE7B5
:10136000206AFEBD002203098B422CD3030A8B4264
:1013700011D300239C464EE003460B433CD400228D
:1013800043088B4231D303098B421CD3030A8B429F
:1013900001D394463FE0C3098B4201D3CB01C01A6D
:1013A000524183098B4201D38B01C01A5241430938
:1013B0008B4201D34B01C01A524103098B4201D326
:1013C0000B01C01A5241C3088B4201D3CB00C01A93
:1013D000524183088B4201D38B00C01A524143080B
:1013E0008B4201D34B00C01A5241411A00D2014630
:1013F0005241104670475DE0CA0F00D049420310C9
:1014000000D34042534000229C4603098B422DD317
:10141000030A8B4212D3FC22890112BA030A8B42BF
:101420000CD3890192118B4208D3890192118B420E
:1014300004D389013AD0921100E08909C3098B4293
:1014400001D3CB01C01A524183098B4201D38B01D6
:10145000C01A524143098B4201D34B01C01A524179
:1014600003098B4201D30B01C01A5241C3088B42BE
:1014700001D3CB00C01A524183088B4201D38B00A9
:10148000C01A5241D9D243088B4201D34B00C01A33
:101490005241411A00D20146634652415B10104648
:1014A00001D34042002B00D54942704763465B1090
:1014B00000D3404201B50020C046C04602BD70477F
:1014C000704770470246C80FC00781434B0030B5D4
:1014D0004B405B009B0D20D01923DB06C91801236C
:1014E0001B05994220DB0324A40704251346AB40C7
:1014F0000BD3002B04D1EB0613409B00E34204D432
:1015000001246407002312195941FF231B05994246
:101510000BD2C9000143500F09E0CB0204D50143AF
:101520000803024305D0054830BDFF21C905084323
:1015300030BD084607210905884330BD0000C07F43
:10154000F0B51FB4F84F0E091D09BC463E403D40A2
:101550000C46B7435C408CB0002F7DD06746AF434C
:10156000FBD0002D79D0002EFCD0E20F3243521B6D
:10157000FF24A40412190892420DCD02C7020E984E
:101580001543420DD9021143C202600305430143D2
:10159000080C0195150CAC4605040B46AB430A95A7
:1015A00065462D04AA430995E04D040A7D4464195B
:1015B000803C257806466E4301247619E405A61B77
:1015C0007543ED0C490BAD1C69434919A401611A1F
:1015D0000E0CB6463604B143694376466E43090C99
:1015E000711889090591F90700D0A10004910199AA
:1015F0007F08CC0727434C08059DE10B4D432D0C7C
:1016000029466646754302950D4645432E46029D82
:101610007D1BB44100950D465D4301942C0C2F04B5
:101620000D465543AE462D0C3D4302950394754639
:10163000049C2D04641B049406D2029C039D641C2C
:10164000002675410395029401AC70CC009F7D1B70
:10165000B4410904009501E03AE15EE1079101948B
:101660000599A4086143090C0C464443650BE70443
:1016700064464C43A646640B3C430395029474466F
:10168000049DE4042C1B049406D2029C039D641C5C
:10169000002675410395029401AC70CC009F7D1B20
:1016A000B44101940C465C430095650FE7000C467D
:1016B0005443A646640F3C43039502947446049D2C
:1016C000E4002C1B049406D2029C039D641C00269B
:1016D00075410395029401AC70CC009F7D1BB44111
:1016E000AE09AF06049DC900AD092F43049DA406B1
:1016F000AD060495079D344369180791059DE10BDC
:101700004D432D0C29466646754302950D464543CB
:101710002E46029D7D1BB44100950D465D4301940C
:101720002C0C2F040D465543AE462D0C3D4302951F
:1017300003947546049C2D04641B049406D2029CF9
:10174000039D641C002675410395029401AC70CC86
:10175000009F7D1BB44101948C050694079C890A67
:10176000611800950791019C0599A4086143090C33
:101770000D464543680BEF040D46644665436C0B0C
:101780003C43049FED047D1BAC4602D20025641C43
:101790006841009E019D371B8541084658430195CD
:1017A0000C46460FC5005443600F28436546E400CD
:1017B0002C1B02D20025401C6E41019D3F1AB541F1
:1017C0002846BD09800628438446A009BF064E026C
:1017D0000699A40676180743079D002068410A99D8
:1017E000079019430020099B00906046FF1913439E
:1017F0004041E20F64003A43A4460446D71A8C41A4
:10180000A04203D90120009020463A46C70F941801
:1018100040416246D20F2243644664000494009C17
:10182000BE466400D71AA446044602978C41774608
:10183000002F01D1A04204D96046401C8446029A80
:101840002046C40FA64694184041049A0546D20F7C
:10185000224364466400D31A8D417146002901D1A8
:10186000A84202D928461A46641C104301220028C7
:1018700000D0164361020020079B044689195C4191
:101880000223002C02DB491813466441089DCE0A4E
:101890002D145D194B056705E10A2C050D190899F2
:1018A0003E43C9076940002B08D0934006D300226D
:1018B000761C5141002B01D1760876001C4A002D80
:1018C00043DB154241D0AA433FD0304611B0F0BDB2
:1018D0000E4607184E41174D7A42B5411AD30E9A5B
:1018E0001D4696185D41134A7642AA4112D3012241
:1018F00052054D00D5420AD15C00D4420AD04B407B
:1019000002D592021143E1E749004908DEE7E10F01
:10191000C90718E000200849D8E7054801420DD161
:101920000342F7D0F3E700000000FF07C4120000F5
:101930000000F07F0000E0FF0000F87F1148214622
:101940000143C01241400020C0E70123089A9B06D2
:101950009A4205DC032252078918C90FC907B5E767
:10196000052252078918074A1143D2125140ADE7A8
:101970005940504010B54B40424059405040FFF74D
:10198000DFFD10BDFFFFFF7F0121C90501234118C5
:1019900042001B06D3185B0E0AD0C1100722D206E4
:1019A000891840075242D14201D552008918704728
:1019B000090208D50146002A03D0C10FC90700203B
:1019C000704710467047420202D00020024970471B
:1019D000072109050143F4E70000F87F1F22030CEB
:1019E00002D10F2200041CD0030E01D10002083ADC
:1019F000030F01D10001121F830F01D18000921E3D
:101A0000002801DB4000521ED20551180212511865
:101A10001922904004D3491C002801D149084900EB
:101A200008467047C10FC90700D040420122920703
:101A30001143D3E701218907D0E700007047FFB5C4
:101A40000C461E468FB003CA089009914F007D0DC9
:101A500000D16D1E002108460020C0460321099ACE
:101A600089050840002A03DA8200801840080840EF
:101A7000800D01280A9002DD0020C0430A900898DA
:101A800007430DD0EF48F049281848430714189829
:101A900000281DD07542291E1DDD0A9842421BE018
:101AA0001898012802D00020302104E00020F243E1
:101AB00005E02154401CB042FBDB30460022189B5D
:101AC000002121540F998B600A60486013B0F0BD6B
:101AD000BD1B6D1CDFE70A9A002900DA69420BA8DA
:101AE00000F08CFA0BAB07CB03AB07C3089909983E
:101AF00000F0E8FA6B4607C30146D4480918002DE8
:101B000000910ADDD14903980A9A4942401803A975
:101B10000390684600F0FBFC07E003990A9A081856
:101B200003A90390684600F0C8FC6B4607C3000495
:101B3000000C03D00020C043410800E01046189A72
:101B4000002A03D00022009215461EE0751E05D41F
:101B500000F0D2F9303262556D1EF9D501220843EA
:101B6000079602D000227F1C04E02078302801D1A3
:101B700000227F1E002A069789D01EE0112D07DA69
:101B800000F0BAF9303262556D1C02460A43F5D1B5
:101B9000084303D00098002819D00EE00021681EE9
:101BA00005E0235C625C63542254401E491C814260
:101BB000F7DBA81B401E07950690079A189900208E
:101BC000A0540F98079B069A81600CC07EE71126EF
:101BD000002018905BE7D21DF0B50D460446D108F1
:101BE00093B0C90003C90C900D9100F0B1FD0246FD
:101BF0000D98C00F01D02D2007E02068810701D586
:101C00002B2002E04007C00F4001032A0F9001D0B3
:101C1000072A05DB03462946204600F0ABF90EE112
:101C20002078800601D5E76900E006272846652D63
:101C300004D0662814D0672D69D12DE00020112F23
:101C4000009001DB112300E07B1C0CAA03A910A863
:101C5000FFF7F5FE1199002610987D1C0E9142E0C9
:101C600001203B460CAAC0070B900120009003A95D
:101C700010A8FFF7E4FE119D129810990026002885
:101C80000E9501D1781C0D18781B02D446427D1C9C
:101C9000761EE81B00903AE0012F00DA01270020B1
:101CA000112F009001DD112300E03B460CAA03A98F
:101CB00010A8FFF7C4FE11993D46109800260E911A
:101CC000217809070BD40E99A94200DA0D4603A921
:101CD000012D04DD4A19203AD27F302A06D0B842BD
:101CE00001DA011D04DA012100910FE06D1EEFE71A
:101CF000002802DC86192D1A03E0411CA94200DDF0
:101D00000D46801B401C00900120C0070B902078DE
:101D1000000705D40098A84202DB0020C0430090D1
:101D200069460020C8720B98012102AF0337C9072A
:101D3000884225D0022010902B2011900B9800286B
:101D40000BDA40420B902D20119006E00B9800F02A
:101D50000DFC30317F1E0B9039701099481E002900
:101D60001090F3DC0B980028F0D111987F1E38708A
:101D70002088000501D5452000E065207F1E3870D1
:101D800001A8C01BC01D0B900F98002800D0012097
:101D900041190098C01709180B980818A169081A6A
:101DA000401EA0612078C00602D42046FFF72CFA1E
:101DB0000F98002805D06268A1689047206A401CEF
:101DC00020622078C00625D52046FFF71DFA21E0C5
:101DD000002E07DB0E98B04204DD03A86268805D28
:101DE000A16802E06268A16830209047206A761CF2
:101DF000401C20620098401E002800900AD100F08C
:101E000077F8C06862680168405CA1689047206A02
:101E1000401C206228466D1E0028D9DC07E062685D
:101E20003878A1687F1C9047206A401C20620B997B
:101E3000481E00290B90F2DC2046FFF7FBF9022038
:101E400044E6000001FCFFFF104D0000E1DFFFFF52
:101E500001694A1C02610878704700B58FB0029191
:101E6000002105910549019379440391114604909D
:101E70006846FFF7F0F90FB000BD0000E5FFFFFF77
:101E80000A681070521C0A607047000010B5FF23EA
:101E90001B0644009C421DD84C009C421AD80346A5
:101EA000124A0B4307D4401A02D3EFF3008010BD4F
:101EB000EFF3008010BD081A06D2EFF30080012175
:101EC0009043C907084302E0EFF30080904380F39A
:101ED000008810BD0D231B041A4204D011460020B7
:101EE00000F058FB10BD00F06DFB10BD000000902D
:101EF00000487047580000200B4670B5024689071D
:101F00008008084319469D08141AA94125090807A5
:101F1000054308092C194841250A01060D43010A09
:101F20002C194141200C0D0428430D0C00194D4182
:101F3000002140194D41C00869070843E908840F92
:101F40008D002543840024184D4124196D41121B36
:101F5000AB4107E00925ED432C11521963410024E0
:101F6000401C61411C460A250026551BB441F1D294
:101F700070BD0000F8B51F46044601230068DB026F
:101F8000032601461840072A05DB002801D017A5C3
:101F900006E017A504E0002801D016A500E016A56C
:101FA000102081432160A069C01E002FA06101D0D4
:101FB000401EA0612046FFF727F9002F09D03846C0
:101FC0006268A1689047206A401C2062C01C2062A1
:101FD00006E0206AFAE762682878A1686D1C9047DD
:101FE000761EF8D22046FFF725F9F8BD4E414E0087
:101FF0006E616E00494E4600696E6600F7B5164682
:102000008AB02F4878446C4603467C33C06F5A68C8
:102010009B680DC42A487844763003AC0DC80DC4C3
:102020003720C001081837211B30FFF7A5F90546F6
:102030000C46803D1B3C02D56442012000E000209C
:10204000002709900FE0E0070BD00C201C497843D3
:10205000794432464C394118684600F02EFA6B46F6
:1020600007C364107F1C002CEDD1154F7F442C3F1B
:1020700015E0E80711D02001C0190EC80691089399
:1020800007920068F04201D198190890324606A9DB
:1020900003A800F012FA03AB07C36D10641C002DF7
:1020A000E7D1324669460998002803A802D000F01B
:1020B0002EFA01E000F001FA0A9B07C30DB0F0BD53
:1020C000EC080000034640000A4610B5400D0BD056
:1020D0000121C9070F24A40200191C03640821432D
:1020E000540D2143D20207E000210120F2E7D40F72
:1020F000490021435200401E0029F8DADB0FDB07BC
:10210000184310BDFFB50D46144685B048685168A8
:1021100000F005FB00910190A868A16800F0FFFAAB
:1021200002910390A868616800F0F9FA029A121807
:102130008242029201D2012000E00020019A0B1895
:10214000D2180028019202D08A4202D903E08A42C2
:1021500001D2012000E00020009908180090686872
:10216000A16800F0DCFA029A12188242029201D2AF
:10217000012000E00020019A0B18D21800280192DB
:1021800002D08A4202D903E08A4201D2012000E053
:102190000020009908180090286821684000490034
:1021A000400849084018EE49471814E001994000DA
:1021B000C90F08430090019802994000C90F0843D5
:1021C0000190029803994000C90F084302900398B8
:1021D00040007F1E039000980028E7DA0898002846
:1021E00001D0E04E00E00026B74228DAF71BF806DF
:1021F000C00E15D0029B2021091A039A8B401A4366
:102200000392029A019BC2408B401A430292019AA8
:10221000009BC2408B4000991A430192C14000913B
:102220007A110BD06B460320811A01D5002101E001
:10223000890059588700401ED951F5D53746039873
:102240000299002800D0012001430898029100283B
:1022500008460CD0002800D001200199019A4905B8
:1022600008430121D20AC902D202019200E00121F1
:102270000E9B0122D207012B02D0002B03D013E0CA
:10228000002807D116E0904204D890420CD1019B5F
:102290000B4209D0019B5918019105D10099491CA5
:1022A000009101D17F1C0092002803D01021084624
:1022B0000020C04628682168019B009A4840C10F51
:1022C0000598C90739430EC009B0F0BDFFB587B006
:1022D000099A0898089953689268406889689646F0
:1022E0000022039317469446089A12685300099AED
:1022F0005B081268520052089A1A9B4BD4180A9A2B
:10230000002A01D0352200E040220692002201235B
:1023100015460492DB07059324E0002D05D1754690
:102320000346039E4D1BB34109D375466646039B86
:10233000491B049D9841059B7519AC465F41634656
:102340003B4308D0059B049EDD0776082E435B08BF
:102350000496059301E0521E641EC50FED0749184F
:102360004041521C069B9A42D7DB002D04D1754692
:10237000039A6B1A824101D203200CE0039A0B46A8
:102380006B404240134303D0014303D0012002E0DD
:10239000022000E000206146019100210097029197
:1023A0000A99002905D06146400201436D4B019115
:1023B00002E08007002302909C423ADA1A1BD00602
:1023C000C00E15D0029D2021019C091AC5408C40E9
:1023D0002543029C8C4000D001242543019C02959A
:1023E0003D46C4408D4039462C43C1400194009184
:1023F00054111DD06D460221002202290CD1032068
:10240000001B07E0002804DB8600AE59002E00D038
:102410000122401C0328F5DB081B02D588002A5046
:1024200004E08000285810438A00A850491EE3D5D4
:102430001C460A98002802980CD0002800D00120E1
:102440000199019A490508430121D20AC902D20221
:10245000019200E00121109B0122D207012B02D042
:10246000002B03D013E0002807D116E0904204D8D7
:1024700090420CD1019B0B4209D0019B591801914C
:1024800005D10099491C009101D1641C00920028DB
:1024900003D0102108460020C04608980999019AE7
:1024A0000068096848400099C30F0798DB07234379
:1024B0000360826041600BB0F0BD1FB50023009245
:1024C0000A46014601A8FFF71DFE01AB07CB04B089
:1024D00010BD1FB5012300920A46014601A8FFF76F
:1024E00011FE01AB0F2407CBA402C30F4000DB0792
:1024F0004008001B002900DB0020490000054908B6
:10250000CC0A204349051843D20A1143DFE71FB51F
:10251000002300920A46014601A8FFF7D7FE01AB4F
:1025200007CBD4E71FB5012300920A46014601A854
:10253000FFF7CCFE01AB0F2407CBA402C30F400072
:10254000DB074008001B002900DB002049000005D4
:102550004908CC0A204349051843D20A1143B6E77B
:1025600002C0FFFF013C0000FF3F00000146800861
:10257000081A02091018020A1018020C1018C008D4
:10258000820012185200891A01E0401C0A390A29F7
:10259000FBD27047CA0211D54A03520F002A04D059
:1025A000C803C043012188407047054AEFF300810A
:1025B00008010009104380F300887047002070472D
:1025C0000000003010B5024800F072F810BD0000A5
:1025D0000000C07F00487047380000207546FFF7B4
:1025E000F9FFAE46050069465346C008C00085465F
:1025F00018B020B5FEF730FC60BC00274908B6468D
:102600000026C0C5C0C5C0C5C0C5C0C5C0C5C0C501
:10261000C0C5403D49008D4670470446C046C0468F
:102620002046FDF7AAFD0000024670B50A43920756
:102630002AD11E4DEE0104C808C9541B94433440EE
:1026400017D0D0B2D9B2401A2106014310D190B2AE
:1026500099B2401A210401430AD110021902000A5A
:10266000090A401A2102014302D1100E190E401A24
:1026700070BD9A42DFD010BA19BA884201D9012040
:1026800070BD0020C04370BD02780B78401C491C0F
:10269000002A09D09A4207D102780B78401C491CC5
:1026A000002A01D09A42EFD0D01A70BD0101010179
:1026B00010B50C461107090F092904D00A290AD0C0
:1026C00008290CD104E011460820FFF763FF06E05B
:1026D000510606D501E0510601D50120C00721466B
:1026E00010BDD10607D501010909CC084907000E24
:1026F0000006044309E0410F20024907000A014394
:10270000200E00061D22D14101430846E7E70000E4
:1027100001491820ABBEFEE7260002007047F8B55D
:10272000040C8BB2264682B25E43104658430D0C11
:10273000370C360400218019164679416E43370C58
:1027400036048019264679416E438919F8BD000088
:102750004900CA020243100000D004204A0D01D0F3
:1027600001221043044A490D914201D1022108433C
:10277000012800D105207047FF07000030380A28E3
:1027800001D20120704700207047000010B50029D9
:102790000AD00878002807D005487844FFF744FF9E
:1027A000002801D0002010BD0248784410BD000070
:1027B0000E0200000602000001230200DB050A43AE
:1027C0000DD4DA4203D49A4207D488427047D842E3
:1027D00014D4D94212D48842704780427047DA42FA
:1027E00003D59A42F9D5814270475B004200DA4234
:1027F00004D24A00DA4201D28142704710B5024A3F
:10280000FFF744FB10BD00BF0900160401230A00B6
:10281000DB0502430DD4DA4203D49A4207D4814245
:102820007047D94214D4D84212D4814270478942A9
:102830007047DA4203D59A42F9D5884270475B0067
:102840004A00DA4204D24200DA4201D2884270479A
:102850004840414010B5024A4840FFF717FB10BD01
:102860000900160403B402487844844603BC604758
:102870006BF3FFFF80807F7E7D7C7B7A7978777633
:1028800076757473727171706F6E6E6D6C6C6B6A4D
:102890006A696868676666656464636362616160EB
:1028A000605F5F5E5E5D5D5C5C5B5B5A5A59595868
:1028B00058575756565555555454535352525251D2
:1028C000515050504F4F4F4E4E4D4D4D4C4C4C4B28
:1028D0004B4B4A4A4A49494948484847474747466F
:1028E00046464545454444444443434343424242AB
:1028F0004241414102400000000000A000000000F1
:1029000005400000000000C8000000000C4000006E
:102910000000409C00000000194000000020BCBEE8
:102920000000000034400000BFC91B8E00000004FE
:10293000B5400000504BCFD06607E2CF0100000049
:102940006C4100003E8251AADFEEA7340100000076
:10295000D9420000DCB5A0E23A301F97FFFFFFFF2D
:10296000B4450000FD25A0C8E9A3C14FFFFFFFFF4C
:10297000FF3F00000000008000000000FF3F00005B
:102980000000008000000000C429000800000020B2
:102990002C00000004010008F02900082C00002091
:1029A0006C060000200100081C000000430000002D
:1029B000F8FFFFFF0C0000000E0000000F000000F9
:1029C0002E000000000000000000000000000000D9
:1029D000010203040102030406070809006CDC027B
:1029E00000000000000000000102030406070809BF
:04000005080000C12E
:00000001FF
