:020000040800F2
:100000002808002089010008F5010008F501000812
:10001000F5010008F5010008F501000800000000E6
:10002000000000000000000000000000F5010008D2
:10003000F501000800000000F5010008F5010008C6
:10004000F5010008F5010008F5010008F5010008B8
:10005000F5010008F5010008F5010008F5010008A8
:10006000F5010008F5010008F5010008F501000898
:10007000F5010008F5010008F5010008F501000888
:10008000F5010008F5010008F5010008F501000878
:10009000F5010008F5010008F5010008F501000868
:1000A000F5010008F5010008F5010008F501000858
:1000B000F5010008F5010008F5010008F501000848
:1000C000F5010008F5010008F5010008F501000838
:1000D00029080008F5010008F5010008F5010008ED
:1000E000F5010008F5010008F5010008F501000818
:1000F000F5010008F5010008F5010008F501000808
:10010000F5010008F5010008F5010008F5010008F7
:10011000F5010008F5010008F5010008F5010008E7
:10012000F5010008F5010008F5010008F5010008D7
:10013000F5010008F5010008F5010008F5010008C7
:10014000F5010008F5010008F5010008F5010008B7
:10015000F5010008F5010008F5010008F5010008A7
:10016000F5010008F5010008F5010008F501000897
:10017000F5010008F5010008F5010008F501000887
:10018000F5010008F501000880B582B000AF41F22A
:100190006013C0F600037B6040F20003C2F200036C
:1001A0003B600BE07B681A683B681A603B6803F1B0
:1001B00004033B607B6803F104037B603A6840F210
:1001C0000003C2F200039A42ECD3084808494FF0FA
:1001D00000028842B8BF40F8042BFFF6FAAF00F0E7
:1001E000C9FA07F10807BD4680BD000000000020E5
:1001F0002400002080B400AFFEE700BF80B483B0CD
:1002000000AF786000BF7B68002B0CBF002201228A
:10021000D2B203F1FF337B60002AF4D107F10C075F
:10022000BD4680BC704700BF80B500AF00F0D8FC71
:100230004FF008004FF0010100F054FB40F20403BE
:10024000C2F200034FF470421A6040F20403C2F29B
:1002500000034FF001021A7140F20403C2F20003DE
:100260004FF000029A7140F20403C2F200034FF013
:1002700003025A7140F20403C2F200034FF000027D
:10028000DA714FF44060C4F2020040F20401C2F29D
:10029000000100F07BFB80BD80B588B000AF4FF45B
:1002A00080404FF0010100F047FB4FF002004FF09B
:1002B000010100F017FB40F20403C2F200034FF407
:1002C00070421A6040F20403C2F200034FF00202CF
:1002D0001A7140F20403C2F200034FF002025A7195
:1002E0004FF48060C4F2020040F20401C2F2000147
:1002F00000F04CFB4FF48060C4F202004FF00C01A0
:100300004FF0050200F018FC4FF48060C4F20200C8
:100310004FF00D014FF0050200F00EFC4FF480602D
:10032000C4F202004FF00E014FF0050200F004FC91
:100330004FF48060C4F202004FF00F014FF005024D
:1003400000F0FAFB4FF48053BB614FF001033B77A1
:100350004FF00003BB774FF002037B774FF00103B0
:10036000FB7707F118034FF48060C4F202001946CE
:1003700000F00CFB4FF00003BB804FF48273FB8056
:100380004FF000033B814FF000037B814FF00003EF
:10039000BB814FF40073FB814FF008033B824FF0A9
:1003A00000037B824FF46050C4F200004FF0010163
:1003B00000F088FD07F104034FF46050C4F2000020
:1003C000194600F01BFD40F22003C2F200034FF07B
:1003D00024021A7040F22003C2F200034FF0000220
:1003E0005A7040F22003C2F200034FF001029A70EB
:1003F00040F22003C2F200034FF00102DA7040F233
:100400002000C2F2000000F025FE4FF46050C4F25C
:1004100000004FF060014FF0010200F08FFD4FF43B
:100420006050C4F200004FF0010100F02BFD07F115
:100430002007BD4680BD00BF80B483B000AF7860A8
:1004400000BF7B68002B0CBF00230123DBB27A685E
:1004500002F1FF327A60002BF3D107F10C07BD46A1
:1004600080BC704780B500AF4FF00003C4F20203B8
:100470004FF00002C4F20202526922F002025A61F5
:100480004FF00003C4F202034FF00002C4F2020274
:10049000526922F004025A614FF01E0000F00AF97E
:1004A0004FF030004FF0000100F06EF84FF0050003
:1004B00000F000F94FF030004FF0000100F064F858
:1004C0004FF0010000F0F6F84FF002004FF000018D
:1004D00000F01AF84FF028004FF0000100F014F877
:1004E0004FF00C004FF0000100F00EF84FF001004B
:1004F0004FF0000100F008F84FF006004FF0000147
:1005000000F002F880BD00BF80B582B000AF0246A7
:100510000B46FA71BB7100F02FF8BB79002B0CD1A0
:100520004FF00003C4F202034FF00002C4F20202D3
:10053000526922F004025A610BE04FF00003C4F24A
:1005400002034FF00002C4F20202526942F00402B8
:100550005A61FB794FEA1313DAB2BB791046194698
:1005600000F012F8FA79BB791046194600F00CF841
:1005700007F10807BD4680BD80B500AF4FF002000F
:1005800000F098F880BD00BF80B582B000AF024691
:100590000B46FA71BB714FF40063C4F202034FF4CF
:1005A0000062C4F20202526922F0F0025A614FF472
:1005B0000063C4F202034FF40062C4F20202516904
:1005C000FA794FEA02120A435A61BB79002B0CD127
:1005D0004FF00003C4F202034FF00002C4F2020223
:1005E000526922F004025A610BE04FF00003C4F29A
:1005F00002034FF00002C4F20202526942F0040208
:100600005A614FF00003C4F202034FF00002C4F23B
:100610000202526942F002025A614FF06400FFF791
:100620000BFF4FF00003C4F202034FF00002C4F2CC
:100630000202526922F002025A6107F10807BD4620
:1006400080BD00BF80B582B000AF78600AE07B68F3
:100650001B787A6802F101027A6018464FF00101B6
:10066000FFF752FF7B681B78002BF0D107F10807DA
:10067000BD4680BD80B582B000AF0346FB71FB79FB
:10068000002B12DB012B02DD022B07D00DE04FF017
:1006900080004FF00001FFF737FF06E04FF0C00089
:1006A0004FF00001FFF730FF00BF07F10807BD461C
:1006B00080BD00BF80B584B000AF78604FF000030C
:1006C000FB6007E04FF41670FFF7B6FEFB6803F11E
:1006D0000103FB60FA687B689A42F3D307F11007C5
:1006E000BD4680BD80B500AF4FF46053C4F2020335
:1006F0004FF001029A604FF001004FF0010100F04D
:10070000F1F84FF004004FF0010100F0EBF84FF466
:100710006053C4F202034FF46052C4F20202126842
:1007200042F480321A6000BF4FF46053C4F20203F7
:100730001B6803F40033002BF6D04FF40063C4F2BF
:1007400002034FF4AA421A604FF00003C4F20203FE
:100750004FF014021A604FF40063C4F202034FF426
:100760002A429A604FF00003C4F202034FF02802BD
:100770009A6080BD80B500AFFFF78EFDFFF754FD96
:10078000FFF7B0FFFFF76EFE4FF44063C4F20203C1
:100790004FF000025A614FF48060C4F202004FF43F
:1007A000805100F0A3F94FF46050C4F200004FF004
:1007B000410100F0B5FB4FF00100FFF75BFF41F294
:1007C0003810C0F60000FFF73DFF00BF4FF4605344
:1007D000C4F200031B899BB203F00203002BF5D087
:1007E0004FF44060C4F202004FF400514FF0010298
:1007F00000F08AF94FF44060C4F202004FF48041E7
:100800004FF0010200F080F94FF48060C4F2020062
:100810004FF4805100F05CF948F28040C0F21E00B5
:10082000FFF7ECFCB0E700BF80B500AF4FF46050BD
:10083000C4F200004FF0600100F0C8FB0346002B3B
:100840004FD04FF46050C4F2000000F05BFB034651
:10085000DAB240F20003C2F200031A7040F2000361
:10086000C2F200031B78422B33D14FF44060C4F234
:1008700002004FF480514FF0010200F045F94FF4AF
:100880004060C4F202004FF400414FF0010200F05A
:100890003BF94FF00200FFF7EDFE41F24C10C0F6BD
:1008A0000000FFF7CFFE48F28040C0F21E00FFF7C5
:1008B000A5FC4FF44060C4F202004FF4805100F0F8
:1008C00015F94FF44060C4F202004FF4004100F00B
:1008D0000DF94FF46050C4F200004FF0600100F0D9
:1008E00063FB80BD80B483B000AF78600B46FB70C3
:1008F000FB78002B0CD04FF46053C4F202034FF48A
:100900006052C4F20202116B7A680A431A630DE066
:100910004FF46053C4F202034FF46052C4F2020277
:10092000116B7A686FEA02020A401A6307F10C073A
:10093000BD4680BC704700BF80B483B000AF786014
:100940000B46FB70FB78002B0CD04FF46053C4F2C5
:1009500002034FF46052C4F20202116C7A680A4337
:100960001A640DE04FF46053C4F202034FF4605276
:10097000C4F20202116C7A686FEA02020A401A6439
:1009800007F10C07BD4680BC704700BF80B487B03C
:1009900000AF786039604FF000037B614FF00003D7
:1009A0003B614FF00003FB604FF000037B6186E08A
:1009B0007B694FF0010202FA03F33B613B681A685E
:1009C0003B691340FB60FA683B699A4273D17B68CC
:1009D0001A687B694FEA43034FF0030101FA03F3FE
:1009E0006FEA03031A407B681A607B681A683B68E9
:1009F0001B7919467B694FEA430301FA03F31A4353
:100A00007B681A603B681B79012B03D03B681B791C
:100A1000022B34D17B689A687B694FEA43034FF01D
:100A2000030101FA03F36FEA03031A407B689A603B
:100A30007B689A683B685B7919467B694FEA430398
:100A400001FA03F31A437B689A607B685A687B69F2
:100A50009BB24FF0010101FA03F36FEA03031A405E
:100A60007B685A607B685A683B689B7919467B694A
:100A70009BB201FA03F39BB21A437B685A607B680E
:100A8000DA687B699BB24FEA43034FF0030101FA36
:100A900003F36FEA03031A407B68DA607B68DA6865
:100AA0003B68DB7919467B694FEA430301FA03F39C
:100AB0001A437B68DA607B6903F101037B617B6920
:100AC0000F2B7FF675AF07F11C07BD4680BC704742
:100AD00080B483B000AF78600B467B807B687A88F7
:100AE0001A8307F10C07BD4680BC704780B483B001
:100AF00000AF78600B467B807B687A885A8307F169
:100B00000C07BD4680BC704780B483B000AF7860EE
:100B100013460A467A807B707B78002B03D07B6873
:100B20007A881A8302E07B687A885A8307F10C0777
:100B3000BD4680BC704700BF80B485B000AF786010
:100B400013460A467A807B704FF00003FB604FF03B
:100B50000003BB607A787B8803F007034FEA8303C6
:100B600002FA03F3FB607B884FEAD3039BB21A4679
:100B70007B884FEAD3039BB219467B6801F10801D9
:100B800053F821107B8803F007034FEA83034FF0EB
:100B90000F0000FA03F36FEA030319407B6802F1C8
:100BA000080243F822107B884FEAD3039BB21A460F
:100BB0007B6802F1080253F82220FB681343BB60F4
:100BC0007B884FEAD3039BB21A467B6802F1080286
:100BD000B96843F8221007F11407BD4680BC70477E
:100BE00080B500AF4FF46053C4F202034FF460527B
:100BF000C4F20202126842F001021A604FF460531C
:100C0000C4F202034FF000029A604FF46053C4F242
:100C100002034FF46052C4F20202126822F084729E
:100C200022F480321A604FF46053C4F2020343F29C
:100C30001002C2F200425A604FF46053C4F2020341
:100C40004FF46052C4F20202126822F480221A6049
:100C50004FF46053C4F202034FF00002DA6000F078
:100C600009F84FF46D43CEF200034FF000629A6032
:100C700080BD00BF80B483B000AF4FF000037B6045
:100C80004FF000033B604FF46053C4F202034FF493
:100C90006052C4F20202126842F480321A604FF4C9
:100CA0006053C4F202031B6803F400333B607B68AB
:100CB00003F101037B603B68002B03D17B68B3F534
:100CC000A06FECD14FF46053C4F202031B6803F42D
:100CD0000033002B03D04FF001033B6002E04FF0E4
:100CE00000033B603B68012B40F082804FF460536F
:100CF000C4F202034FF46052C4F20202126C42F0DA
:100D000080521A644FF4E043C4F200034FF4E0420F
:100D1000C4F20002126842F480421A604FF4605339
:100D2000C4F202034FF46052C4F2020292689A6065
:100D30004FF46053C4F202034FF46052C4F2020253
:100D4000926842F400429A604FF46053C4F2020386
:100D50004FF46052C4F20202926842F4A0529A60C8
:100D60004FF46053C4F2020345F21942C0F24072DC
:100D70005A604FF46053C4F202034FF46052C4F25D
:100D80000202126842F080721A6000BF4FF4605392
:100D9000C4F202031B6803F00073002BF6D04FF47B
:100DA0007053C4F2020340F205621A604FF46053BC
:100DB000C4F202034FF46052C4F20202926822F0BD
:100DC00003029A604FF46053C4F202034FF460527E
:100DD000C4F20202926842F002029A6000BF4FF42D
:100DE0006053C4F202039B6803F00C03082BF6D196
:100DF00007F10C07BD4680BC704700BF80B485B0CA
:100E000000AF786039604FF00003FB817B681B887E
:100E1000FB81FB8903F44153FB813B681A883B68E3
:100E20005B8813439AB23B689B8813439AB23B6832
:100E3000DB8813439AB23B681B8913439AB23B6821
:100E40005B8913439AB23B689B8913439AB23B6810
:100E5000DB8913439AB2FB891343FB817B68FA89D0
:100E60001A807B689B8B9BB223F400639AB27B68E9
:100E70009A833B681A8A7B681A8207F11407BD4679
:100E800080BC704780B483B000AF78600B46FB70C5
:100E9000FB78002B08D07B681B889BB243F0400393
:100EA0009AB27B681A8007E07B681B889BB223F0AC
:100EB00040039AB27B681A8007F10C07BD4680BCDC
:100EC000704700BF80B483B000AF78600B46FB7002
:100ED000FB78002B08D07B689B889BB243F004030F
:100EE0009AB27B689A8007E07B689B889BB223F06C
:100EF00004039AB27B689A8007F10C07BD4680BC58
:100F0000704700BF80B483B000AF78607B689B8976
:100F10009BB2184607F10C07BD4680BC704700BF66
:100F200080B483B000AF78600B467B807B687A88A2
:100F30009A8107F10C07BD4680BC704780B485B02C
:100F400000AF786013460A46FA70BB704FF000039A
:100F5000FB814FF00003BB81FB784FEA1313DBB238
:100F6000FB81FB894FF0010202FA03F3BB81BB78DE
:100F7000002B08D07B689B889AB2BB8913439AB236
:100F80007B689A800AE07B689B889AB2BB896FEA8B
:100F900003039BB213409AB27B689A8007F114074F
:100FA000BD4680BC704700BF80B483B000AF78609E
:100FB0000B467B807B886FEA03039AB27B681A81B9
:100FC00007F10C07BD4680BC704700BF80B485B0F8
:100FD00000AF78600B46FB704FF00003FB734FF0DF
:100FE0000003BB814FF000037B814FF000033B8186
:100FF000FB7803F00F034FF0010202FA03F3BB8109
:10100000FB784FEA1313DBB27B817B894FF001023F
:1010100002FA03F37B817B689B889AB27B89134039
:101020003B817B681B899AB2BB8913409BB2002B22
:1010300006D03B89002B03D04FF00103FB7302E085
:101040004FF00003FB73FB7B184607F11407BD4606
:1010500080BC704780B485B000AF78604FF000036B
:10106000FB734FF00003BB734FF00F037B737B6880
:10107000DB78002B45D04FF46D43CEF20003DB68E4
:101080006FEA030303F4E0634FEA1323FB73FB7B74
:10109000C3F10403BB737A7BFB7B42FA03F37B73DC
:1010A0007B685B781A46BB7B02FA03F3FB737B68B1
:1010B0009A787B7B1340DAB2FB7B1343FB73FB7B99
:1010C0004FEA0313FB734FF46143CEF200037A68D7
:1010D00012789B18FA7B83F800234FF46143CEF219
:1010E00000037A6812784FEA5212D2B2796809780E
:1010F00001F01F014FF0010000FA01F143F8221046
:1011000014E04FF46143CEF200037A6812784FEA9C
:101110005212D2B27968097801F01F014FF0010034
:1011200000FA01F102F1200243F8221007F114073E
:10113000BD4680BC704700BF2020202053656469F5
:101140006E673A20412020202000000020202052FD
:101150006563656976696E673A2042202000000069
:0400000508000000EF
:00000001FF
