:020000040800F2
:10000000002000203D04000881040008810400084D
:1000100000000000000000000000000000000000E0
:100020000000000000000000000000008104000843
:1000300000000000000000008104000881040008A6
:10004000810400088104000881040008810400087C
:10005000810400088104000881040008810400086C
:10006000810400088104000881040008810400085C
:10007000810400088104000881040008810400084C
:1000800081040008810400080000000081040008C9
:10009000810400088104000881040008810400082C
:1000A000810400088104000881040008810400081C
:1000B0008104000800000000810400080000000026
:1000C0005FF808F180B582B000AF78600A1CFB1CB5
:1000D0001A70FB1C1B78002B06D0084B074A51698D
:1000E0007A680A435A6106E0044B044A5269796807
:1000F000C9430A405A61BD4602B080BD00100240AB
:1001000080B582B000AF7860C0467B685A1E9341CC
:10011000DBB27A68013A7A60002BF6D1BD4602B0B4
:1001200080BDC04680B500AF9023DB059022D2058C
:10013000928A91B21A4A0A4092B29A829023DB05BF
:100140009022D205928A91B2164A0A4092B29A82BD
:100150001E2000F0FBF83020002100F069F8052097
:1001600000F0F4F83020002100F062F8012000F0E7
:10017000EDF80220002100F017F82820002100F0FF
:1001800013F80C20002100F00FF80120002100F0EE
:100190000BF80620002100F007F8BD4680BDC046E0
:1001A000FFFEFFFFFFFDFFFF80B582B000AF0A1C1E
:1001B000FB1D011C1970BB1D1A7000F031F8BB1D2E
:1001C0001B78002B0AD19023DB059022D205928A5E
:1001D00091B2124A0A4092B29A820AE09023DB0559
:1001E0009022D205928A92B2802189000A4392B26B
:1001F0009A82FB1D1B781B09DAB2BB1D1B78101CF1
:10020000191C00F015F8FB1D1A78BB1D1B78101C7B
:10021000191C00F00DF8BD4602B080BDFFFDFFFFC8
:1002200080B500AF022000F091F8BD4680BDC04609
:1002300080B582B000AF0A1CFB1D011C1970BB1DEC
:100240001A70254B244A928A91B2244A0A4092B2EB
:100250009A82214B204A928A92B291B2FA1D127868
:10026000920192B20A4392B292B29A82BB1D1B785B
:10027000002B0AD19023DB059022D205928A91B2FD
:10028000174A0A4092B29A820AE09023DB05902234
:10029000D205928A92B2802189000A4392B29A8250
:1002A0009023DB059022D205928A92B280214900E8
:1002B0000A4392B29A826420FFF722FF9023DB0563
:1002C0009022D205928A91B2064A0A4092B29A824C
:1002D000BD4602B080BDC046000800483FFCFFFF9D
:1002E000FFFDFFFFFFFEFFFF80B582B000AF78602B
:1002F00008E07B681B787A6801327A60181C01215B
:10030000FFF752FF7B681B78002BF2D1BD4602B08D
:1003100080BDC04680B582B000AF021CFB1D1A70C4
:10032000FB1D1B78002B0EDB012B02DD022B05D001
:1003300009E080200021FFF737FF04E0C020002102
:10034000FFF732FFC046BD4602B080BD80B584B025
:1003500000AF78600023FB6007E096239B00181C29
:10036000FFF7CEFEFB680133FB60FA687B689A42B8
:10037000F3D3BD4604B080BD80B582B000AF80230A
:100380001B03181C0121FFF79DFE3B1CF02292006D
:100390001A603B1C01225A713B1C01221A713B1C42
:1003A00000229A713B1C0022DA71134A3B1C101C7C
:1003B000191C00F067F880239B02181C0121FFF72D
:1003C00081FE3B1CE02292001A603B1C01225A7104
:1003D0003B1C01221A713B1C00229A713B1C00221B
:1003E000DA719023DA053B1C101C191C00F04AF846
:1003F000BD4602B080BDC0460008004880B500AFD1
:10040000FFF7BAFFFFF78EFE0320FFF79FFF0120E3
:10041000FFF780FF074B181CFFF766FF6420FFF70C
:1004200095FF0220FFF776FF034B181CFFF75CFFD8
:10043000FEE7C0462807000838070008002103E04F
:100440000A4B5B584350043109480A4B42189A4200
:10045000F6D3094A02E0002313600432074B9A42A4
:10046000F9D300F0ABF8FFF7C9FF70474C0700085D
:1004700000000020000000200000002000000020FC
:10048000FEE7000080B586B000AF786039600023D9
:100490007B6100233B610023FB6000237B6185E0DF
:1004A0007B690122101C9840031C3B613B681B6860
:1004B0003A691340FB60FA683B699A4273D13B6822
:1004C0001B79012B03D03B681B79022B38D17B6849
:1004D0009B687A6952000321081C9040021CD24399
:1004E0001A407B689A607B689A683B685B79191C44
:1004F0007B695B00081C9840031C1A437B689A6068
:100500007B689B889BB27A6992B20121081C90405B
:10051000021C92B2D24392B213409AB27B689A8084
:100520007B689B889AB23B689B79191C7B699BB25C
:10053000081C9840031C9BB213439AB27B689A80B4
:100540007B681B687A6952000321081C9040021CDA
:10055000D2431A407B681A607B681A683B681B7933
:10056000191C7B695B00081C9840031C1A437B68BC
:100570001A607B68DB687A6992B252000321081C1A
:100580009040021CD2431A407B68DA607B68DA68CC
:100590003B68DB79191C7B695B00081C9840031CD5
:1005A0001A437B68DA607B6901337B617B690F2BBF
:1005B00000D875E7BD4606B080BDC04680B500AF27
:1005C0001B4B1B4A126801210A431A60184B184A38
:1005D0005168184A0A405A60154B154A1168164A64
:1005E0000A401A60124B124A1168144A0A401A60F3
:1005F0000F4B0F4A5168124A0A405A600C4B0C4A82
:10060000D26A0F218A43DA62094B094A116B0D4AFB
:100610000A401A63064B064A526B01218A435A6309
:10062000034B00229A6000F00FF8BD4680BDC04623
:10063000001002400CB8FFF8FFFFF6FEFFFFFBFFC3
:10064000FFFFC0FFACFEFFFF80B582B000AF00230C
:100650007B6000233B60314B304A126880214902A5
:100660000A431A602D4B1A6880239B0213403B609B
:100670007B6801337B603B68002B04D17A68A02340
:10068000DB009A42EED1254B1A6880239B0213406F
:1006900002D001233B6001E000233B603B68012B5B
:1006A00038D11F4B11221A601C4B1C4A52685A60E9
:1006B0001A4B1A4A52685A60184B184A5168194A1C
:1006C0000A405A60154B154A5268882149030A436B
:1006D0005A60124B114A1268802149040A431A6079
:1006E000C0460E4B1A6880239B041340F9D00B4B75
:1006F0000A4A526803218A435A60084B074A5268E3
:1007000002210A435A60C046044B5A680C23134026
:10071000082BF9D1BD4602B080BDC0460010024092
:1007200000200240FFFFC0FF2020202020204B544B
:100730004D54204B31352000204C4F50204D41541A
:0C074000205452414E205455000000008F
:0400000508000000EF
:00000001FF
