:020000040800F2
:100000001008002089010008F5010008F50100082A
:10001000F5010008F5010008F501000800000000E6
:10002000000000000000000000000000F5010008D2
:10003000F501000800000000F5010008F5010008C6
:10004000F5010008F5010008F5010008F5010008B8
:10005000F5010008F5010008F5010008F5010008A8
:10006000F5010008F5010008F5010008F501000898
:10007000F5010008F5010008F5010008F501000888
:10008000F5010008F5010008F5010008F501000878
:10009000F5010008F5010008F5010008F501000868
:1000A000F5010008F5010008F5010008F501000858
:1000B000F5010008F5010008F5010008F501000848
:1000C000F5010008F5010008F5010008F501000838
:1000D000F5010008F5010008F5010008F501000828
:1000E000F5010008F5010008F5010008F501000818
:1000F000F5010008F5010008F5010008F501000808
:10010000F5010008F5010008F5010008F5010008F7
:10011000F5010008F5010008F5010008F5010008E7
:10012000F5010008F5010008F5010008F5010008D7
:10013000F5010008F5010008F5010008F5010008C7
:10014000F5010008F5010008F5010008F5010008B7
:10015000F5010008F5010008F5010008F5010008A7
:10016000F5010008F5010008F5010008F501000897
:10017000F5010008F5010008F5010008F501000887
:10018000F5010008F501000880B582B000AF40F627
:100190001003C0F600037B6040F20003C2F20003CC
:1001A0003B600BE07B681A683B681A603B6803F1B0
:1001B00004033B607B6803F104037B603A6840F210
:1001C0000003C2F200039A42ECD3084808494FF0FA
:1001D00000028842B8BF40F8042BFFF6FAAF00F0E7
:1001E00025F807F10807BD4680BD0000000000208B
:1001F0001000002080B400AFFEE700BF80B483B0E1
:1002000000AF4FF000037B6003E07B6803F1010364
:100210007B607A6840F6FF03C0F23D039A42F4DD4A
:1002200007F10C07BD4680BC704700BF80B500AF2A
:1002300000F0E0F94FF001004FF0010100F0F6F896
:1002400040F20803C2F200034FF0FF021A6040F2CE
:100250000803C2F200034FF001021A7140F20803D2
:10026000C2F200034FF000029A7140F20803C2F29A
:1002700000034FF003025A7140F20803C2F2000378
:100280004FF00002DA7140F20803C2F200034FF6A9
:10029000FF721A604FF00000C4F2020040F2080141
:1002A000C2F2000100F0ECF84FF00000C4F20200CE
:1002B0004FF001014FF0010200F084F9FFF79EFFBB
:1002C0004FF00000C4F202004FF001014FF00002B5
:1002D00000F078F9FFF792FF4FF00000C4F202003F
:1002E0004FF004014FF0010200F06CF9FFF786FFB8
:1002F0004FF00000C4F202004FF004014FF0000282
:1003000000F060F9FFF77AFF4FF00000C4F202003E
:100310004FF010014FF0010200F054F9FFF76EFFAB
:100320004FF00000C4F202004FF010014FF0000245
:1003300000F048F9FFF762FF4FF00000C4F202003E
:100340004FF040014FF0010200F03CF9FFF756FF7B
:100350004FF00000C4F202004FF040014FF00002E5
:1003600000F030F9FFF74AFF4FF00000C4F202003E
:100370004FF002014FF0010200F024F9FFF73EFFB9
:100380004FF00000C4F202004FF002014FF00002F3
:1003900000F018F9FFF732FF4FF00000C4F202003E
:1003A0004FF008014FF0010200F00CF9FFF726FFB3
:1003B0004FF00000C4F202004FF008014FF00002BD
:1003C00000F000F9FFF71AFF4FF00000C4F202003E
:1003D0004FF020014FF0010200F0F4F8FFF70EFF9C
:1003E0004FF00000C4F202004FF020014FF0000275
:1003F00000F0E8F8FFF702FF4FF00000C4F202003F
:100400004FF080014FF0010200F0DCF8FFF7F6FE3C
:100410004FF00000C4F202004FF080014FF00002E4
:1004200000F0D0F8FFF7EAFE3EE700BF80B483B0EB
:1004300000AF78600B46FB70FB78002B0CD04FF4BC
:100440006053C4F202034FF46052C4F20202116B13
:100450007A680A431A630DE04FF46053C4F2020352
:100460004FF46052C4F20202116B7A686FEA020222
:100470000A401A6307F10C07BD4680BC704700BFF5
:1004800080B487B000AF786039604FF000037B61C3
:100490004FF000033B614FF00003FB604FF000039F
:1004A0007B6186E07B694FF0010202FA03F33B6156
:1004B0003B681A683B691340FB60FA683B699A42E3
:1004C00073D17B681A687B694FEA43034FF00301DD
:1004D00001FA03F36FEA03031A407B681A607B6832
:1004E0001A683B681B7919467B694FEA430301FA96
:1004F00003F31A437B681A603B681B79012B03D016
:100500003B681B79022B34D17B689A687B694FEA80
:1005100043034FF0030101FA03F36FEA03031A40A8
:100520007B689A607B689A683B685B7919467B694F
:100530004FEA430301FA03F31A437B689A607B682E
:100540005A687B699BB24FF0010101FA03F36FEA2D
:1005500003031A407B685A607B685A683B689B7942
:1005600019467B699BB201FA03F39BB21A437B687D
:100570005A607B68DA687B699BB24FEA43034FF0AD
:10058000030101FA03F36FEA03031A407B68DA60A0
:100590007B68DA683B68DB7919467B694FEA43037D
:1005A00001FA03F31A437B68DA607B6903F1010304
:1005B0007B617B690F2B7FF675AF07F11C07BD468A
:1005C00080BC704780B483B000AF786013460A46A1
:1005D0007A807B707B78002B03D07B687A881A83C3
:1005E00002E07B687A885A8307F10C07BD4680BC1D
:1005F000704700BF80B500AF4FF46053C4F20203F0
:100600004FF46052C4F20202126842F001021A6012
:100610004FF46053C4F202034FF000029A604FF4AB
:100620006053C4F202034FF46052C4F20202126833
:1006300022F0847222F480321A604FF46053C4F2C4
:10064000020343F21002C2F200425A604FF46053B8
:10065000C4F202034FF46052C4F20202126822F4A0
:1006600080221A604FF46053C4F202034FF000027C
:10067000DA6000F009F84FF46D43CEF200034FF05A
:1006800000629A6080BD00BF80B483B000AF4FF0BD
:1006900000037B604FF000033B604FF46053C4F2F3
:1006A00002034FF46052C4F20202126842F4803234
:1006B0001A604FF46053C4F202031B6803F4003362
:1006C0003B607B6803F101037B603B68002B03D137
:1006D0007B68B3F5A06FECD14FF46053C4F2020312
:1006E0001B6803F40033002B03D04FF001033B6081
:1006F00002E04FF000033B603B68012B40F082803A
:100700004FF46053C4F202034FF46052C4F2020289
:10071000126C42F080521A644FF4E043C4F20003BA
:100720004FF4E042C4F20002126842F480421A60C0
:100730004FF46053C4F202034FF46052C4F2020259
:1007400092689A604FF46053C4F202034FF460520F
:10075000C4F20202926842F400429A604FF460537D
:10076000C4F202034FF46052C4F20202926842F4EF
:10077000A0529A604FF46053C4F2020345F219424A
:10078000C0F240725A604FF46053C4F202034FF457
:100790006052C4F20202126842F080721A6000BF16
:1007A0004FF46053C4F202031B6803F00073002B84
:1007B000F6D04FF47053C4F2020340F205621A609F
:1007C0004FF46053C4F202034FF46052C4F20202C9
:1007D000926822F003029A604FF46053C4F202035D
:1007E0004FF46052C4F20202926842F002029A6030
:1007F00000BF4FF46053C4F202039B6803F00C0384
:10080000082BF6D107F10C07BD4680BC704700BF2E
:0400000508000000EF
:00000001FF
