:020000040800F2
:1000000000A00020A1100008ED100008ED1000086D
:10001000ED100008ED100008ED10000800000000D1
:10002000000000000000000000000000ED100008CB
:10003000ED10000800000000ED100008ED100008B1
:10004000ED100008ED100008ED100008ED1000089C
:10005000ED100008ED100008ED100008ED1000088C
:10006000ED100008ED100008ED100008ED1000087C
:10007000ED100008ED100008ED100008ED1000086C
:10008000ED100008ED100008ED100008ED1000085C
:10009000ED100008ED100008ED100008ED1000084C
:1000A000ED100008ED100008ED100008ED1000083C
:1000B000ED100008ED100008D10A0008ED1000084E
:1000C000ED100008ED100008ED100008ED1000081C
:1000D000ED100008ED100008ED100008ED1000080C
:1000E000ED100008ED100008ED100008ED100008FC
:1000F000ED100008ED100008ED100008ED100008EC
:10010000000000000000000000000000ED100008EA
:10011000ED100008ED100008ED100008ED100008CB
:10012000ED100008ED100008ED100008ED100008BB
:10013000ED100008ED1000080000000000000000B5
:10014000ED100008ED100008ED10000800000000A0
:10015000000000000000000000000000000000009F
:100160000000000000000000ED100008ED10000885
:10017000ED1000080000000000000000000000007A
:1001800000000000ED10000880B483B000AF78607C
:100190000B46FB70FB78002B0CD04FF48053C4F25D
:1001A00002034FF48052C4F2020251697A680A4392
:1001B0005A610DE04FF48053C4F202034FF48052B1
:1001C000C4F2020251697A686FEA02020A405A6177
:1001D00007F10C07BD4680BC704700BF80B483B0F8
:1001E00000AF78600B46FB70FB78002B0CD04FF40F
:1001F0008053C4F202034FF48052C4F20202D16968
:100200007A680A43DA610DE04FF48053C4F20203C6
:100210004FF48052C4F20202D1697A686FEA020296
:100220000A40DA6107F10C07BD4680BC704700BF89
:1002300080B487B000AF786039604FF000037B6115
:100240004FF000033B614FF00003FB604FF00003F1
:100250007B618CE07B694FF0010202FA03F33B61A2
:100260003B681A683B691340FB60FA683B699A4235
:1002700079D13B681B79012B03D03B681B79022B9A
:100280003AD17B689A687B694FEA43034FF00301D8
:1002900001FA03F36FEA03031A407B689A607B68F4
:1002A0009A683B685B7919467B694FEA430301FA18
:1002B00003F31A437B689A607B689B889AB27B69D8
:1002C0009BB24FF0010101FA03F39BB26FEA030303
:1002D0009BB213409AB27B689A807B689B889AB2E3
:1002E0003B689B7919467B699BB201FA03F39BB289
:1002F00013439AB27B689A807B681A687B694FEADD
:1003000043034FF0030101FA03F36FEA03031A40BA
:100310007B681A607B681A683B681B7919467B69A1
:100320004FEA430301FA03F31A437B681A607B68C0
:10033000DA687B699BB24FEA43034FF0030101FA8D
:1003400003F36FEA03031A407B68DA607B68DA68BC
:100350003B68DB7919467B694FEA430301FA03F3F3
:100360001A437B68DA607B6903F101037B617B6977
:100370000F2B7FF66FAF07F11C07BD4680BC70479F
:1003800080B485B000AF78600B467B804FF00003EF
:10039000FB737B681B8A9AB27B8813409BB2002B4D
:1003A00003D04FF00103FB7302E04FF00003FB7337
:1003B000FB7B184607F11407BD4680BC704700BFA1
:1003C00080B582B000AF4FF00003FB7100F040FA3F
:1003D00000F0F2F800F0D6FA00F046FB4FF0904340
:1003E0004FF00F029A820AE009E04FF090434FF07D
:1003F0009042928A92B222F00F0292B29A824FF009
:1004000090404FF01001FFF7BBFF0346012BECD0EB
:1004100009E04FF090434FF09042928A92B242F03E
:100420000F0292B29A824FF090404FF02001FFF7F6
:10043000A7FF0346012BECD0D6E700BF80B58CB0F8
:1004400000AF4FF001004FF0000100F003F94FF052
:1004500006004FF0000100F0FDF84FF006004FF0ED
:10046000000100F0F7F84FF0050000F0D9F94FF067
:10047000010000F0B5F94FF000037B6107F11803AC
:100480004FF000021A6003F104034FF000021A60FB
:1004900003F104034FF000021A6003F104034FF06C
:1004A00000021A6003F104034FF000033B6007F100
:1004B00004034FF000021A6003F104034FF000023E
:1004C0001A6003F104034FF000021A6003F1040301
:1004D0004FF000021A6003F104034FF00003BB6207
:1004E00032E040F21403C2F2000319684CF6CD4327
:1004F000CCF6CC43A3FB01234FEAD30213464FEAC9
:1005000083039B184FEA4303CA1AD3B203F13003A3
:10051000DAB207F11401BB6ACB181A7040F2140367
:10052000C2F200031A684CF6CD43CCF6CC43A3FBD1
:1005300002134FEAD30240F21403C2F200031A601E
:10054000BB6A03F10103BB6240F21403C2F2000371
:100550001B68002BC5D1BB6A03F1FF33FB6212E0BD
:10056000BB6A03F1FF32FB6AD31A07F11401FA6A7E
:100570008A18127807F13001CB1803F8302CFB6A87
:1005800003F1FF33FB62FB6A002BE9DA41F2F00072
:10059000C0F6000000F00CF94FF0050000F040F943
:1005A0004FF0020000F01CF93B46184600F000F93D
:1005B00007F13007BD4680BD80B500AF4FF09043D6
:1005C0004FF09042928A92B222F4807292B29A8252
:1005D0004FF090434FF09042928A92B222F4007210
:1005E00092B29A824FF01E0000F01AF94FF03000DC
:1005F0004FF0000100F080F84FF0050000F010F916
:100600004FF030004FF0000100F076F84FF001009D
:1006100000F006F94FF002004FF0000100F01AF868
:100620004FF028004FF0000100F014F84FF00C00DC
:100630004FF0000100F00EF84FF001004FF0000104
:1006400000F008F84FF006004FF0000100F002F84B
:1006500080BD00BF80B582B000AF02460B46FA7184
:10066000BB7100F041F8BB79002B0AD14FF09043E9
:100670004FF09042928A92B222F4007292B29A8221
:1006800009E04FF090434FF09042928A92B242F4C8
:10069000007292B29A82FB794FEA1313DAB2BB79F5
:1006A0001046194600F028F8FA79BB791046194629
:1006B00000F022F807F10807BD4680BD80B483B082
:1006C00000AF786000BF7B68002B0CBF00220122C6
:1006D000D2B203F1FF337B60002AF4D107F10C079B
:1006E000BD4680BC704700BF80B500AF4FF0020030
:1006F00000F096F880BD00BF80B582B000AF024622
:100700000B46FA71BB714FF48063C4F600034FF4DB
:100710008062C4F60002928A92B222F4707292B29F
:100720009A824FF48063C4F600034FF48062C4F6EB
:100730000002928A92B291B2FA794FEA821292B290
:100740000A4392B292B29A82BB79002B0AD14FF03F
:1007500090434FF09042928A92B222F4007292B289
:100760009A8209E04FF090434FF09042928A92B201
:1007700042F4007292B29A824FF090434FF090424E
:10078000928A92B242F4807292B29A824FF06400DE
:10079000FFF794FF4FF090434FF09042928A92B24D
:1007A00022F4807292B29A8207F10807BD4680BD9A
:1007B00080B582B000AF78600AE07B681B787A6809
:1007C00002F101027A6018464FF00101FFF742FF83
:1007D0007B681B78002BF0D107F10807BD4680BD70
:1007E00080B582B000AF0346FB71FB79002B12DBB2
:1007F000012B02DD022B07D00DE04FF080004FF0FF
:100800000001FFF727FF06E04FF0C0004FF00001A6
:10081000FFF720FF00BF07F10807BD4680BD00BFFE
:1008200080B584B000AF78604FF00003FB6007E054
:100830004FF41670FFF742FFFB6803F10103FB6002
:10084000FA687B689A42F3D307F11007BD4680BD72
:1008500080B500AF4FF400104FF00101FFF794FC9A
:1008600040F22403C2F2000348F608321A6040F254
:100870002403C2F200034FF001021A7140F2240374
:10088000C2F200034FF000029A7140F22403C2F258
:1008900000034FF003025A7140F22403C2F2000336
:1008A0004FF00002DA714FF48050C4F6000040F2BD
:1008B0002401C2F20001FFF7BBFC4FF400304FF0FF
:1008C0000101FFF761FC40F22403C2F2000340F291
:1008D0003F321A6040F22403C2F200034FF00102DB
:1008E0001A7140F22403C2F200034FF000029A7121
:1008F00040F22403C2F200034FF003025A7140F2A7
:100900002403C2F200034FF00002DA714FF090406E
:1009100040F22401C2F20001FFF78AFC4FF480206C
:100920004FF00101FFF730FC40F22403C2F2000354
:100930004FF470721A6040F22403C2F200034FF0C9
:1009400001021A7140F22403C2F200034FF00002C8
:100950009A7140F22403C2F200034FF003025A716D
:1009600040F22403C2F200034FF00002DA714FF4A8
:100970008060C4F6000040F22401C2F20001FFF7DB
:1009800057FC80BD80B500AF4FF004004FF001016F
:10099000FFF724FC40F20003C2F200031A6841F2A0
:1009A0005973CDF2B713A3FB02134FEA93339BB2F3
:1009B00003F1FF339AB240F21803C2F200031A8027
:1009C00040F21803C2F200034FF6FE725A6040F282
:1009D0001803C2F200034FF000021A8140F218031C
:1009E000C2F200034FF000025A804FF40060C4F2DC
:1009F000000040F21801C2F2000100F03BFA4FF48F
:100A00000060C4F200004FF001014FF0010200F05D
:100A1000E5FA4FF40060C4F200004FF0010100F06D
:100A2000BDFA40F22C03C2F200034FF01E021A700E
:100A300040F22C03C2F200034FF000025A7040F261
:100A40002C03C2F200034FF001029A7040F22C0313
:100A5000C2F200034FF00102DA7040F22C00C2F241
:100A6000000000F093F980BD80B500AF4FF00100A9
:100A70004FF00101FFF7B2FB40F21803C2F200038E
:100A80004FF000021A8040F21803C2F200036FF028
:100A90007F425A6040F21803C2F200034FF0000296
:100AA0001A8140F21803C2F200034FF000025A808C
:100AB0004FF0804040F21801C2F2000100F0DAF974
:100AC0004FF080404FF0010100F068FA80BD00BF98
:100AD00080B500AF4FF40060C4F200004FF0010198
:100AE00000F09CFA0346002B27D04FF0804000F026
:100AF00049FA024640F21403C2F200031A60FFF7FB
:100B00009DFC4FF48053C4F600034FF47F429A8259
:100B10004FF49050C0F27A00FFF7D0FD4FF48053AD
:100B2000C4F600034FF000029A824FF40060C4F252
:100B300000004FF0010100F0A1FA80BD80B500AFC8
:100B40004FF48053C4F202034FF48052C4F2020205
:100B5000126842F001021A604FF48052C4F202029D
:100B60004FF48053C4F2020359684CF20C03CFF6E1
:100B70007F030B4053604FF48053C4F202034FF4E1
:100B80008052C4F20202126822F0847222F480328F
:100B90001A604FF48053C4F202034FF48052C4F23F
:100BA0000202126822F480221A604FF48053C4F2C9
:100BB00002034FF48052C4F20202526822F4FE0291
:100BC0005A604FF48053C4F202034FF48052C4F2CF
:100BD0000202D26A22F00F02DA624FF48052C4F2AB
:100BE00002024FF48053C4F20203196B4FF6CC4358
:100BF000CFF600730B4013634FF48053C4F202032B
:100C00004FF000029A6000F009F84FF46D43CEF205
:100C100000034FF000629A6080BD00BF80B483B0D3
:100C200000AF4FF000037B604FF000033B604FF4D8
:100C30008053C4F202034FF48052C4F202021268DD
:100C400042F480321A604FF48053C4F202031B68EE
:100C500003F400333B607B6803F101037B603B6876
:100C6000002B03D17B68B3F5A06FECD14FF4805318
:100C7000C4F202031B6803F40033002B03D04FF0CF
:100C800001033B6002E04FF000033B603B68012B37
:100C900076D14FF40053C4F202034FF012021A60EF
:100CA0004FF48053C4F202034FF48052C4F20202A4
:100CB00052685A604FF48053C4F202034FF48052DA
:100CC000C4F2020252685A604FF48053C4F2020325
:100CD0004FF48052C4F20202526842F480625A60B9
:100CE0004FF48053C4F202034FF48052C4F2020264
:100CF000526822F47C125A604FF48053C4F202030B
:100D00004FF48052C4F20202526842F4E8125A6070
:100D10004FF48053C4F202034FF48052C4F2020233
:100D2000126842F080721A6000BF4FF48053C4F220
:100D300002031B6803F00073002BF6D04FF48053BE
:100D4000C4F202034FF48052C4F20202526822F04D
:100D500003025A604FF48053C4F202034FF48052EE
:100D6000C4F20202526842F002025A6000BF4FF41D
:100D70008053C4F202035B6803F00C03082BF6D126
:100D800007F10C07BD4680BC704700BF80B487B038
:100D900000AF78604FF000037B614FF000033B61D0
:100DA0004FF00F03FB607B68DB78002B47D04FF4DC
:100DB0006D43CEF20003DB686FEA030303F4E063E4
:100DC0004FEA13237B617B69C3F104033B617B69B9
:100DD000FA6822FA03F3FB607B685B781A463B698A
:100DE00002FA03F37B617B689B781A46FB68134029
:100DF0007A6913437B617B694FEA03137B614FF48C
:100E00006143CEF200037A68127811467A69D2B251
:100E10005B1883F800234FF46143CEF200037A6835
:100E200012784FEA5212D2B27968097801F01F01A4
:100E30004FF0010000FA01F143F8221014E04FF4E2
:100E40006143CEF200037A6812784FEA5212D2B2AE
:100E50007968097801F01F014FF0010000FA01F1F3
:100E600002F1200243F8221007F11C07BD4680BCA6
:100E7000704700BF80B485B000AF786039604FF034
:100E80000003FB817B681B88FB817A684FF4305339
:100E9000C4F201039A4218D07A684FF45053C4F256
:100EA00001039A4211D07B68B3F1804F0DD07A686C
:100EB0004FF48063C4F200039A4206D07A684FF47C
:100EC0000063C4F200039A4208D1FB8923F0700347
:100ED000FB813B685A88FB891343FB817A684FF496
:100EE0008053C4F200039A420FD07A684FF4A053A3
:100EF000C4F200039A4208D0FB8923F44073FB81BB
:100F00003B681A89FB891343FB817B68FA891A8045
:100F10003B685A687B68DA623B681A887B681A8586
:100F20007A684FF43053C4F201039A421BD07A68B6
:100F30004FF45053C4F201039A4214D07A684FF42C
:100F40008043C4F201039A420DD07A684FF488437B
:100F5000C4F201039A4206D07A684FF49043C4F277
:100F600001039A4204D13B689B7A1A467B681A8631
:100F70007B684FF001025A6107F11407BD4680BC3F
:100F8000704700BF80B483B000AF78607B685B6A55
:100F9000184607F10C07BD4680BC704780B483B08B
:100FA00000AF78600B46FB70FB78002B08D07B68A5
:100FB0001B889BB243F001039AB27B681A8007E05A
:100FC0007B681B889BB223F001039AB27B681A806E
:100FD00007F10C07BD4680BC704700BF80B483B0EA
:100FE00000AF786013460A467A807B707B78002BCE
:100FF00006D07B68DA687B881A437B68DA6008E091
:101000007B68DA687B886FEA03039BB21A407B68CF
:10101000DA6007F10C07BD4680BC704780B485B02C
:1010200000AF78600B467B804FF00003FB734FF0FE
:101030000003BB814FF000037B817B681B699AB280
:101040007B881340BB817B68DB689AB27B88134046
:101050007B81BB89002B06D07B89002B03D04FF00E
:101060000103FB7302E04FF00003FB73FB7B1846A8
:1010700007F11407BD4680BC704700BF80B483B041
:1010800000AF78600B467B807B886FEA03039BB2DE
:101090001A467B681A6107F10C07BD4680BC704791
:1010A000002100F004B80C4B5B58435004310B484E
:1010B0000B4B42189A42FFF4F6AF0A4A00F003B80D
:1010C000002342F8043B084B9A42FFF4F9AFFFF7C4
:1010D00035FDFFF775F97047FC100008000000208F
:1010E000140000201400002030000020FFF7FEBF95
:0C10F00054494D2032202D2054433A007A
:1010FC0000A24A04000000000000000001020304EA
:04110C0006070809C1
:0400000508000000EF
:00000001FF
