:020000040800F2
:1000000018040020D50000080502000803020008BB
:1000100000000000000000000000000000000000E0
:100020000000000000000000000000007503000850
:100030000000000000000000590200081104000840
:10004000E7000008E7000008E7000008E7000008F4
:10005000E7000008E7000008E7000008E7000008E4
:10006000E7000008E7000008E7000008E7000008D4
:10007000E7000008E7000008E7000008E7000008C4
:10008000E7000008E700000800000000E7000008A3
:10009000E7000008E7000008E7000008E7000008A4
:1000A000E7000008E7000008E7000008A1040008D6
:1000B000E700000800000000E70000080000000062
:1000C0000348854600F03CF800480047D90700087F
:1000D000180400200448804704480047FEE7FEE774
:1000E000FEE7FEE7FEE7FEE715040008C100000892
:1000F00030B50B46014600202022012409E00D46C0
:10010000D5409D4205D31D469540491B2546954047
:1001100040191546521E002DF1DC30BD03460B433D
:100120009B0703D009E008C9121F08C0042AFAD2AD
:1001300003E00B78491C0370401C521EF9D2704733
:10014000064C0125064E05E02046E36807C82B4310
:1001500098471034B442F7D3FFF7B6FFD80A000827
:10016000F80A0008F0B50022012423460D689340E8
:100170001D409D422AD10D79012D01D0022D12D1B1
:10018000876855000326AE40B74387604E79AE407E
:1001900085682E43866085889D43858085888B7918
:1001A00093401D438580066855000323AB409E4362
:1001B00006600E790768AE403E430660C6689E43FF
:1001C000C660CB79AB40C5682B43C360521C102A74
:1001D000CBD3F0BD4B07DB0E9A40C90810B58900A0
:1001E0000818016A0F249C40A1430162016A11436F
:1001F000016210BD0246128A00200A4200D001208E
:100200007047FEE77047000030B58178012203781F
:10021000002915D09C080E49A400641821689B078A
:10022000DD0EFF23AB40994343789B071B0EAB4089
:100230000B4323600078C006C00E8240054804E0EE
:10024000D806C00E824003488030026030BD0000F6
:1002500000E400E000E100E070470000044A0029EB
:10026000516901D0014300E08143516170470000B2
:1002700000100240044A0029916901D0014300E0C6
:10028000814391617047000000100240F8B5334D82
:10029000044668680C21324E084003D0042801D07F
:1002A000082801D0266012E0696868680122890286
:1002B00012040F0F1040BF1C00281CD0E86A010771
:1002C000090F491C3046FFF713FF78432060686828
:1002D000244B0006000F1A5C20680146D140616083
:1002E0006A685205520F9A5CD140A1602A6BD20510
:1002F00005D41D4A09E01D4847432760E7E76A68BF
:10030000520401D44A0800E08A08E2602A6B5306CE
:10031000174A03D4164B1233236100E022612B6B82
:10032000DB0601D4666100E060612B6B9B070FD098
:10033000296B8907890F01290CD0286B8007800F52
:10034000022809D0286BC043800700D1A661F8BD00
:10035000A161F8BDA061F8BDA261F8BD0010024026
:1003600000127A0008000020809FD50000093D009F
:1003700000800000704700001CB500212248019158
:100380000091026801231B041A4302605B000522EE
:10039000120304681C400094019C641C0194009C9E
:1003A000002C02D1019C9442F3D10268920328D51B
:1003B00001210091154A1121116041684160416895
:1003C000416041683F22120491434160416811221B
:1003D00012041143416001680122120611430160B9
:1003E00001688901FCD5416889088900416041683C
:1003F00002221143416041680907890F0229FAD19D
:100400001CBD00911CBD00000010024000200240F5
:100410007047000010B514480168012211430160C3
:100420004168124A114041600168114A114001605F
:100430000168012292049143016041683F22120445
:1004400091434160C16A09090901C162016BFF2240
:10045000543291430163416B4908490041630021D3
:100460008160FFF789FF10BD001002400CB8FFF853
:10047000FFFFF6FE70B50D460446084E0AE08021E7
:10048000304600F039F80028F9D02178641C304655
:1004900000F0B0F86D1EF2D270BD000000380140CF
:1004A00010B50D490D4800F02EF800280ED00B486D
:1004B00020308088C4B2204600F0C4F808486E2C72
:1004C00002D00178002902D00021017010BD04493A
:1004D000491C0C700121F8E70501050000380140B6
:1004E000000000200029016802D00122114301E030
:1004F00049084900016070470246D26900200A425B
:1005000000D00120704730B50A04130E01221446B2
:1005100000258C40012B0ED0022B0ED08368090CD5
:100520002340C0698A401040002B02D0002800D030
:100530000125284630BD0368F1E74368EFE710B5B1
:100540000B041C0E01238B40022C02D0032C02D082
:1005500002E0001D00E008300168002A01D01943C4
:1005600000E09943016010BD30B50446006887B0D3
:100570000D4640084000206060680321090388435D
:10058000A9680143616020681749EA680840696802
:1005900011432A69024311432160A0680321090223
:1005A000884369690143A1606846FFF76FFE0F4801
:1005B000844201D1069800E0029821680904296864
:1005C00000D54000FFF794FD2A6852088A4200D8FF
:1005D000401C2168090404D50107054A490F104051
:1005E0000843A08107B030BDF3E9FFFF00380140A8
:1005F000F0FF0000C905C90D0185704730B474468D
:10060000641E2578641CAB4200D21D46635D5B000E
:10061000E31830BC184702E008C8121F08C1002ABE
:10062000FAD170477047002001E001C1121F002A73
:10063000FBD1704702490020401C8842FCDB704718
:100640008096980030B5303809240025A401154A59
:100650000300FFF7D3FF0A06080A0C0E1114171A3D
:100660001E20958230BD402011E080200FE0C02088
:100670000DE0FF2001300AE0FF20413007E0FF20BD
:10068000813004E0FF20C13001E00120400290826F
:1006900030BD948230BD9482FFF7CCFF9582FFF786
:1006A000C9FFF6E70008004870B501218CB0C80406
:1006B000FFF7D4FD032000020090012569460D716B
:1006C00000248C71CD7103264E712248FFF74AFD3C
:1006D00001218803FFF7CEFD01214804FFF7BEFD8D
:1006E000700202900220694608734E738C730926CB
:1006F000CD73F60602A93046FFF734FD0122092129
:100700003046FFF767FD01220A213046FFF762FD00
:100710004B20C0010A9405900C200F4E09900694BE
:100720000794089405A93046FFF71EFF01220B49E4
:100730003046FFF704FF1B20694608744C748D7423
:1007400004A8FFF761FD01213046FFF7CBFE0CB096
:1007500070BD000000080048003801400501050098
:10076000FEB5032001218004FFF778FD0F208001F2
:100770000090032468464471012606710025134F3A
:10078000857169463846FFF7EDFC68460094447170
:100790000671857169460E48FFF7E4FC3020009031
:1007A000684644710671857169463846FFF7DAFC80
:1007B0000848009068464471057185710221C17135
:1007C00069460348FFF7CEFCFEBD00000008004864
:1007D00000040048041C0000F0B585B01422B5A147
:1007E0006846FFF79BFCFFF7BBFF4B20C001FFF7FC
:1007F0005BFF11216846FFF73DFEB3490A200870F0
:10080000B24C42E180212046FFF776FE0028F9D065
:100810002A212046FFF7EEFEFFF70CFF0121C90257
:10082000AB48FFF7E7FC00280BD080212046FFF7FC
:1008300063FE0028F9D037212046FFF7DBFEFFF7E3
:10084000F9FE01218902A248FFF7D4FC00280BD051
:1008500080212046FFF750FE0028F9D034212046A1
:10086000FFF7C8FEFFF7E6FE04219948FFF7C2FC38
:1008700000280BD080212046FFF73EFE0028F9D04B
:1008800031212046FFF7B6FEFFF7D4FE91480581DF
:1008900090482021203881618D4801272030078130
:1008A000022101818A4EC9023046FFF7A3FC0028CD
:1008B0000BD080212046FFF71FFE0028F9D0302101
:1008C0002046FFF797FEFFF7B5FE0121C90230462B
:1008D000FFF790FC00280BD080212046FFF70CFE8C
:1008E0000028F9D038212046FFF784FEFFF7A2FE4A
:1008F000012189023046FFF77DFC00280BD08021C2
:100900002046FFF7F9FD0028F9D035212046FFF7F2
:1009100071FEFFF78FFE04216D48FFF76BFC002886
:100920000BD080212046FFF7E7FD0028F9D03221C7
:100930002046FFF75FFEFFF77DFE664E10203081F8
:1009400020203081624D01212846A961604F02219B
:1009500020373981C902FFF74DFC00280BD08021D8
:100960002046FFF7C9FD0028F9D023212046FFF7D4
:1009700041FEFFF75FFE0121C9022846FFF73AFC5E
:1009800000280BD080212046FFF7B6FD0028F9D0C3
:1009900039212046FFF72EFEFFF74CFE0121890288
:1009A0002846FFF727FC00280BD080212046FFF7C0
:1009B000A3FD0028F9D036212046FFF71BFEFFF7E4
:1009C00039FE04212846FFF715FC00280BD08021B2
:1009D0002046FFF791FD0028F9D033212046FFF78C
:1009E00009FEFFF727FE10203081202030810120F2
:1009F000388102212846A961C902FFF7FBFB0028C4
:100A00000BD080212046FFF777FD0028F9D0442144
:100A10002046FFF7EFFDFFF70DFE0121C902284632
:100A2000FFF7E8FB00280BD080212046FFF764FD8C
:100A30000028F9D043212046FFF7DCFDFFF7FAFD3F
:100A4000012189022846FFF7D5FB00280BD0802121
:100A50002046FFF751FD0028F9D042212046FFF73C
:100A6000C9FDFFF7E7FD04212846FFF7C3FB002877
:100A70000BD080212046FFF73FFD0028F9D041210F
:100A80002046FFF7B7FDFFF7D5FD124810252038A7
:100A90008561104F202038810D4E01202036308195
:100AA00002203081C1020A48FFF7A4FB002800D0D1
:100AB000A8E6B3E65455204B49542053544D3332E5
:100AC00046300D0A000000000100002000380140FF
:100AD0000004004820080048F80A00080000002030
:100AE0001800000016060008100B0008180000206F
:100AF00000040000260600080000000000000000BE
:100B000000000000010203040102030406070809B3
:04000005080000D51A
:00000001FF
