:020000040800F2
:100000000008002089010008F5010008F50100083A
:10001000F5010008F5010008F501000800000000E6
:10002000000000000000000000000000F5010008D2
:10003000F501000800000000F5010008F5010008C6
:10004000F5010008F5010008F5010008F5010008B8
:10005000F5010008F5010008F5010008F5010008A8
:10006000F5010008F5010008F5010008F501000898
:10007000F5010008F5010008F5010008F501000888
:10008000F5010008F5010008F5010008F501000878
:10009000F5010008F5010008F5010008F501000868
:1000A000F5010008F5010008F5010008F501000858
:1000B000F5010008F5010008F5010008F501000848
:1000C000F5010008F5010008F5010008F501000838
:1000D000F5010008F5010008F5010008F501000828
:1000E000F5010008F5010008F5010008F501000818
:1000F000F5010008F5010008F5010008F501000808
:10010000F5010008F5010008F5010008F5010008F7
:10011000F5010008F5010008F5010008F5010008E7
:10012000F5010008F5010008F5010008F5010008D7
:10013000F5010008F5010008F5010008F5010008C7
:10014000F5010008F5010008F5010008F5010008B7
:10015000F5010008F5010008F5010008F5010008A7
:10016000F5010008F5010008F5010008F501000897
:10017000F5010008F5010008F5010008F501000887
:10018000F5010008F501000880B582B000AF40F22B
:10019000A453C0F600037B6040F20003C2F20003E8
:1001A0003B600BE07B681A683B681A603B6803F1B0
:1001B00004033B607B6803F104037B603A6840F210
:1001C0000003C2F200039A42ECD3084808494FF0FA
:1001D00000028842B8BF40F8042BFFF6FAAF00F0E7
:1001E000A9F907F10807BD4680BD00000000002006
:1001F0000000002080B400AFFEE700BF80B483B0F1
:1002000000AF786000BF7B68002B0CBF0023012388
:10021000DBB27A6802F1FF327A60002BF3D107F18A
:100220000C07BD4680BC704780B500AF4FF400633B
:10023000C4F202034FF40062C4F20202526922F0D7
:1002400010025A614FF40063C4F202034FF40062DB
:10025000C4F20202526922F020025A614FF01E00DD
:1002600000F00AF94FF030004FF0000100F06EF896
:100270004FF0050000F000F94FF030004FF00001A2
:1002800000F064F84FF0010000F0F6F84FF00200C3
:100290004FF0000100F01AF84FF028004FF0000175
:1002A00000F014F84FF00C004FF0000100F00EF8D1
:1002B0004FF001004FF0000100F008F84FF0060089
:1002C0004FF0000100F002F880BD00BF80B582B0A1
:1002D00000AF02460B46FA71BB7100F02FF8BB79F4
:1002E000002B0CD14FF40063C4F202034FF4006200
:1002F000C4F20202526922F020025A610BE04FF46C
:100300000063C4F202034FF40062C4F202025269B5
:1003100042F020025A61FB794FEA1313DAB2BB793B
:100320001046194600F012F8FA79BB7910461946C2
:1003300000F00CF807F10807BD4680BD80B500AF9E
:100340004FF0020000F098F880BD00BF80B582B089
:1003500000AF02460B46FA71BB714FF48063C4F2E2
:1003600002034FF48062C4F20202526922F47072F6
:100370005A614FF48063C4F202034FF48062C4F206
:1003800002025169FA794FEA82120A435A61BB7933
:10039000002B0CD14FF40063C4F202034FF400624F
:1003A000C4F20202526922F020025A610BE04FF4BB
:1003B0000063C4F202034FF40062C4F20202526905
:1003C00042F020025A614FF40063C4F202034FF47A
:1003D0000062C4F20202526942F010025A614FF008
:1003E0006400FFF70BFF4FF40063C4F202034FF405
:1003F0000062C4F20202526922F010025A6107F14F
:100400000807BD4680BD00BF80B582B000AF7860F0
:100410000AE07B681B787A6802F101027A6018466C
:100420004FF00101FFF752FF7B681B78002BF0D1E2
:1004300007F10807BD4680BD80B582B000AF034616
:10044000FB71FB79002B12DB012B02DD022B07D0A5
:100450000DE04FF080004FF00001FFF737FF06E09E
:100460004FF0C0004FF00001FFF730FF00BF07F171
:100470000807BD4680BD00BF80B584B000AF78607E
:100480004FF00003FB6007E04FF41670FFF7B6FE75
:10049000FB6803F10103FB60FA687B689A42F3D3BF
:1004A00007F11007BD4680BD80B400AF4FF4605324
:1004B000C4F202034FF001029A604FF46053C4F299
:1004C00002034FF005021A634FF46053C4F20203B3
:1004D0004FF46052C4F20202126842F480321A6091
:1004E00000BF4FF46053C4F202031B6803F40033EF
:1004F000002BF6D04FF48063C4F202034FF0AA52EF
:100500001A604FF40063C4F202034FF4A0621A6051
:100510004FF48063C4F202034FF02A529A604FF402
:100520000063C4F202034FF420629A60BD4680BCAF
:10053000704700BF80B500AFFFF7B6FFFFF774FE4E
:100540004FF00300FFF798FF4FF00100FFF774FF33
:1005500040F28450C0F60000FFF756FF4FF06400F1
:10056000FFF78AFF4FF00200FFF766FF40F294505A
:10057000C0F60000FFF748FF4FF06400FFF77CFF74
:10058000FEE700BF57652061726520686170707971
:1005900000000000746F20746561636820796F75D6
:0405A0000000000057
:0400000508000000EF
:00000001FF
