:020000040800F2
:100000007835012089010008050200080502000872
:1000100005020008050200080502000800000000B3
:10002000000000000000000000000000352800086B
:100030000502000800000000292A0008792A0008AB
:100040000502000805020008050200080502000874
:100050000502000805020008050200080502000864
:100060000502000805020008050200080502000854
:100070000502000805020008050200080502000844
:100080000502000805020008050200080502000834
:100090000502000805020008050200080502000824
:1000A0000502000805020008050200080502000814
:1000B0000502000805020008050200080502000804
:1000C00005020008050200080502000805020008F4
:1000D00005020008050200080502000805020008E4
:1000E00005020008050200080502000805020008D4
:1000F00005020008050200080502000805020008C4
:1001000005020008050200080502000805020008B3
:1001100005020008050200080502000805020008A3
:100120000502000805020008050200080502000893
:100130000502000805020008050200080502000883
:100140000502000805020008050200080502000873
:100150000502000805020008050200080502000863
:100160000502000805020008050200080502000853
:100170000502000805020008050200080502000843
:10018000050200080502000880B582B000AF43F206
:100190007A13C0F600037B6040F20003C2F2000352
:1001A0003B600BE07B681A683B681A603B6803F1B0
:1001B00004033B607B6803F104037B603A6840F210
:1001C0002003C2F200039A42ECD30B480B494FF0D4
:1001D00000028842B8BF40F8042BFFF6FAAFDFF800
:1001E0002000016841F47001016000F0D1F907F1CD
:1001F0000807BD4680BD000020000020742D0120AE
:1002000088ED00E080B400AFFEE700BF80B582B0AB
:1002100000AF4FF002004FF0010100F093FA4FF4ED
:100220007C733B604FF001033B714FF00003BB71E7
:100230004FF002037B714FF00003FB713B464FF41C
:100240008060C4F20200194601F050FD07F1080772
:10025000BD4680BD80B483B000AF786000BF7B68CE
:10026000002B0CBF00230123DBB27A6802F1FF32BE
:100270007A60002BF3D107F10C07BD4680BC7047B4
:1002800080B500AF4FF00003C4F202034FF000024C
:10029000C4F20202526922F480725A614FF00003E4
:1002A000C4F202034FF00002C4F20202526922F4C7
:1002B00000725A614FF01E0000F00AF94FF0300052
:1002C0004FF0000100F06EF84FF0050000F000F96B
:1002D0004FF030004FF0000100F064F84FF00100E3
:1002E00000F0F6F84FF002004FF0000100F01AF8AD
:1002F0004FF028004FF0000100F014F84FF00C0010
:100300004FF0000100F00EF84FF001004FF0000137
:1003100000F008F84FF006004FF0000100F002F87E
:1003200080BD00BF80B582B000AF02460B46FA71B7
:10033000BB7100F02FF8BB79002B0CD14FF00003FC
:10034000C4F202034FF00002C4F20202526922F426
:1003500000725A610BE04FF00003C4F202034FF049
:100360000002C4F20202526942F400725A61FB793F
:100370004FEA1313DAB2BB791046194600F012F8AF
:10038000FA79BB791046194600F00CF807F1080716
:10039000BD4680BD80B500AF4FF0020000F098F878
:1003A00080BD00BF80B582B000AF02460B46FA7137
:1003B000BB714FF40063C4F202034FF40062C4F255
:1003C0000202526922F470725A614FF40063C4F25F
:1003D00002034FF40062C4F202025169FA794FEA53
:1003E00082120A435A61BB79002B0CD14FF00003F3
:1003F000C4F202034FF00002C4F20202526922F476
:1004000000725A610BE04FF00003C4F202034FF098
:100410000002C4F20202526942F400725A614FF0C3
:100420000003C4F202034FF00002C4F20202526958
:1004300042F480725A614FF06400FFF70BFF4FF0F7
:100440000003C4F202034FF00002C4F20202526938
:1004500022F480725A6107F10807BD4680BD00BFD3
:1004600080B582B000AF78600AE07B681B787A685C
:1004700002F101027A6018464FF00101FFF752FFC6
:100480007B681B78002BF0D107F10807BD4680BDC3
:1004900080B582B000AF0346FB71FB79002B12DB05
:1004A000012B02DD022B07D00DE04FF080004FF052
:1004B0000001FFF737FF06E04FF0C0004FF00001EA
:1004C000FFF730FF00BF07F10807BD4680BD00BF42
:1004D00080B584B000AF78604FF00003FB6007E0A8
:1004E0004FF41670FFF7B6FEFB6803F10103FB60E3
:1004F000FA687B689A42F3D307F11007BD4680BDC6
:1005000080B500AF4FF46053C4F202034FF0010214
:100510009A604FF001004FF0010100F013F94FF025
:1005200004004FF0010100F00DF94FF46053C4F2E4
:1005300002034FF46052C4F20202126842F48032A5
:100540001A6000BF4FF46053C4F202031B6803F447
:100550000033002BF6D04FF40063C4F202034FF4D3
:10056000AA221A604FF00003C4F202034FF4A02243
:100570001A604FF40063C4F202034FF42A229A6017
:100580004FF00003C4F202034FF420229A6080BDB2
:1005900080B584B004AF4FF001004FF006014FF07A
:1005A000000201F05DFD024642F67053C2F2010303
:1005B0001A60FFF72BFEFFF7A3FFFFF761FE4FF076
:1005C000000300934FF0000301934FF000030293E8
:1005D0004FF00003039340F23560C0F6000043F291
:1005E0001C11C0F600014FF082024FF0000300F032
:1005F000B9FB4FF0000300934FF0000301934FF05D
:10060000000302934FF00003039340F2DD60C0F655
:10061000000043F22411C0F600014FF082024FF0B7
:10062000000300F09FFB00F07DFC4FF00003184634
:10063000BD4680BD80B588B000AF78604FF0100334
:10064000FB614FF48063C4F20203FA695A614FF40C
:10065000FA70FFF73DFF4FF04003BB614FF480633A
:10066000C4F20203BA695A614FF4FA70FFF730FF1F
:100670004FF480737B614FF48063C4F202037A69A4
:100680005A614FF4FA70FFF723FF4FF400733B6198
:100690004FF48063C4F202033A695A614FF4FA706E
:1006A000FFF716FF4FF08003FB604FF48063C4F246
:1006B0000203FA685A614FF4FA70FFF709FF4FF02E
:1006C0002003BB604FF48063C4F20203BA685A612E
:1006D0004FF4FA70FFF7FCFEB0E700BF80B584B0BE
:1006E00000AF78604FF00100FFF7D2FE43F2281010
:1006F000C0F60000FFF7B4FE4FF00C004FF0000111
:10070000FFF710FE4FF00200FFF7C2FE43F2441065
:10071000C0F60000FFF7A4FE4FF00003FB600DE001
:100720004FF018004FF00001FFF7FCFD4FF0FA000A
:10073000FFF7CEFEFB6803F10103FB60FB68082BAB
:10074000EEDDCFE780B483B000AF78600B46FB707E
:10075000FB78002B0CD04FF46053C4F202034FF42B
:100760006052C4F20202116B7A680A431A630DE008
:100770004FF46053C4F202034FF46052C4F2020219
:10078000116B7A686FEA02020A401A6307F10C07DC
:10079000BD4680BC704700BF80B586B004AF4FF047
:1007A00000037B6000F0A4FA40F25003C2F20003A1
:1007B0001B68002B1AD04FF0020300934FF0000388
:1007C00001934FF0000302934FF00003039340F6B0
:1007D0002D10C0F6000043F25011C0F600014FF496
:1007E00082724FF0000300F0BDFA78607B68002B46
:1007F00002D102F00BF9FEE77B68184607F1080703
:10080000BD4680BD80B588B000AFF860B9607A6041
:100810003B604FF00003FB6140F25003C2F2000363
:100820001B68002B3DD0BB683B617B687B61FB682C
:10083000BB613B68002B25D101F078F90346012B01
:100840000FD140F25003C2F200031A6807F11003FF
:1008500010461946BA6A4FF0000301F049FCF861EE
:100860001FE040F25003C2F200031A6807F11003C0
:10087000104619464FF000024FF0000301F038FC1B
:10088000F8610EE040F25003C2F200031A6807F16B
:100890001003104619463A684FF0000301F0E4FCDB
:1008A000F861FB69184607F12007BD4680BD00BF0F
:1008B00080B586B002AF7860396040F24803C2F27A
:1008C00000031B68DB68DB68FB60FB6803F1040363
:1008D000184601F039FBFB68DB69012B1ED1FB6870
:1008E0009A697B68D318F86819463A687B6800F003
:1008F000BFF80346012B11D14FF000030093F868B5
:100900004FF000017A684FF00003FFF77BFFB860FB
:10091000BB68002B02D102F079F8FEE7FB685B6A46
:10092000F868984707F11007BD4680BD80B584B0D0
:1009300000AF786007F10803184600F043F8F8604C
:10094000BB68F868194600F003F800F0DBF8F1E73F
:1009500080B584B000AF7860396000F027FB07F104
:100960000803184600F058F8F860BB68002B21D146
:100970003B68002B0AD17A68FB689A4206D800F0DF
:1009800027FB7868F968FFF793FF17E040F2500300
:10099000C2F200031A687968FB68CB1A1046194640
:1009A00001F0CEFE00F014FB0346002B05D101F050
:1009B000EDFF02E000F00CFB00E000BF07F11007C4
:1009C000BD4680BD80B485B000AF786040F248037A
:1009D000C2F200031B681B68002B14BF0023012315
:1009E000DBB21A467B681A607B681B68002B08D153
:1009F00040F24803C2F200031B68DB681B68FB601F
:100A000002E04FF00003FB60FB68184607F1140793
:100A1000BD4680BC704700BF80B584B000AF786031
:100A200000F090FBF86040F25403C2F200031B6830
:100A3000FA689A420CD240F25403C2F200031B68D7
:100A4000184600F0E1F87B684FF001021A6003E0FD
:100A50007B684FF000021A6040F25403C2F20003B8
:100A6000FA681A60FB68184607F11007BD4680BD9A
:100A700080B586B000AFF860B9607A603B604FF037
:100A800000037B61FB68BA685A60FB68FA681A6108
:100A9000BA687B689A4217D87A683B68D21AFB68B2
:100AA0009B699A4203D34FF001037B6124E040F23B
:100AB0004C03C2F200031A68FB6803F104031046FA
:100AC000194601F007FA17E07A683B689A4207D2A4
:100AD000BA683B689A4203D34FF001037B610BE095
:100AE00040F24803C2F200031A68FB6803F10403F2
:100AF0001046194601F0EEF97B69184607F1180710
:100B0000BD4680BD80B58AB002AF66E03B69FB613F
:100B1000FB695B69002B05D0FB6903F104031846F0
:100B200001F012FA07F104031846FFF775FFB861E8
:100B3000BB68032B4ED801A252F823F04D0B0008DE
:100B4000D50B0008A30B0008CD0B0008FA68FB6961
:100B50009B69D218FB68F8691146BA69FFF788FFEC
:100B60000346012B38D1FB695B6AF8699847FB693A
:100B7000DB69012B30D1FA68FB699B69D3184FF010
:100B800000020092F8694FF000011A464FF000038E
:100B9000FFF738FE78617B69002B1DD101F036FF2D
:100BA000FEE7FA68FB699A61FB699B69002B02D139
:100BB00001F02CFFFEE7FB699A69BB69D318F8695D
:100BC0001946BA69BB69FFF753FF06E0F86902F0FE
:100BD00093F802E000BF00E000BF40F25003C2F211
:100BE00000031A6807F10803104619464FF0000287
:100BF0004FF0000301F0ACFB0346002B86D107F158
:100C00002007BD4680BD00BF80B58AB002AF7860C6
:100C10004BE040F24803C2F200031B68DB681B682C
:100C2000FB6140F24803C2F200031B68DB68DB682B
:100C3000BB61BB6903F10403184601F085F9BB6988
:100C40005B6AB8699847BB69DB69012B2DD1BB6929
:100C50009A69FB69D3187B617A69FB699A4212D958
:100C6000BB697A695A60BB69BA691A6140F2480384
:100C7000C2F200031A68BB6903F104031046194667
:100C800001F028F911E04FF000030093B8694FF02C
:100C90000001FA694FF00003FFF7B4FD38613B69CA
:100CA000002B02D101F0B2FEFEE740F24803C2F28F
:100CB00000031B681B68002BABD140F24803C2F253
:100CC00000031B68FB6040F24C03C2F200031A6889
:100CD00040F24803C2F200031A6040F24C03C2F231
:100CE0000003FA681A6007F12007BD4680BD00BF07
:100CF00080B500AF01F05AFE40F25003C2F200038B
:100D00001B68002B2BD140F22000C2F2000001F042
:100D10008FF840F23400C2F2000001F089F840F28E
:100D20004803C2F2000340F22002C2F200021A603D
:100D300040F24C03C2F2000340F23402C2F200025D
:100D40001A604FF00A004FF00C014FF0000201F062
:100D500087F9024640F25003C2F200031A6001F024
:100D60003BFE80BD80B58AB002AFF860B9603B60E1
:100D70001346FB80FB68002B02D101F047FEFEE723
:100D8000BB6A042B02D901F041FEFEE7FB8818463E
:100D9000396B00F073FEB861BB69002B00F0A380D3
:100DA000BB691A6BFB8803F1FF334FEA8303D31847
:100DB0007B617B6923F007037B617B6903F0070399
:100DC000002B02D001F022FEFEE7FB880093B869F9
:100DD000B968BA6A7B6B00F01BFD7869F9683A68FC
:100DE00001F0DEFC0246BB691A60FB6A002B02D0F0
:100DF000FB6ABA691A6001F0D9FD40F23013C2F201
:100E000000031B6803F1010240F23013C2F2000339
:100E10001A6040F25803C2F200031B68002B0FD186
:100E200040F25803C2F20003BA691A6040F230136C
:100E3000C2F200031B68012B18D100F039FD15E048
:100E400040F23C13C2F200031B68002B0ED140F2AB
:100E50005803C2F200031B68DA6ABB6A9A4205D8DB
:100E600040F25803C2F20003BA691A6040F250130C
:100E7000C2F200031B6803F1010240F25013C2F2F8
:100E800000031A6040F25013C2F200031A68BB69F3
:100E90001A64BB69DA6A40F23813C2F200031B68B5
:100EA0009A4206D9BB69DA6A40F23813C2F20003EB
:100EB0001A60BB69DA6A13464FEA83039B184FEA4C
:100EC000830340F25C02C2F200029A18BB6903F18C
:100ED00004031046194600F0D9FF4FF00103FB61EF
:100EE00001F07AFD02E04FF0FF33FB61FB69012B5B
:100EF00011D140F23C13C2F200031B68002B0AD050
:100F000040F25803C2F200031B68DA6ABB6A9A42D5
:100F100001D201F03BFDFB69184607F12007BD46F1
:100F200080BD00BF80B586B004AF4FF000030093D2
:100F30004FF0000301934FF0000302934FF00003C2
:100F4000039341F2ED70C0F6000043F25811C0F671
:100F500000014FF082024FF00003FFF703FF7860BB
:100F60007B68012B02D1FFF717FC78607B68012BAF
:100F700012D101F04BFD40F23C13C2F200034FF0DE
:100F800001021A6040F23413C2F200034FF0000273
:100F90001A6001F067FC05E07B68002B02D101F0CC
:100FA00035FDFEE707F10807BD4680BD80B400AF00
:100FB00040F24013C2F200031B6803F1010240F249
:100FC0004013C2F200031A60BD4680BC704700BFE8
:100FD00080B582B000AF4FF000037B6040F2401359
:100FE000C2F200031B68002B02D101F00FFDFEE7E7
:100FF00001F0DCFC40F24013C2F200031B6803F175
:10100000FF3240F24013C2F200031A6040F2401374
:10101000C2F200031B68002B40F08B8040F23013BB
:10102000C2F200031B68002B00F0838047E040F20F
:10103000F003C2F20003DB68DB683B603B6803F14E
:101040001803184600F080FF3B6803F104031846BC
:1010500000F07AFF3B68DA6A40F23813C2F200030C
:101060001B689A4206D93B68DA6A40F23813C2F22A
:1010700000031A603B68DA6A13464FEA83039B1841
:101080004FEA830340F25C02C2F200029A183B6806
:1010900003F104031046194600F0F8FE3B68DA6AD3
:1010A00040F25803C2F200031B68DB6A9A4206D37F
:1010B00040F24813C2F200034FF001021A6040F2FE
:1010C000F003C2F200031B68002BB0D140F24413BE
:1010D000C2F200031B68002B1FD017E000F046F897
:1010E0000346002B06D040F24813C2F200034FF033
:1010F00001021A6040F24413C2F200031B6803F1BC
:10110000FF3240F24413C2F200031A6040F244136B
:10111000C2F200031B68002BE0D140F24813C2F278
:1011200000031B68012B04D14FF001037B6001F029
:101130002DFC01F051FC7B68184607F10807BD46FD
:1011400080BD00BF80B582B000AF01F02FFC40F23F
:101150003413C2F200031B687B6001F03DFC7B6826
:10116000184607F10807BD4680BD00BF80B586B0B0
:1011700000AF4FF000037B6140F24013C2F2000366
:101180001B68002B40F0028140F23413C2F20003CE
:101190001B6803F1010240F23413C2F200031A602B
:1011A00040F23413C2F200031B683B613B69002B21
:1011B00052D140F2E803C2F200031B681B68002B07
:1011C00002D001F023FCFEE740F2E803C2F2000384
:1011D0001B68FB6040F2EC03C2F200031A6840F2A5
:1011E000E803C2F200031A6040F2EC03C2F200030B
:1011F000FA681A6040F24C13C2F200031B6803F154
:10120000010240F24C13C2F200031A6040F2E803FC
:10121000C2F200031B681B68002B02D14FF00103D0
:1012200001E04FF00003002B07D040F20003C2F2B0
:1012300000034FF0FF321A600EE040F2E803C2F202
:1012400000031B68DB68DB68BB60BB685A6840F260
:101250000003C2F200031A6040F20003C2F200036E
:101260001B683A699A4270D300E000BF40F2E8037D
:10127000C2F200031B681B68002B02D14FF0010370
:1012800001E04FF00003002B07D040F20003C2F250
:1012900000034FF0FF321A6057E040F2E803C2F259
:1012A00000031B68DB68DB68BB60BB685B687B6056
:1012B0003A697B689A4206D240F20003C2F2000308
:1012C0007A681A6041E0BB6803F10403184600F035
:1012D0003BFEBB689B6A002B05D0BB6803F118037B
:1012E000184600F031FEBB68DA6A40F23813C2F2E9
:1012F00000031B689A4206D9BB68DA6A40F23813C9
:10130000C2F200031A60BB68DA6A13464FEA83032D
:101310009B184FEA830340F25C02C2F200029A1863
:10132000BB6803F104031046194600F0AFFDBB682B
:10133000DA6A40F25803C2F200031B68DB6A9A4281
:1013400093D34FF001037B618FE740F25803C2F261
:1013500000031B68D96A40F25C02C2F200020B462D
:101360004FEA83035B184FEA8303D3181B68012BF2
:1013700002D94FF001037B6140F24413C2F2000333
:101380001B68002B10D101F0EFFB0DE040F244137D
:10139000C2F200031B6803F1010240F24413C2F2DF
:1013A00000031A6001F0E0FB40F24813C2F20003B0
:1013B0001B68002B02D04FF001037B617B6918464C
:1013C00007F11807BD4680BD80B582B000AF40F27E
:1013D0004013C2F200031B68002B07D040F24813F1
:1013E000C2F200034FF001021A609AE040F2481383
:1013F000C2F200034FF000021A6040F25803C2F23A
:1014000000031B681A6840F25803C2F200031B680D
:101410001B6B9A420FD840F25803C2F200031A68BD
:1014200040F25803C2F200031B6803F13403104674
:10143000194601F09FFB40F25803C2F200031B68FB
:101440001B6B184643F26011C0F600014FF0140206
:1014500001F0D0FC0346002B26D040F25803C2F224
:1014600000031A6840F25803C2F200031B6803F13C
:1014700034031046194601F07DFB15E040F23813A5
:10148000C2F200031B68002B02D101F0BFFAFEE795
:1014900040F23813C2F200031B6803F1FF3240F23E
:1014A0003813C2F200031A6040F23813C2F200038C
:1014B000196840F25C02C2F200020B464FEA830355
:1014C0005B184FEA8303D3181B68002BD6D040F279
:1014D0003813C2F200031A6813464FEA83039B18BD
:1014E0004FEA830340F25C02C2F200029B187B6069
:1014F0007B685B685A687B685A607B685A687B685F
:1015000003F108039A4204D17B685B685A687B68E0
:101510005A607B685B68DA6840F25803C2F20003E5
:101520001A6007F10807BD4680BD00BF80B584B0D2
:1015300000AF786039607B68002B02D101F066FA59
:10154000FEE740F25803C2F200031B6803F11803E0
:101550007868194600F0BEFC40F25803C2F200035E
:101560001B6803F10403184600F0EEFC3B68B3F17E
:10157000FF3F0ED140F25803C2F200031B6803F193
:10158000040340F21C10C2F20000194600F07EFC79
:101590000AE040F23413C2F200031A683B68D31821
:1015A000FB60F86800F024FA07F11007BD4680BD23
:1015B00080B584B000AF786039607B68002B02D1C1
:1015C00001F024FAFEE740F25803C2F200031B6860
:1015D00003F118037868194600F058FC40F25803EC
:1015E000C2F200031B6803F10403184600F0ACFCD0
:1015F00040F23413C2F200031A683B68D318FB6050
:10160000F86800F0F5F907F11007BD4680BD00BF8E
:1016100080B584B000AF78607B68DB68DB68BB6056
:10162000BB68002B02D101F0F1F9FEE7BB6803F1C2
:101630001803184600F088FC40F24013C2F2000381
:101640001B68002B2AD1BB6803F10403184600F085
:101650007BFCBB68DA6A40F23813C2F200031B68F5
:101660009A4206D9BB68DA6A40F23813C2F2000324
:101670001A60BB68DA6A13464FEA83039B184FEA85
:10168000830340F25C02C2F200029A18BB6803F1C5
:1016900004031046194600F0F9FB09E0BB6803F1AA
:1016A000180340F2F000C2F20000194600F0EEFB11
:1016B000BB68DA6A40F25803C2F200031B68DB6AB7
:1016C0009A420AD34FF00103FB6040F24813C2F282
:1016D00000034FF001021A6002E04FF00003FB60CC
:1016E000FB68184607F11007BD4680BD80B582B083
:1016F00000AF78607B68002B02D101F087F9FEE72C
:1017000040F24C13C2F200031A687B681A6040F280
:101710003413C2F200031A687B685A6007F10807A5
:10172000BD4680BD80B584B000AF786039607B680D
:10173000002B02D101F06AF9FEE73B68002B02D1D1
:1017400001F064F9FEE701F031F940F23413C2F21E
:1017500000031B68BB603B681B68B3F1FF3F03D10C
:101760004FF00003FB602CE07B681A6840F24C13DA
:10177000C2F200031B689A4208D07B685A68BB68B3
:101780009A4203D84FF00103FB601AE07B685B6864
:10179000BA68D21A3B681B689A420FD23B681A6833
:1017A0007B685968BB68CB1AD2183B681A607868A6
:1017B000FFF79CFF4FF00003FB6002E04FF00103D6
:1017C000FB6001F009F9FB68184607F11007BD46F8
:1017D00080BD00BF80B400AF40F24813C2F20003E6
:1017E0004FF001021A60BD4680BC704780B582B0E0
:1017F00000AF786000F0AEF840F25C03C2F2000384
:101800001B68012B01D901F0C1F801F0A7F9F1E73C
:1018100080B586B000AFF860B9607A603B604FF089
:1018200000037B6113E0BA687B69D3181A78F96802
:101830007B69CB1803F130031A71BA687B69D3183E
:101840001B78002B07D07B6903F101037B617B6967
:10185000092BE8D900E000BFFB684FF0000283F8D5
:101860003D207B68042B02D94FF004037B60FB68AA
:101870007A68DA62FB687A689A64FB6803F10403A9
:10188000184600F0F5FAFB6803F11803184600F05B
:10189000EFFAFB68FA681A617B68C3F10502FB681E
:1018A0009A61FB68FA685A6207F11807BD4680BD65
:1018B00080B582B000AF4FF000037B6012E07A6821
:1018C00013464FEA83039B184FEA830340F25C02FE
:1018D000C2F200029B18184600F0AAFA7B6803F1D6
:1018E00001037B607B68042BE9D940F2C000C2F29F
:1018F000000000F09DFA40F2D400C2F2000000F0B7
:1019000097FA40F2F000C2F2000000F091FA40F2C3
:101910000410C2F2000000F08BFA40F21C10C2F278
:10192000000000F085FA40F2E803C2F2000340F242
:10193000C002C2F200021A6040F2EC03C2F20003DD
:1019400040F2D402C2F200021A6007F10807BD4655
:1019500080BD00BF80B582B000AF3DE0FFF726FB41
:1019600040F20413C2F200031B68002B14BF0023D3
:101970000123DBB27B60FFF72BFB7B68002B2BD1B5
:1019800001F014F840F20413C2F20003DB68DB68D4
:101990003B603B6803F10403184600F0D5FA40F2BF
:1019A0003013C2F200031B6803F1FF3240F2301320
:1019B000C2F200031A6040F21813C2F200031B685F
:1019C00003F1FF3240F21813C2F200031A6001F073
:1019D00003F8386800F08AF840F21813C2F20003E6
:1019E0001B68002BBAD107F10807BD4680BD00BFB8
:1019F00080B582B000AF786040F25803C2F20003B5
:101A00001B687A685A6040F23413C2F200031B6804
:101A10007A689A4210D240F2EC03C2F200031A68CC
:101A200040F25803C2F200031B6803F1040310469E
:101A3000194600F04FFA1DE040F2E803C2F200033D
:101A40001A6840F25803C2F200031B6803F1040352
:101A50001046194600F03EFA40F20003C2F20003BD
:101A60001B687A689A4205D240F20003C2F2000372
:101A70007A681A6007F10807BD4680BD80B584B05A
:101A800000AF03463960FB804FF04C0001F080F856
:101A9000F860FB68002B23D03B68002B07D1FB8844
:101AA0004FEA8303184601F073F8034600E03B68F1
:101AB000FA681363FB681B6B002B06D1F86801F012
:101AC0001BF94FF00003FB600AE0FB681A6BFB8810
:101AD0004FEA830310464FF0A5011A4601F088FA39
:101AE000FB68184607F11007BD4680BD80B582B07F
:101AF00000AF78607B681B6B184601F0FDF87868D2
:101B000001F0FAF807F10807BD4680BD80B483B044
:101B100000AF40F25803C2F200031B687B607B6891
:101B2000184607F10C07BD4680BC704780B483B0EF
:101B300000AF40F23C13C2F200031B68002B03D13C
:101B40004FF000037B600DE040F24013C2F200034F
:101B50001B68002B03D14FF001037B6002E04FF0C4
:101B600002037B607B68184607F10C07BD4680BC0A
:101B7000704700BF80B584B000AF78607B68FB60C1
:101B80007B68002B66D0FB68DA6A40F25803C2F229
:101B900000031B68DB6A9A425CD240F25803C2F22F
:101BA00000031B68DB6AC3F10502FB689A61FB68EE
:101BB0005969FB68DA6A13464FEA83039B184FEAB8
:101BC000830340F25C02C2F200029B18994202D1E8
:101BD0004FF0010301E04FF00003002B32D0FB680F
:101BE00003F10403184600F0AFF940F25803C2F2C3
:101BF00000031B68DA6AFB68DA62FB68DA6A40F2A3
:101C00003813C2F200031B689A4206D9FB68DA6AED
:101C100040F23813C2F200031A60FB68DA6A134616
:101C20004FEA83039B184FEA830340F25C02C2F23F
:101C300000029A18FB6803F104031046194600F0ED
:101C400025F907E040F25803C2F200031B68DA6A84
:101C5000FB68DA6207F11007BD4680BD80B584B02D
:101C600000AF78607B68FB607B68002B39D0FB6835
:101C7000DA6AFB689B6C9A4233D0FB6803F1040379
:101C8000184600F061F9FB689A6CFB68DA62FB6841
:101C9000DB6AC3F10502FB689A61FB68DA6A40F20D
:101CA0003813C2F200031B689A4206D9FB68DA6A4D
:101CB00040F23813C2F200031A60FB68DA6A134676
:101CC0004FEA83039B184FEA830340F25C02C2F29F
:101CD00000029A18FB6803F104031046194600F04D
:101CE000D5F807F11007BD4680BD00BF80B487B0AE
:101CF00000AF786039604FF000037B614FF0000364
:101D00003B614FF00003FB604FF000037B6186E016
:101D10007B694FF0010202FA03F33B613B681A68EA
:101D20003B691340FB60FA683B699A4273D17B6858
:101D30001A687B694FEA43034FF0030101FA03F38A
:101D40006FEA03031A407B681A607B681A683B6875
:101D50001B7919467B694FEA430301FA03F31A43DF
:101D60007B681A603B681B79012B03D03B681B79A9
:101D7000022B34D17B689A687B694FEA43034FF0AA
:101D8000030101FA03F36FEA03031A407B689A60C8
:101D90007B689A683B685B7919467B694FEA430325
:101DA00001FA03F31A437B689A607B685A687B697F
:101DB0009BB24FF0010101FA03F36FEA03031A40EB
:101DC0007B685A607B685A683B689B7919467B69D7
:101DD0009BB201FA03F39BB21A437B685A607B689B
:101DE000DA687B699BB24FEA43034FF0030101FAC3
:101DF00003F36FEA03031A407B68DA607B68DA68F2
:101E00003B68DB7919467B694FEA430301FA03F328
:101E10001A437B68DA607B6903F101037B617B69AC
:101E20000F2B7FF675AF07F11C07BD4680BC7047CE
:101E300080B483B000AF78607B6803F108027B68F0
:101E40005A607B684FF0FF329A607B6803F10802AA
:101E50007B68DA607B6803F108027B681A617B6843
:101E60004FF000021A6007F10C07BD4680BC7047B6
:101E700080B483B000AF78607B684FF000021A61D5
:101E800007F10C07BD4680BC704700BF80B485B029
:101E900000AF786039607B685B68FB603B68FA681C
:101EA0005A60FB689A683B689A60FB689B683A686E
:101EB0005A60FB683A689A603B687A681A617B6886
:101EC0001B6803F101027B681A6007F11407BD4625
:101ED00080BC704780B485B000AF786039603B68E3
:101EE0001B68BB60BB68B3F1FF3F03D17B681B6914
:101EF000FB600DE07B6803F10803FB6002E0FB6818
:101F00005B68FB60FB685B681A68BB689A42F6D93D
:101F1000FB685A683B685A603B685B683A689A603D
:101F20003B68FA689A60FB683A685A603B687A686E
:101F30001A617B681B6803F101027B681A6007F174
:101F40001407BD4680BC704780B485B000AF786090
:101F50007B685B687A6892689A607B689B687A683D
:101F600052685A607B681B69FB60FB685A687B6833
:101F70009A4203D17B689A68FB685A607B684FF08D
:101F800000021A61FB681B6803F1FF32FB681A60EC
:101F9000FB681B68184607F11407BD4680BC7047F4
:101FA00080B584B000AF786039607B68FB60FB6807
:101FB000002B02D100F02AFDFEE700F0F7FCFB68E1
:101FC0001A68FB68DB6BF968096C01FB03F3D21834
:101FD000FB685A60FB684FF000029A63FB681A685E
:101FE000FB689A60FB681A68FB68DB6B03F1FF33E0
:101FF000F968096C01FB03F3D218FB68DA60FB682F
:102000004FF0FF325A64FB684FF0FF329A643B682E
:10201000002B0FD1FB681B69002B17D0FB6803F165
:1020200010031846FFF7F4FA0346012B0ED100F017
:10203000ADFC0BE0FB6803F110031846FFF7F8FE58
:10204000FB6803F124031846FFF7F2FE00F0C4FC1E
:102050004FF00103184607F11007BD4680BD00BFD1
:1020600080B588B000AFF860B9601346FB714FF0DF
:102070000003FB61FB68002B2DD04FF0500000F0F7
:1020800087FDB861BB69002B25D0FB68BA6802FBED
:1020900003F303F101037B61786900F079FD0246E7
:1020A000BB691A60BB691B68002B11D0BB69FA6859
:1020B000DA63BB69BA681A64B8694FF00101FFF7C7
:1020C0006FFFBB69FA7983F84D20BB69FB6102E0C1
:1020D000B86900F011FEFB69002B02D100F096FCFC
:1020E000FEE7FB69184607F12007BD4680BD00BF2B
:1020F00080B588B000AFF860B9607A603B604FF09F
:102100000003FB61FB68BB61BB69002B02D100F0DF
:102110007DFCFEE7BB68002B03D1BB691B6C002B69
:1021200002D14FF0010301E04FF00003002B02D178
:1021300000F06CFCFEE73B68022B03D1BB69DB6B54
:10214000012B02D14FF0010301E04FF00003002BFF
:1021500003D100F05BFCFEE700BF00F027FCBB6989
:102160009A6BBB69DB6B9A4202D33B68022B18D196
:10217000B869B9683A6800F0C7F9BB695B6A002BB7
:102180000AD0BB6903F124031846FFF741FA03465E
:10219000012B01D100F0FAFB00F01EFC4FF001030F
:1021A0005DE07B68002B04D100F016FC4FF00003CB
:1021B00055E0FB69002B07D107F110031846FFF724
:1021C00095FA4FF00103FB6100F006FCFEF7EEFE0E
:1021D00000F0ECFBBB695B6CB3F1FF3F03D1BB6963
:1021E0004FF000025A64BB699B6CB3F1FF3F03D10F
:1021F000BB694FF000029A6400F0EEFB07F1100299
:1022000007F1040310461946FFF78CFA0346002B2A
:102210001ED1B86900F078FA0346002B12D0BB69D2
:1022200003F110027B6810461946FFF77FF9B86981
:1022300000F000FAFEF7CCFE0346002B8CD100F034
:10224000A5FB89E7B86900F0F5F9FEF7C1FE83E761
:10225000B86900F0EFF9FEF7BBFE4FF00003184637
:1022600007F12007BD4680BD80B588B000AFF8609B
:10227000B9607A603B60FB68BB61BB69002B02D12F
:1022800000F0C4FBFEE7BB68002B03D1BB691B6CED
:10229000002B02D14FF0010301E04FF00003002BAF
:1022A00002D100F0B3FBFEE73B68022B03D1BB6910
:1022B000DB6B012B02D14FF0010301E04FF0000373
:1022C000002B02D100F0A2FBFEE700F015FC00F0AD
:1022D0009DFB7861BB699A6BBB69DB6B9A4202D349
:1022E0003B68022B28D1B869B9683A6800F00CF94C
:1022F000BB699B6CB3F1FF3F14D1BB695B6A002BD8
:1023000016D0BB6903F124031846FFF781F9034691
:10231000002B0DD07B68002B0AD07B684FF00102A8
:102320001A6005E0BB699B6C03F10102BB699A640A
:102330004FF00103FB6102E04FF00003FB6178699D
:1023400000F06EFBFB69184607F12007BD4680BD13
:1023500080B58AB000AFF860B9607A603B604FF03A
:1023600000037B62FB683B623B6A002B02D100F0FA
:102370004DFBFEE7BB68002B03D13B6A1B6C002BB7
:1023800002D14FF0010301E04FF00003002B03D115
:1023900000F03CFBFEE700BF00F008FB3B6A9B6BD4
:1023A000002B3FD03B6ADB68FB61386AB96800F0FC
:1023B00019F93B68002B1ED13B6A9B6B03F1FF327E
:1023C0003B6A9A633B6A1B68002B04D1FFF79EFBB4
:1023D00002463B6A5A603B6A1B69002B1DD03B6A70
:1023E00003F110031846FFF713F90346012B14D12C
:1023F00000F0CCFA11E03B6AFA69DA603B6A5B6A8A
:10240000002B0AD03B6A03F124031846FFF700F9BA
:102410000346002B01D000F0B9FA00F0DDFA4FF0CE
:1024200001036BE07B68002B04D100F0D5FA4FF07C
:10243000000363E07B6A002B07D107F11403184601
:10244000FFF754F94FF001037B6200F0C5FAFEF785
:10245000ADFD00F0ABFA3B6A5B6CB3F1FF3F03D11B
:102460003B6A4FF000025A643B6A9B6CB3F1FF3F3A
:1024700003D13B6A4FF000029A6400F0ADFA07F115
:10248000140207F1040310461946FFF74BF90346FF
:10249000002B2CD1386A00F01DF90346002B20D008
:1024A0003B6A1B68002B08D100F080FA3B6A5B682E
:1024B0001846FFF75FFB00F08FFA3B6A03F1240236
:1024C0007B6810461946FFF731F8386A00F0B2F819
:1024D000FEF77EFD0346002B7FF45DAF00F056FA59
:1024E00059E7386A00F0A6F8FEF772FD53E7386A3C
:1024F00000F0A0F8FEF76CFD4FF00003184607F15E
:102500002807BD4680BD00BF80B584B000AFF8602D
:10251000B9607A60FB681B6C002B0DD1FB681B68EF
:10252000002B55D1FB685B681846FFF797FBFB68EB
:102530004FF000025A604BE07B68002B1AD1FB6819
:102540009A68FB681B6C1046B9681A4600F0AEFC2E
:10255000FB689A68FB681B6CD218FB689A60FB6882
:102560009A68FB685B689A4232D3FB681A68FB681A
:102570009A602DE0FB68DA68FB681B6C1046B9684E
:102580001A4600F093FCFB68DA68FB681B6CC3F129
:102590000003D218FB68DA60FB68DA68FB681B6826
:1025A0009A4208D2FB685A68FB681B6CC3F10003AF
:1025B000D218FB68DA607B68022B09D1FB689B6B41
:1025C000002B05D0FB689B6B03F1FF32FB689A631D
:1025D000FB689B6B03F10102FB689A6307F110072C
:1025E000BD4680BD80B582B000AF786039607B6841
:1025F0001B68002B19D07B68DA687B681B6CD218CB
:102600007B68DA607B68DA687B685B689A4203D330
:102610007B681A687B68DA607B68DA687B681B6CA9
:10262000386811461A4600F041FC07F10807BD461C
:1026300080BD00BF80B582B000AF786000F0B6F911
:1026400014E07B685B6A002B15D07B6803F12403E0
:102650001846FEF7DDFF0346002B01D0FFF7BAF85E
:102660007B689B6C03F1FF327B689A647B689B6C90
:10267000002BE6DC00E000BF7B684FF0FF329A647D
:1026800000F0AAF900F092F914E07B681B69002BB6
:1026900015D07B6803F110031846FEF7B9FF034617
:1026A000002B01D0FFF796F87B685B6C03F1FF32DB
:1026B0007B685A647B685B6C002BE6DC00E000BF43
:1026C0007B684FF0FF325A6400F086F907F1080783
:1026D000BD4680BD80B584B000AF786000F066F97B
:1026E0007B689B6B002B03D14FF00103FB6002E082
:1026F0004FF00003FB6000F06FF9FB68184607F12C
:102700001007BD4680BD00BF80B584B000AF7860C3
:1027100000F04CF97B689A6B7B68DB6B9A4203D1C3
:102720004FF00103FB6002E04FF00003FB6000F09C
:1027300053F9FB68184607F11007BD4680BD00BF7E
:1027400080B584B000AF786039607B68FB6000F0D2
:102750002DF9FB685B6CB3F1FF3F03D1FB684FF0D1
:1027600000025A64FB689B6CB3F1FF3F03D1FB6826
:102770004FF000029A6400F02FF9FB689B6B002B6E
:1027800006D1FB6803F1240318463968FEF710FFF1
:10279000F868FFF74FFF07F11007BD4680BD00BF87
:1027A00080B485B000AFF860B9607A60FB68A3F1CF
:1027B0000403FB60FB684FF080721A60FB68A3F1B2
:1027C0000403FB60BA68FB681A60FB68A3F10403AA
:1027D000FB6042F61503C0F60003FA681360FB685D
:1027E000A3F11403FB607A68FB681A60FB68A3F12D
:1027F0000403FB60FB686FF002021A60FB68A3F140
:102800002003FB60FB68184607F11407BD4680BC37
:10281000704700BF80B500AF40F21803C2F200035A
:102820001B68B3F1FF3F02D000F0F0F8FEE700F0C4
:10283000EDF8FEE7054B19680868B0E8F04F80F343
:1028400009884FF0000080F311887047580000207D
:1028500003480068006880F3088862B600DF00BFA4
:1028600008ED00E080B584B000AF4FF46443CEF2D1
:102870000003FB60FB681B78DBB2BB60FB684FF0BA
:10288000FF021A70FB681B78DBB2FB71FB79DBB2CD
:1028900003F05003DAB240F25413C2F200031A708C
:1028A00040F25813C2F200034FF007021A6011E021
:1028B00040F25813C2F200031B6803F1FF3240F2EA
:1028C0005813C2F200031A60FB79DBB24FEA4303EC
:1028D000DBB2FB71FB79DBB2DBB25BB2002BE7DB77
:1028E00040F25813C2F200031B684FEA032240F281
:1028F0005813C2F200031A6040F25813C2F20003E8
:102900001B6803F4E06240F25813C2F200031A603D
:10291000BB68DAB2FB681A704EF62053CEF20003A1
:102920004EF62052CEF20002126842F470021A6093
:102930004EF62053CEF200034EF62052CEF20002A5
:10294000126842F070421A6000F0ACF840F21803CE
:10295000C2F200034FF000021A6000F0C3F84EF616
:102960003473CEF200034EF63472CEF200021268D7
:1029700042F040421A60FFF76BFFFFF74BFF4FF04A
:102980000003184607F11007BD4680BD80B400AFB4
:102990004EF60453CEF200034FF080521A60BFF39C
:1029A0004F8FBFF36F8FBD4680BC704780B500AFBF
:1029B00000F02CF840F21803C2F200031B6803F188
:1029C000010240F21803C2F200031A60BFF34F8FF6
:1029D000BFF36F8F80BD00BF80B500AF40F218031A
:1029E000C2F200031B6803F1FF3240F21803C2F287
:1029F00000031A6040F21803C2F200031B68002BA8
:102A000003D14FF0000000F00BF880BDEFF3118010
:102A10004FF0500181F3118870474FF000031846C2
:102A200080F31188704700BFEFF30980114B1A68DB
:102A30001EF0100F08BF20ED108A20E9F04F106043
:102A40004DF8043D4FF0500080F31188FEF7BCFCB8
:102A50004FF0000080F3118808BC19680868B0E8DE
:102A6000F04F1EF0100F08BFB0EC108A80F30988F9
:102A7000704700BF5800002080B500AFFFF7C6FFC9
:102A8000FEF774FB0346002B06D04EF60453CEF23D
:102A900000034FF080521A604FF00000FFF7C0FFB4
:102AA00080BD00BF80B400AF4EF21403CEF200032D
:102AB00040F20402C2F20002116844F6D352C1F29D
:102AC0006202A2FB01024FEA921202F1FF321A6087
:102AD0004EF21003CEF200034FF007021A60BD461B
:102AE00080BC7047DFF80C00016841F470010160A0
:102AF0007047000088ED00E090B583B000AFEFF3C1
:102B000005847C607B680F2B13D943F27413C0F6E5
:102B100000031A687B68D3181B78FB7040F25413CB
:102B2000C2F200031B78FA789A4202D2FFF76EFFD6
:102B3000FEE74EF60C53CEF200031B6803F4E0628E
:102B400040F25813C2F200031B689A4202D9FFF701
:102B50005DFFFEE707F10C07BD4690BD80B400AFF6
:102B6000BD4680BC704700BF80B400AFBD4680BC8E
:102B7000704700BF80B582B000AF78603960FFF762
:102B800045FFFEE780B500AFFFF740FFFEE700BF5F
:102B900080B588B000AF78604FF000037B61FEF72E
:102BA00005FA42F66C53C2F201031B68002B08D1F0
:102BB00000F0E6F842F66C53C2F201034FF0010256
:102BC0001A607B68002B12D043F27813C0F6000322
:102BD0001B887A68D3187B607B6803F00703002B9F
:102BE00005D07B6823F0070303F108037B607B6853
:102BF000002B74D07A6842F6F733C0F201039A4290
:102C00006DD842F65C53C2F20103BB6142F65C53DD
:102C1000C2F201031B68FB6104E0FB69BB61FB6955
:102C20001B68FB61FB695A687B689A4203D2FB69A7
:102C30001B68002BF1D1FA6942F66453C2F201031A
:102C40009A424CD0BB691A6843F27813C0F600036D
:102C50001B88D3187B61FB691A68BB691A60FB6922
:102C60005A687B68D21A43F27813C0F600031B88B7
:102C70004FEA43039A4225D9FA697B68D318FB606F
:102C8000FB695A687B68D21AFB685A60FB697A68EC
:102C90005A60FB685B68BB6042F65C53C2F201039A
:102CA0003B6102E03B691B683B613B691B685A68FA
:102CB000BB689A42F6D33B691A68FB681A603B69A5
:102CC000FA681A6040F21C03C2F200031A68FB693A
:102CD0005B68D21A40F21C03C2F200031A60FEF7CE
:102CE00077F97B69002B01D1FFF74CFF7B69184610
:102CF00007F12007BD4680BD80B586B000AF786083
:102D00007B683B617B68002B35D043F27813C0F6BB
:102D100000031B88C3F100033A69D3183B613B6988
:102D2000FB60FEF743F9FB685B68BB6042F65C53EF
:102D3000C2F201037B6102E07B691B687B617B69F6
:102D40001B685A68BB689A42F6D37B691A68FB68AD
:102D50001A607B69FA681A60FB685A6840F21C03C3
:102D6000C2F200031B68D21840F21C03C2F2000337
:102D70001A60FEF72DF907F11807BD4680BD00BFA8
:102D800080B483B000AF1A4B23F007037B6042F698
:102D90005C53C2F201037A681A6042F65C53C2F2D5
:102DA00001034FF000025A6042F66453C2F201037D
:102DB00042F6F832C0F201025A6042F66453C2F29F
:102DC00001034FF000021A607B683B603A6842F6EC
:102DD000F833C0F2010353603A6842F66453C2F21A
:102DE0000103136007F10C07BD4680BC704700BFAC
:102DF00064010020032AF0B431D941EA00039C07A2
:102E00002ED106680F68151F031D0C1DBE42C5F3A9
:102E1000800C24D1032D2A461FD9BCF1000F08D005
:102E200025681E682146184604340433AE4211D08A
:102E300015E01846214623680468051D0E1D9C42B6
:102E40000DD12846314635680668043A031D0C1D2D
:102E5000AE4204D1043A032AEBD8214618461AB3ED
:102E600003780C78A3420AD1551E0022EB0714D533
:102E700010F8013F11F8014F0122A3420DD0181B99
:102E800010E010F8013F11F8014FA342F7D110F8FC
:102E9000013F11F8014FA342F1D1AA4202F102020F
:102EA000EFD10020F0BC70471046FBE70F2A2DE958
:102EB000F00340F2958041EA00039B0740F09280C6
:102EC0000C6804604D6845608E68A2F1100386604E
:102ED000CC681D460F2DC460C3F3001601F1100429
:102EE00000F1100322D966B126681E6066685E6034
:102EF000A6689E60E668103DDE60103410330F2D2A
:102F000014D926681E6066685E60A6689E60E668E2
:102F1000DE6026691E6166695E61A6699E61E6697A
:102F2000203DDE61203420330F2DEAD8A2F11003BA
:102F300023F00F0402F00F031034032B00EB0408FE
:102F4000214451D9A3F104090B464FEA990901EB39
:102F5000890C53F8046BC1EB0C0544460CF1040CCE
:102F6000634544F8046BC5F3800512D02DB153F8C6
:102F7000045B634544F8045B0BD01E46254656F8B7
:102F8000047B45F8047B5F68331D67602C1D634537
:102F9000F3D109F101039C00091902F00302444432
:102FA000DAB123460D7803F8015BA218E443141943
:102FB000934204F0010410D02CB111F8014F03F832
:102FC000014B934209D04D781C4604F8015B8D7883
:102FD0005D70631C02319342F5D1BDE8F003704788
:102FE0000446DDE70446DCE744461A46D8E700BF5E
:102FF000F0B48407034600F08E80541E002A00F0CF
:103000008880E507CEB211D41A46671E02F8016B1C
:103010001346154692070FD0002C7AD003F8016BA7
:103020009A073C461D4607D0013CEDE7034603F8EE
:10303000016B9A071D46F7D1032C52D9CEB246EA4E
:1030400006270F2C47EA07432DD9A4F11002174693
:103050000F2FC2F300162B606B60AB60EB6005F1C5
:10306000100216D93EB1103F136053609360D360D5
:1030700010320F2F0DD9203F02F11006136053605C
:103080009360D360136153619361D36120320F2F3A
:10309000F1D8A4F1100222F00F0204F00F04103254
:1030A000032C15441DD9271F3E462A46032E42F8FD
:1030B000043BC7F380070DD927B1043E032E42F825
:1030C000043B07D91746083E47F8043B53603A1DB6
:1030D000032EF7D8231F23F00302131D04F003046B
:1030E000ED18B4B12B46C9B203F8011B2C19ED43FE
:1030F0006219A34202F001050BD01DB103F8011BB8
:10310000A34206D01A4602F8011B5970531CA34271
:10311000F8D1F0BC7047054614468DE74C45444451
:103120004F4E00004C4344004E475559454E204DEC
:10313000494E48204348492020202020202020209C
:1031400020202000434E5654204B394200000000FE
:10315000546D72205376630049444C4500000000D2
:10316000A5A5A5A5A5A5A5A5A5A5A5A5A5A5A5A50F
:0A317000A5A5A5A5F0E300E0080006
:10317A00FFFFFFFF007A030A0000000000000000C2
:10318A000102030406070809AAAAAAAAF82B010041
:0400000508000000EF
:00000001FF
