:020000040800F2
:1000000000200020050400084904000849040008F5
:1000100000000000000000000000000000000000E0
:10002000000000000000000000000000490400087B
:100030000000000000000000490400084904000816
:10004000490400084904000849040008490400085C
:100050004904000815030008490400084904000881
:10006000490400084904000849040008490400083C
:10007000490400084904000849040008490400082C
:100080004904000849040008000000004904000871
:10009000490400084904000849040008490400080C
:1000A00049040008490400084904000849040008FC
:1000B0004904000800000000490400080000000096
:1000C0005FF808F180B582B000AF78600A1CFB1CB5
:1000D0001A70FB1C1B78002B06D0084B074A51698D
:1000E0007A680A435A6106E0044B044A5269796807
:1000F000C9430A405A61BD4602B080BD00100240AB
:1001000080B582B000AF78600A1CFB1C1A70FB1C23
:100110001B78002B06D0084B074A91697A680A437E
:100120009A6106E0044B044A92697968C9430A401F
:100130009A61BD4602B080BD0010024080B584B017
:1001400000AF80239B02181C0121FFF7BBFF3B1C63
:100150000833F0221A603B1C083301221A713B1C41
:10016000083300229A713B1C08330022DA713B1CD1
:10017000083303225A719023DA053B1C0833101C04
:10018000191C00F063F980231B03181C0121FFF7E1
:1001900099FF3B1CF02292001A603B1C01221A714D
:1001A0003B1C00229A713B1C0022DA713B1C03228B
:1001B0005A71044A3B1C101C191C00F047F9BD463B
:1001C00004B080BD0008004880B586B000AF802331
:1001D0009B02181C0121FFF775FF3B1C083301220D
:1001E0001A603B1C083300221A713B1C08330022A2
:1001F000DA719023DA053B1C0833101C191C00F03F
:1002000025F901200121FFF77BFF0020002100F0EC
:1002100021FB3B1C103301221A603B1C10330022CF
:100220001A713B1C103310225A713B1C10330122EF
:100230009A713B1C1033181C00F05AFA3B1D052222
:100240001A703B1D00225A703B1D01229A703B1D03
:10025000181C00F047FBBD4606B080BD80B586B0D7
:1002600000AF80239B02181C0121FFF72BFF3B1CD2
:10027000083302221A603B1C083300221A713B1C0F
:1002800008330022DA719023DA053B1C0833101C76
:10029000191C00F0DBF801200121FFF731FF0020DD
:1002A000012100F0D7FA3B1C103302221A603B1CDC
:1002B000103300221A713B1C103310225A713B1C60
:1002C000103301229A713B1C1033181C00F010FAF5
:1002D0003B1D05221A703B1D01225A703B1D012255
:1002E0009A703B1D181C00F0FDFABD4606B080BD9B
:1002F00080B582B000AF00237B6002E07B680133F1
:100300007B607A68024B9A42F8DDBD4602B080BD40
:10031000FF083D0080B500AF012000F065FA031C26
:10032000002B15D0194B1B685A1C184B1A60174B21
:100330001B68632B02DD154B63221A60134B1B688D
:10034000181C00F025F8FFF7D3FF012000F076FA23
:10035000022000F049FA031C002B15D00B4B1B6840
:100360005A1E0A4B1A60094B1B68002B02DA074B16
:1003700000221A60054B1B68181C00F009F8FFF7F3
:10038000B7FF022000F05AFABD4680BD00000020F1
:1003900080B584B000AF78607B68181C0A2100F03B
:1003A000F7FA031CFB607B68181C0A2100F046FB6F
:1003B0000B1CBB609023DB05FA6892B2120192B26B
:1003C0009A82044BBA6892B2920192B29A82BD4666
:1003D00004B080BD0008004880B500AFFFF7AEFE56
:1003E000FFF7F2FEFFF73AFF032000F0EDF9044BB0
:1003F0001B68181CFFF7CCFFFFF77AFFF7E7C04632
:1004000000000020002103E00A4B5B5843500431F8
:1004100009480A4B42189A42F6D3094A02E00023DF
:1004200013600432074B9A42F9D300F0ABF8FFF7A0
:10043000D3FF7047540A000800000020000000208D
:100440000000002004000020FEE7000080B586B018
:1004500000AF7860396000237B6100233B6100239B
:10046000FB6000237B6185E07B690122101C9840C2
:10047000031C3B613B681B683A691340FB60FA68E8
:100480003B699A4273D13B681B79012B03D03B68CF
:100490001B79022B38D17B689B687A695200032153
:1004A000081C9040021CD2431A407B689A607B680B
:1004B0009A683B685B79191C7B695B00081C984053
:1004C000031C1A437B689A607B689B889BB27A699D
:1004D00092B20121081C9040021C92B2D24392B207
:1004E00013409AB27B689A807B689B889AB23B687B
:1004F0009B79191C7B699BB2081C9840031C9BB21A
:1005000013439AB27B689A807B681B687A695200B1
:100510000321081C9040021CD2431A407B681A60D9
:100520007B681A683B681B79191C7B695B00081C97
:100530009840031C1A437B681A607B68DB687A6901
:1005400092B252000321081C9040021CD2431A4070
:100550007B68DA607B68DA683B68DB79191C7B6949
:100560005B00081C9840031C1A437B68DA607B69B7
:1005700001337B617B690F2B00D875E7BD4606B060
:1005800080BDC04680B500AF1B4B1B4A12680121DD
:100590000A431A60184B184A5168184A0A405A60B0
:1005A000154B154A1168164A0A401A60124B124A36
:1005B0001168144A0A401A600F4B0F4A5168124AD8
:1005C0000A405A600C4B0C4AD26A0F218A43DA6205
:1005D000094B094A116B0D4A0A401A63064B064A39
:1005E000526B01218A435A63034B00229A6000F048
:1005F0000FF8BD4680BDC046001002400CB8FFF8A1
:10060000FFFFF6FEFFFFFBFFFFFFC0FFACFEFFFF9B
:1006100080B582B000AF00237B6000233B60314B8C
:10062000304A1268802149020A431A602D4B1A6829
:1006300080239B0213403B607B6801337B603B68F7
:10064000002B04D17A68A023DB009A42EED1254B1F
:100650001A6880239B02134002D001233B6001E013
:1006600000233B603B68012B38D11F4B11221A60DD
:100670001C4B1C4A52685A601A4B1A4A52685A60FC
:10068000184B184A5168194A0A405A60154B154AC6
:100690005268882149030A435A60124B114A126872
:1006A000802149040A431A60C0460E4B1A68802311
:1006B0009B041340F9D00B4B0A4A526803218A432A
:1006C0005A60084B074A526802210A435A60C046E2
:1006D000044B5A680C231340082BF9D1BD4602B0D5
:1006E00080BDC0460010024000200240FFFFC0FF56
:1006F00080B584B000AF78600023FB60314BFB60B5
:100700007B689B79002B4DD02E4B2E4A11687A685E
:100710001268D2430A401A602A4B2A4A51687A6802
:100720001268D2430A405A607B681B79FA68D31872
:10073000FB60FB68FA6811687A6812680A431A60FD
:10074000204B204A91687A681268D2430A409A6026
:100750001C4B1C4AD1687A681268D2430A40DA609E
:100760007B685B79102B0ED1164B164A91687A681C
:1007700012680A439A60134B124AD1687A68126869
:100780000A43DA601BE00F4BFB607B685B79FA6819
:10079000D318FB60FB68FA6811687A6812680A432C
:1007A0001A600CE07B681B79FA68D318FB60FB6861
:1007B000FA6811687A681268D2430A401A60BD4626
:1007C00004B080BD0004014080B582B000AF786005
:1007D000044B044A11697A680A431A61BD4602B0A3
:1007E00080BDC0460004014080B584B000AF786091
:1007F0003B1C0F3300221A700023BB600E4B1B689A
:100800007A681340BB600C4B5B697A68134007D071
:10081000BB68002B04D03B1C0F3301221A7003E08D
:100820003B1C0F3300221A703B1C0F331B78181C23
:10083000BD4604B080BDC0460004014080B582B012
:1008400000AF7860024B7A685A61BD4602B080BD45
:1008500000040140B0B584B000AF0A1CFB1D011CB0
:100860001970BB1D1A700023FB60BB1D1A7803238F
:1008700013409B000F22111C99400B1CFB60184B6E
:10088000BA1D12789208D2B21549B81D00788008B6
:10089000C0B2023080004158F868C04301400232C3
:1008A0009200D1500E4BBA1D12789208D2B20C4968
:1008B000B81D00788008C0B2023080004058F91D91
:1008C0000C78B91D0D78032129408900251C8D4025
:1008D000291C014302329200D150BD4604B0B0BD84
:1008E0000000014080B584B000AF78600023FB6059
:1008F0007B689B78002B3CD0244B7A681278920856
:10090000D2B2C0329200D358FB607B681B781A1CAD
:1009100003231340DB00FF22101C9840031CDA4322
:10092000FB681340FB607B685B789A01FF231A40E9
:100930007B681B78191C03230B40DB00111C9940BA
:100940000B1CFA681343FB60104B7A68127892080C
:10095000D2B2C0329200F968D1500C4B7A6812784A
:10096000111C1F220A400121081C9040021C1A6021
:1009700009E0064A7B681B78191C1F230B400121E4
:1009800099408023D150BD4604B080BD00E100E015
:10099000002941D010B4041C4C40A446012300227D
:1009A000002900D54942002800D5404288422CD376
:1009B00001242407A14204D2814202D209011B0171
:1009C000F8E7E400A14204D2814202D249005B0070
:1009D000F8E7884201D3401A1A434C08A04202D3D8
:1009E000001B5C0822438C08A04202D3001B9C0819
:1009F0002243CC08A04202D3001BDC08224300287B
:100A000003D01B0901D00909E3E7101C6446002C40
:100A100000D5404210BC7047002806D003DB002000
:100A2000C043400801E08020000607B4024802A14C
:100A30004018029003BDC046190000000029EBD009
:100A400003B5FFF7A7FF0EBC4243891A1847C046FB
:040A50007047C046E5
:0400000508000000EF
:00000001FF
