:020000040800F2
:10000000002000206D080008410F0008490F00087B
:1000100000000000000000000000000000000000E0
:10002000000000000000000000000000510F000868
:100030000000000000000000590F0008610F0008D8
:10004000B9080008B9080008B9080008B90800088C
:10005000B9080008B9080008B90800082D07000809
:10006000B9080008B9080008B9080008B90800086C
:10007000B9080008B9080008B9080008B90800085C
:10008000B9080008B908000800000000B908000815
:10009000B9080008B9080008B9080008B90800083C
:1000A000B9080008B9080008B9080008B90800082C
:1000B000B908000800000000B908000800000000AE
:1000C0005FF808F180B582B000AF78600A1CFB1CB5
:1000D0001A70FB1C1B78002B06D0084B074A51698D
:1000E0007A680A435A6106E0044B044A5269796807
:1000F000C9430A405A61BD4602B080BD00100240AB
:1001000080B582B000AF78600A1CFB1C1A70FB1C23
:100110001B78002B06D0084B074A91697A680A437E
:100120009A6106E0044B044A92697968C9430A401F
:100130009A61BD4602B080BD0010024080B582B019
:1001400000AF78600A1CFB1C1A70FB1C1B78002B8C
:1001500006D0084B074AD1697A680A43DA6106E09B
:10016000044B044AD2697968C9430A40DA61BD4642
:1001700002B080BD0010024080B582B000AF786050
:100180000A1CFB1C1A70FB1C1B78002B06D0084BAA
:10019000074A11697A680A431A6106E0044B044A67
:1001A00012697968C9430A401A61BD4602B080BD30
:1001B0000010024080B582B000AF7860C0467B6816
:1001C0005A1E9341DBB27A68013A7A60002BF6D16D
:1001D000BD4602B080BDC04680B500AF1B4B1B4A78
:1001E000928A92B240218A4392B29A82174B174A5E
:1001F000928A92B280218A4392B29A821E2000F0A3
:10020000EBF83020002100F063F8052000F0E4F85E
:100210003020002100F05CF8012000F0DDF8022021
:10022000002100F015F82820002100F011F80C2022
:10023000002100F00DF80120002100F009F806204F
:10024000002100F005F8BD4680BDC046000800480A
:1002500080B582B000AF0A1CFB1D011C1970BB1DCC
:100260001A7000F02DF8BB1D1B78002B08D1134B22
:10027000124A928A92B280218A4392B29A8207E00D
:100280000E4B0E4A928A92B280210A4392B29A820F
:10029000FB1D1B781B09DAB2BB1D1B78101C191C37
:1002A00000F016F8FB1D1A78BB1D1B78101C191CDA
:1002B00000F00EF8BD4602B080BDC0460008004800
:1002C00080B500AF022000F087F8BD4680BDC04673
:1002D00080B582B000AF0A1CFB1D011C1970BB1D4C
:1002E0001A709023DB059022D205928A91B21F4AA0
:1002F0000A4092B29A829023DB059022D205928A1C
:1003000092B291B2FA1D1278920192B20A4392B25D
:1003100092B29A82BB1D1B78002B08D1144B144A51
:10032000928A92B280218A4392B29A8207E0104B5D
:100330000F4A928A92B280210A4392B29A820C4B5F
:100340000B4A928A92B240210A4392B29A82642066
:10035000FFF730FF064B064A928A92B240218A4349
:1003600092B29A82BD4602B080BDC0463FFCFFFFFC
:100370000008004880B582B000AF786008E07B6874
:100380001B787A6801327A60181C0121FFF760FF40
:100390007B681B78002BF2D1BD4602B080BDC04601
:1003A00080B582B000AF021CFB1D1A70FB1D1B78CC
:1003B000002B0EDB012B02DD022B05D009E0802093
:1003C0000021FFF745FF04E0C0200021FFF740FFB8
:1003D000C046BD4602B080BD80B584B000AF786035
:1003E0000023FB6007E096239B00181CFFF7E2FE4A
:1003F000FB680133FB60FA687B689A42F3D3BD4621
:1004000004B080BD80B500AF184B01225A60802334
:100410009B02181C0121FFF755FE80231B03181CAB
:100420000121FFF74FFE114B104A1268802149024B
:100430000A431A60C0460D4B1A6880239B02134082
:10044000F9D09023DB05AA22D2021A60084BA02221
:10045000D2011A609023DB05AA2212039A60044B92
:10046000A02212029A60BD4680BDC0460010024024
:100470000008004880B582B000AF7860C0467B6855
:100480005A1E9341DBB27A68013A7A60002BF6D1AA
:10049000BD4602B080BDC04680B500AF80231B03BF
:1004A000181C0121FFF70EFE0B4BC02292001A60B0
:1004B000094B01221A71084B00229A71064B032244
:1004C0005A71054B0022DA71044A034B101C191CA7
:1004D00000F07AFBBD4680BD1C00002000080048EB
:1004E00080B586B000AF8023DB02181C0121FFF726
:1004F000E9FD3B1C0833802212011A603B1C0833C3
:1005000000221A713B1C08330122DA711A4A3B1C83
:100510000833101C191C00F057FB01200121FFF7C4
:10052000EFFD01200B2100F0B7FD3B1C10338022B2
:1005300012011A603B1C103300221A713B1C10334D
:1005400010225A713B1C103301229A713B1C10334C
:10055000181C00F009FD3B1D07221A703B1D0022EC
:100560005A703B1D01229A703B1D181C00F0DCFDE7
:10057000BD4606B080BDC0460004004880B582B0CC
:1005800000AF021CFB1D1A70264A80231B02101CA0
:10059000191C00F00DFB234B181C202100F008FB58
:1005A000204B181C012100F003FBC0461D4A80238C
:1005B0001B02101C191C00F0D5FA031C002BF5D1EE
:1005C000184B181C302100F025FA164B181C01217D
:1005D00000F07EFA134B181C012100F057FA114A63
:1005E000FB1D1B78101C191C00F0AEFA0E4BC0222C
:1005F00092009A820D4B181CFFF73CFF0A4B002219
:100600009A820A4B181CFFF735FF064B181C012174
:1006100000F07CFA034B181C002100F0DDF9BD4608
:1006200002B080BD005400400008004840420F0066
:1006300080B500AFFFF7E6FEFFF7CEFDFFF72CFF1A
:10064000FFF74EFF00F012F8064B181C002100F0D7
:10065000FFF90120FFF7A4FE034B181CFFF78AFEE9
:10066000FEE7C04600540040FC12000880B500AF11
:100670008023DB02181C0121FFF724FD80239B034C
:10068000181C0121FFF75AFD234BC0221A60224B90
:1006900002221A71204B01229A711F4B0122DA713A
:1006A0001D4B03225A711D4A1B4B101C191C00F0D4
:1006B0008BFA1A4B181C0621012200F03DFB174B48
:1006C000181C0721012200F037FB154B181C00F005
:1006D000F5F8144B0022DA60124B00225A60114BDD
:1006E00000229A600F4B01221A610E4B00225A61C0
:1006F0000C4B0D4A1A600B4B00229A61084A094BB9
:10070000101C191C00F000F9054B181C012100F009
:1007100063F9BD4680BDC0461C00002000040048AF
:100720000054004000000020895E801090B58FB01A
:1007300000AF391C474A0B1C11CA11C3108818801E
:1007400092789A700B23CA182723101C00211A1CB8
:1007500000F040FD80231B01181C00F071FC031CFD
:10076000002B6ED03C4B181C012100F035F9012004
:10077000FFF716FE394B181CFFF7FCFD384B181C11
:10078000FFF778FE00237B632CE0334B181C01211C
:1007900000F022F9334B181C082100F0B1FA314B5C
:1007A000181C092100F0ACFA3A1C7B6BD3181B789B
:1007B000181CFFF7E3FEFA239B00181CFFF75AFEF4
:1007C000284B181C082100F0A9FA264B181C0921F7
:1007D00000F0A4FAFA239B00181CFFF74BFE7B6B7A
:1007E00001337B637C6B3B1C181C00F07FFD031CFA
:1007F0009C42CAD31B4B181C082100F081FA194BEC
:10080000181C092100F07CFA134B181C012100F080
:10081000E3F84220FFF7B2FE124B181C082100F04B
:100820006FFA104B181C092100F06AFA0120FFF73B
:10083000B7FD0D4B181CFFF79DFD094B181CFFF76A
:1008400019FE80231B01181C00F01AFCBD460FB0D6
:1008500090BDC04634130008005400400C1300083B
:1008600040420F0000080048201300080C4885464D
:10087000002103E00B4B5B58435004310A480B4BFB
:1008800042189A42F6D30A4A02E000231360043267
:10089000084B9A42F9D300F09DFAFFF7C9FEFEE734
:1008A0000020002068130008000000200000002045
:1008B0000000002024000020FEE7000080B582B088
:1008C00000AF78607A680F4B9A420CD180239B036B
:1008D000181C0121FFF750FC80239B03181C0021EA
:1008E000FFF74AFC0BE08023DB03181C0121FFF714
:1008F00043FC8023DB03181C0021FFF73DFCBD46B1
:1009000002B080BD0054004080B584B000AF786074
:1009100039600023FB607B681B680122191C91432E
:100920000A1C7B681A607B681B68FB60FA68274BAF
:100930001340FB603B685A683B689B681B0213438B
:10094000FA681343FB607B68FA681A603B681A68B0
:100950001F4B1A407B681A617B681B6801221A438F
:100960007B681A600023FB607B68FA689A607B688A
:10097000FA68DA603B689A693B681B691343FB605D
:100980007B68FA689A607B689B68802212021A432F
:100990007B689A603B68DB68FB607B681A68FB6871
:1009A0001A437B681A607B685B68FB60FA68094BD6
:1009B0001340FB603B685B69FA681343FB607B682C
:1009C000FA685A60BD4604B080BDC046FFE0CF0063
:1009D000FFFFFFF0FF7FFF0780B582B000AF7860B8
:1009E0000A1CFB1C1A70FB1C1B78002B06D07B68B2
:1009F0001B6801221A437B681A6007E07B681B684A
:100A00000122191C91430A1C7B681A60BD4602B082
:100A100080BDC04680B584B000AF78600A1CBB1CA6
:100A20001A800023FB607B685B68FB60FB689B0AA5
:100A30009B02FB60BB1C1B889B059B0DFA68134344
:100A4000FB607B68FA685A60BD4604B080BDC04652
:100A500080B582B000AF78600A1CFB1C1A70FB1CCA
:100A60001B78002B07D07B685B68802212011A4339
:100A70007B685A6005E07B685A68034B1A407B68C4
:100A80005A60BD4602B080BDFFF7FFFF80B584B05D
:100A900000AF78600A1CFB1C1A700023FB607B68A7
:100AA0005B68FB60FA68094B1340FB60FB1C1B781A
:100AB0001A04FF231B041340FA681343FB607B688E
:100AC000FA685A60BD4604B080BDC046FFFF00FF13
:100AD00080B582B000AF78600A1CFB1C1A70FB1C4A
:100AE0001B78002B07D07B685B68802292011A4339
:100AF0007B685A6005E07B685A68034B1A407B6844
:100B00005A60BD4602B080BDFFDFFFFF80B582B0F6
:100B100000AF78600A1CFB1C1A70FB1C1B78002BB2
:100B200007D07B685B688022D2011A437B685A60D9
:100B300005E07B685A68034B1A407B685A60BD46E3
:100B400002B080BDFFBFFFFF80B582B000AF78600C
:100B50000A1CFB1C1A70FB1C1A787B689A62BD4643
:100B600002B080BD80B584B000AF786039600023EA
:100B7000BB603B1C0F3300221A707B689B69BB6013
:100B8000BB683A681340BB60BB68002B04D03B1CB9
:100B90000F3301221A7003E03B1C0F3300221A703E
:100BA0003B1C0F331B78181CBD4604B080BDC046EB
:100BB00080B582B000AF786039607B683A68DA61EE
:100BC000BD4602B080BDC04680B586B000AF78603B
:100BD000396000237B6100233B610023FB6000231D
:100BE0007B6185E07B690122101C9840031C3B61FE
:100BF0003B681B683A691340FB60FA683B699A429C
:100C000073D13B681B79012B03D03B681B79022B06
:100C100038D17B689B687A6952000321081C904098
:100C2000021CD2431A407B689A607B689A683B68D2
:100C30005B79191C7B695B00081C9840031C1A43F4
:100C40007B689A607B689B889BB27A6992B201212B
:100C5000081C9040021C92B2D24392B213409AB246
:100C60007B689A807B689B889AB23B689B79191C49
:100C70007B699BB2081C9840031C9BB213439AB239
:100C80007B689A807B681B687A6952000321081C84
:100C90009040021CD2431A407B681A607B681A6835
:100CA0003B681B79191C7B695B00081C9840031C7E
:100CB0001A437B681A607B68DB687A6992B25200DB
:100CC0000321081C9040021CD2431A407B68DA6062
:100CD0007B68DA683B68DB79191C7B695B00081C60
:100CE0009840031C1A437B68DA607B6901337B619F
:100CF0007B690F2B00D875E7BD4606B080BDC046A6
:100D000080B582B000AF78600A1CBB1C1A80BB1C87
:100D10001A887B689A61BD4602B080BD80B582B0FA
:100D200000AF78600A1CBB1C1A807B68BA1C128852
:100D30001A85BD4602B080BD90B585B000AF786021
:100D4000BB1C19807B1C1A700023FB600023BB6056
:100D50007B1C1A78BB1C198807230B409B00111CB5
:100D600099400B1CFB60BB1C1B88DB089BB21A1C48
:100D7000BB1C1B88DB089BB2191C7B6808318900EF
:100D8000CB58B91C08880721014089000F20041C9A
:100D90008C40211CC94319407B6808329200D15015
:100DA000BB1C1B88DB089BB21A1C7B6808329200B4
:100DB000D258FB681343BB60BB1C1B88DB089BB28B
:100DC0001A1C7B6808329200B968D150BD4605B044
:100DD00090BDC04680B500AF1B4B1B4A1268012175
:100DE0000A431A60184B184A5168184A0A405A6058
:100DF000154B154A1168164A0A401A60124B124ADE
:100E00001168144A0A401A600F4B0F4A5168124A7F
:100E10000A405A600C4B0C4AD26A0F218A43DA62AC
:100E2000094B094A116B0D4A0A401A63064B064AE0
:100E3000526B01218A435A63034B00229A6000F0EF
:100E40000FF8BD4680BDC046001002400CB8FFF848
:100E5000FFFFF6FEFFFFFBFFFFFFC0FFACFEFFFF43
:100E600080B582B000AF00237B6000233B60314B34
:100E7000304A1268802149020A431A602D4B1A68D1
:100E800080239B0213403B607B6801337B603B689F
:100E9000002B04D17A68A023DB019A42EED1254BC6
:100EA0001A6880239B02134002D001233B6001E0BB
:100EB00000233B603B68012B38D11F4B11221A6085
:100EC0001C4B1C4A52685A601A4B1A4A52685A60A4
:100ED000184B184A5168194A0A405A60154B154A6E
:100EE0005268882149030A435A60124B114A12681A
:100EF000802149040A431A60C0460E4B1A688023B9
:100F00009B041340F9D00B4B0A4A526803218A43D1
:100F10005A60084B074A526802210A435A60C04689
:100F2000044B5A680C231340082BF9D1BD4602B07C
:100F300080BDC0460010024000200240FFFFC0FFFD
:100F400080B500AFBD4680BD80B500AFFEE7C046AE
:100F500080B500AFBD4680BD80B500AFBD4680BD49
:100F600080B500AFBD4680BD80B584B000AF78606D
:100F70000023FB60314BFB607B689B79002B4DD0DD
:100F80002E4B2E4A11687A681268D2430A401A60C2
:100F90002A4B2A4A51687A681268D2430A405A603A
:100FA0007B681B79FA68D318FB60FB68FA681168E4
:100FB0007A6812680A431A60204B204A91687A685E
:100FC0001268D2430A409A601C4B1C4AD1687A6866
:100FD0001268D2430A40DA607B685B79102B0ED12D
:100FE000164B164A91687A6812680A439A60134B46
:100FF000124AD1687A6812680A43DA601BE00F4B24
:10100000FB607B685B79FA68D318FB60FB68FA6861
:1010100011687A6812680A431A600CE07B681B79D1
:10102000FA68D318FB60FB68FA6811687A6812687E
:10103000D2430A401A60BD4604B080BD000401409E
:1010400080B584B000AF78603B1C0F3300221A706B
:101050000A4B5B697A68134004D03B1C0F330122B2
:101060001A7003E03B1C0F3300221A703B1C0F3335
:101070001B78181CBD4604B080BDC046000401406A
:1010800080B582B000AF7860024B7A685A61BD4685
:1010900002B080BD00040140B0B584B000AF0A1CAE
:1010A000FB1D011C1970BB1D1A700023FB60BB1DCA
:1010B0001A78032313409B000F22111C99400B1C2C
:1010C000FB60184BBA1D12789208D2B21549B81DB0
:1010D00000788008C0B2023080004158F868C043F0
:1010E000014002329200D1500E4BBA1D1278920884
:1010F000D2B20C49B81D00788008C0B2023080001E
:101100004058F91D0C78B91D0D780321294089003C
:10111000251C8D40291C014302329200D150BD464E
:1011200004B0B0BD0000014080B584B000AF78606D
:101130000023FB607B689B78002B3CD0244B7A68B3
:1011400012789208D2B2C0329200D358FB607B680A
:101150001B781A1C03231340DB00FF22101C98404D
:10116000031CDA43FB681340FB607B685B789A01E1
:10117000FF231A407B681B78191C03230B40DB00FC
:10118000111C99400B1CFA681343FB60104B7A68E2
:1011900012789208D2B2C0329200F968D1500C4B4A
:1011A0007A681278111C1F220A400121081C904005
:1011B000021C1A6009E0064A7B681B78191C1F2371
:1011C0000B40012199408023D150BD4604B080BD21
:1011D00000E100E0F0B5830700D181E0541E002A51
:1011E0007DD0CDB2031C0326E70711D5431C057043
:1011F000334211D01D700133941E33420CD0621E55
:10120000002C6CD01D700133141C334204D0013CFF
:101210001D7001333342F2D1032C49D9FF220A4019
:1012200017023A4315042A430F2C5CD9261C103EA2
:10123000370901373D015E19103DEF061A605A600B
:101240009A60DA601033FD0F9E4213D0002D06D055
:101250001A605A609A60DA6010339E420AD01A60AF
:101260005A609A60DA601A615A619A61DA612033D1
:101270009E42F4D10F231C40351C331C032C17D97C
:10128000261FB7080137BE00AB19043E770704C517
:10129000FE0F9D420AD0002E02D004C59D4205D00B
:1012A0002F1C04C76A603D1D9D42F9D103221440E2
:1012B000002C14D01C19DD43C9B26619012719701E
:1012C00001333E40A3420AD0002E03D019700133EF
:1012D000A34204D0197059700233A342FAD1F0BD71
:1012E000031C141C98E71D1CCAE7C0460023C25CFF
:1012F0000133002AFBD1581E7047C046205072654A
:10130000737320427574746F6E200000204D6173FA
:101310007465722073656E64696E6720000000005A
:10132000204D617374657220636F6D706C657465B8
:101330002000000048656C6C6F20576F72640000DD
:10134000000000000000000000000000000000009D
:10135000000000000000000000000000000000008D
:08136000000000000000000085
:0400000508000000EF
:00000001FF
